:020000040800F2
:1000000000000220312D0008492C00084B2C00086C
:100010004D2C00084F2C0008512C00080000000057
:10002000000000000000000000000000E167000880
:10003000532C00080000000071680008F35100080C
:10004000812D0008812D0008812D0008812D0008D8
:10005000812D0008812D0008812D0008812D0008C8
:10006000812D0008812D0008812D0008812D0008B8
:10007000812D0008812D0008812D0008812D0008A8
:10008000812D0008812D0008812D0008812D000898
:10009000812D0008812D0008812D0008812D000888
:1000A000812D0008812D0008812D0008812D000878
:1000B000812D0008812D0008812D0008812D000868
:1000C000812D0008812D0008812D0008812D000858
:1000D000812D0008812D0008812D0008552C000875
:1000E000812D0008812D0008812D0008812D000838
:1000F000812D0008812D0008812D0008812D000828
:10010000812D0008812D0008812D0008812D000817
:10011000812D0008812D0008612C0008812D000828
:10012000812D0008812D0008812D0008812D0008F7
:10013000812D0008812D0008812D0008812D0008E7
:10014000812D0008812D0008812D0008812D0008D7
:10015000812D0008812D0008812D0008812D0008C7
:10016000812D0008812D0008812D0008812D0008B7
:10017000812D0008812D0008812D0008000000005D
:08018000812D0008812D00080B
:1001900010B5054C237833B9044B13B10448AFF3C1
:1001A00000800123237010BD980000200000000093
:1001B000D89C000808B5034B1BB103490348AFF3B3
:1001C000008008BD000000009C000020D89C0008B2
:1001D00001F0FF01102A2BDB10F0070F08D010F8F8
:1001E000013B013A8B422DD010F0070F42B3F6D1FC
:1001F000F0B441EA012141EA014122F007047FF015
:1002000000070023F0E80256083C85EA010586EA6B
:10021000010685FA47F5A3FA87F586FA47F6A5FAA7
:1002200087F68EB9EED1F0BC01F0FF0102F00702B3
:1002300032B110F8013B013A83EA010313B1F8D15E
:100240000020704701387047002D06BF354603383F
:10025000073815F0010F07D1013015F4807F02BF78
:10026000013015F4C03F0130F0BC0138704700BFC9
:1002700081F0004102E000BF83F0004330B54FEA57
:1002800041044FEA430594EA050F08BF90EA020FC4
:100290001FBF54EA000C55EA020C7FEA645C7FEA57
:1002A000655C00F0E2804FEA5454D4EB5555B8BF7A
:1002B0006D420CDD2C4480EA020281EA030382EAEB
:1002C000000083EA010180EA020281EA0303362D7D
:1002D00088BF30BD11F0004F4FEA01314FF4801C50
:1002E0004CEA113102D0404261EB410113F0004F62
:1002F0004FEA03334CEA133302D0524263EB430319
:1003000094EA050F00F0A780A4F10104D5F1200EB6
:100310000DDB02FA0EFC22FA05F2801841F1000111
:1003200003FA0EF2801843FA05F359410EE0A5F1E5
:1003300020050EF1200E012A03FA0EFC28BF4CF016
:10034000020C43FA05F3C01851EBE37101F00045CC
:1003500007D54FF0000EDCF1000C7EEB00006EEBD9
:100360000101B1F5801F1BD3B1F5001F0CD3490863
:100370005FEA30004FEA3C0C04F101044FEA4452BA
:1003800012F5800F80F09A80BCF1004F08BF5FEA41
:10039000500C50F1000041EB045141EA050130BD21
:1003A0005FEA4C0C404141EB0101013C28BFB1F533
:1003B000801FE9D291F0000F04BF01460020B1FA7E
:1003C00081F308BF2033A3F10B03B3F120020CDA51
:1003D0000C3208DD02F1140CC2F10C0201FA0CF02F
:1003E00021FA02F10CE002F11402D8BFC2F1200C94
:1003F00001FA02F120FA0CFCDCBF41EA0C0190404A
:10040000E41AA2BF01EB0451294330BD6FEA040492
:100410001F3C1CDA0C340EDC04F11404C4F120027D
:1004200020FA04F001FA02F340EA030021FA04F38F
:1004300045EA030130BDC4F10C04C4F1200220FAE6
:1004400002F001FA04F340EA0300294630BD21FA24
:1004500004F0294630BD94F0000F83F4801306BFEA
:1004600081F480110134013D4EE77FEA645C18BFDE
:100470007FEA655C29D094EA050F08BF90EA020F75
:1004800005D054EA000C04BF1946104630BD91EA6D
:10049000030F1EBF0021002030BD5FEA545C05D170
:1004A0004000494128BF41F0004130BD14F58004AF
:1004B0003CBF01F5801130BD01F0004545F0FE4123
:1004C00041F470014FF0000030BD7FEA645C1ABF58
:1004D000194610467FEA655C1CBF0B46024650EA8F
:1004E000013406BF52EA033591EA030F41F40021BB
:1004F00030BD00BF90F0000F04BF0021704730B541
:100500004FF4806404F132044FF000054FF0000115
:1005100050E700BF90F0000F04BF0021704730B5D6
:100520004FF4806404F1320410F0004548BF4042AB
:100530004FF000013EE700BF42004FEAE2014FEA00
:1005400031014FEA02701FBF12F07F4393F07F4FDB
:1005500081F06051704732F07F4208BF704793F0DE
:100560007F4F04BF41F40021704730B54FF46074F1
:1005700001F0004521F000411CE700BF50EA0102F4
:1005800008BF704730B54FF000050AE050EA01029D
:1005900008BF704730B511F0004502D5404261EB0D
:1005A00041014FF4806404F132045FEA915C3FF44E
:1005B000D8AE4FF003025FEADC0C18BF03325FEAEB
:1005C000DC0C18BF033202EBDC02C2F1200300FA9C
:1005D00003FC20FA02F001FA03FE40EA0E0021FAC1
:1005E00002F11444BDE600BF70B54FF0FF0C4CF4AF
:1005F000E06C1CEA11541DBF1CEA135594EA0C0F61
:1006000095EA0C0F00F0DEF82C4481EA030621EA9B
:100610004C5123EA4C5350EA013518BF52EA0335D6
:1006200041F4801143F4801338D0A0FB02CE4FF088
:100630000005E1FB02E506F00042E0FB03E54FF0B8
:100640000006E1FB03569CF0000F18BF4EF0010EB0
:10065000A4F1FF04B6F5007F64F5407404D25FEAAC
:100660004E0E6D4146EB060642EAC62141EA55515F
:100670004FEAC52040EA5E504FEACE2EB4F1FD0CA1
:1006800088BFBCF5E06F1ED8BEF1004F08BF5FEA1F
:10069000500E50F1000041EB045170BD06F00046D1
:1006A00046EA010140EA020081EA0301B4EB5C047E
:1006B000C2BFD4EB0C0541EA045170BD41F4801176
:1006C0004FF0000E013C00F3AB8014F1360FDEBF9B
:1006D000002001F0004170BDC4F10004203C35DA77
:1006E0000C341BDC04F11404C4F1200500FA05F3FA
:1006F00020FA04F001FA05F240EA020001F000429B
:1007000021F0004110EBD37021FA04F642EB060110
:100710005EEA430E08BF20EAD37070BDC4F10C043A
:10072000C4F1200500FA04F320FA05F001FA04F2FE
:1007300040EA020001F0004110EBD37041F10001EA
:100740005EEA430E08BF20EAD37070BDC4F12005F5
:1007500000FA05F24EEA020E20FA04F301FA05F25D
:1007600043EA020321FA04F001F0004121FA04F205
:1007700020EA020000EBD3705EEA430E08BF20EAD5
:10078000D37070BD94F0000F0FD101F0004640000F
:1007900041EB010111F4801F08BF013CF7D041EA91
:1007A000060195F0000F18BF704703F00046520095
:1007B00043EB030313F4801F08BF013DF7D043EA66
:1007C0000603704794EA0C0F0CEA135518BF95EA1C
:1007D0000C0F0CD050EA410618BF52EA4306D1D1A3
:1007E00081EA030101F000414FF0000070BD50EAC2
:1007F000410606BF1046194652EA430619D094EA4C
:100800000C0F02D150EA013613D195EA0C0F05D135
:1008100052EA03361CBF104619460AD181EA030189
:1008200001F0004141F0FE4141F470014FF0000041
:1008300070BD41F0FE4141F4780170BD70B54FF0DC
:10084000FF0C4CF4E06C1CEA11541DBF1CEA13555C
:1008500094EA0C0F95EA0C0F00F0A7F8A4EB05043E
:1008600081EA030E52EA03354FEA013100F0888035
:100870004FEA03334FF0805545EA131343EA1263FE
:100880004FEA022245EA111545EA10654FEA0026B3
:100890000EF000419D4208BF964244F1FD0404F56C
:1008A000407402D25B084FEA3202B61A65EB0305C8
:1008B0005B084FEA32024FF480104FF4002CB6EB85
:1008C000020E75EB030E22BFB61A754640EA0C0005
:1008D0005B084FEA3202B6EB020E75EB030E22BF45
:1008E000B61A754640EA5C005B084FEA3202B6EB86
:1008F000020E75EB030E22BFB61A754640EA9C0045
:100900005B084FEA3202B6EB020E75EB030E22BF14
:10091000B61A754640EADC0055EA060E18D04FEAD2
:10092000051545EA16754FEA06164FEAC30343EA72
:1009300052734FEAC2025FEA1C1CC0D111F4801F3F
:100940000BD141EA00014FF000004FF0004CB6E738
:1009500011F4801F04BF01430020B4F1FD0C88BFD7
:10096000BCF5E06F3FF6AFAEB5EB030C04BFB6EBE2
:10097000020C5FEA500C50F1000041EB045170BDD5
:100980000EF0004E4EEA113114EB5C04C2BFD4EB02
:100990000C0541EA045170BD41F480114FF0000E86
:1009A000013C90E645EA060E8DE60CEA135594EA02
:1009B0000C0F08BF95EA0C0F3FF43BAF94EA0C0F05
:1009C0000AD150EA01347FF434AF95EA0C0F7FF47A
:1009D00025AF104619462CE795EA0C0F06D152EACE
:1009E00003353FF4FDAE1046194622E750EA4106B2
:1009F00018BF52EA43067FF4C5AE50EA41047FF4C3
:100A00000DAF52EA43057FF4EBAE12E74FF0FF3C27
:100A100006E000BF4FF0010C02E000BF4FF0010CF8
:100A20004DF804CD4FEA410C7FEA6C5C4FEA430C71
:100A300018BF7FEA6C5C1BD001B050EA410C0CBFC0
:100A400052EA430C91EA030F02BF90EA020F002022
:100A5000704710F1000F91EA030F58BF994208BF89
:100A600090422CBFD8176FEAE37040F00100704746
:100A70004FEA410C7FEA6C5C02D150EA013C07D19D
:100A80004FEA430C7FEA6C5CD6D152EA033CD3D0E8
:100A90005DF8040B704700BF8446104662468C46E2
:100AA0001946634600E000BF01B5FFF7B7FF002815
:100AB00048BF10F1000F01BD4DF808EDFFF7F4FF3E
:100AC0000CBF012000205DF808FB00BF4DF808EDC9
:100AD000FFF7EAFF34BF012000205DF808FB00BFEC
:100AE0004DF808EDFFF7E0FF94BF012000205DF80E
:100AF00008FB00BF4DF808EDFFF7CEFF94BF0120C3
:100B000000205DF808FB00BF4DF808EDFFF7C4FFBB
:100B100034BF012000205DF808FB00BF4FEA41020E
:100B200012F5001215D211D56FF47873B3EB62523F
:100B300012D94FEAC12343F0004343EA505311F066
:100B4000004F23FA02F018BF404270474FF00000F8
:100B5000704750EA013005D111F0004008BF6FF036
:100B6000004070474FF00000704700BF4FEA41025D
:100B7000B2F1E04324BFB3F5001CDCF1FE5C0DD9FB
:100B800001F0004C4FEAC0024CEA5070B2F1004F45
:100B900040EB830008BF20F00100704711F0804F48
:100BA00021D113F13872BCBF01F00040704741F40D
:100BB00080114FEA5252C2F11802C2F1200C10FA11
:100BC0000CF320FA02F018BF40F001004FEAC123F5
:100BD0004FEAD32303FA0CFC40EA0C0023FA02F399
:100BE0004FEA4303CCE77FEA625307D150EA01336F
:100BF0001EBF4FF0FE4040F44000704701F000403F
:100C000040F0FE4040F40000704700BF53B94AB9BD
:100C1000002908BF00281CBF4FF0FF314FF0FF3004
:100C200000F074B9ADF1080C6DE904CE00F006F8DF
:100C3000DDF804E0DDE9022304B070472DE9F04758
:100C4000089D04468E46002B4DD18A42944669D9B0
:100C5000B2FA82F252B101FA02F3C2F1200120FA93
:100C600001F10CFA02FC41EA030E94404FEA1C48E1
:100C7000210CBEFBF8F61FFA8CF708FB16E341EADD
:100C8000034306FB07F199420AD91CEB030306F163
:100C9000FF3080F01F81994240F21C81023E634484
:100CA0005B1AA4B2B3FBF8F008FB103344EA034428
:100CB00000FB07F7A7420AD91CEB040400F1FF333D
:100CC00080F00A81A74240F207816444023840EA7A
:100CD0000640E41B00261DB1D4400023C5E90043B3
:100CE0003146BDE8F0878B4209D9002D00F0EF8036
:100CF0000026C5E9000130463146BDE8F087B3FA69
:100D000083F6002E4AD18B4202D3824200F2F98050
:100D1000841A61EB030301209E46002DE0D0C5E953
:100D2000004EDDE702B9FFDEB2FA82F2002A40F09F
:100D30009280A1EB0C014FEA1C471FFA8CFE0126A2
:100D4000200CB1FBF7F307FB131140EA01410EFB46
:100D500003F0884208D91CEB010103F1FF3802D2ED
:100D6000884200F2CB804346091AA4B2B1FBF7F0E7
:100D700007FB101144EA01440EFB00FEA64508D90A
:100D80001CEB040400F1FF3102D2A64500F2BB8047
:100D90000846A4EB0E0440EA03409CE7C6F1200796
:100DA000B34022FA07FC4CEA030C20FA07F401FADC
:100DB00006F31C43F9404FEA1C4900FA06F3B1FB65
:100DC000F9F8200C1FFA8CFE09FB181140EA0141CA
:100DD00008FB0EF0884202FA06F20BD91CEB010167
:100DE00008F1FF3A80F08880884240F28580A8F1BF
:100DF00002086144091AA4B2B1FBF9F009FB101111
:100E000044EA014100FB0EFE8E4508D91CEB0101AE
:100E100000F1FF346CD28E456AD90238614440EA51
:100E20000840A0FB0294A1EB0E01A142C846A646D1
:100E300056D353D05DB1B3EB080261EB0E0101FA5A
:100E400007F722FA06F3F1401F43C5E900710026B7
:100E50003146BDE8F087C2F12003D8400CFA02FC0D
:100E600021FA03F3914001434FEA1C471FFA8CFE1D
:100E7000B3FBF7F007FB10360B0C43EA064300FB0D
:100E80000EF69E4204FA02F408D91CEB030300F1AB
:100E9000FF382FD29E422DD9023863449B1B89B262
:100EA000B3FBF7F607FB163341EA034106FB0EF3EB
:100EB0008B4208D91CEB010106F1FF3816D28B4298
:100EC00014D9023E6144C91A46EA004638E72E4664
:100ED000284605E70646E3E61846F8E64B45A9D25C
:100EE000B9EB020864EB0C0E0138A3E74646EAE7CB
:100EF000204694E74046D1E7D0467BE7023B614479
:100F000032E7304609E76444023842E7704700BFE1
:100F1000FEE7FEE708B51E4C1E4D23785A1E0D2A2B
:100F200011D8DFE802F00707141A1C1E2025272914
:100F30002B2E3032013B18BF01232B70164B0122A0
:100F40001A7063232370642004F0D5F9E5E70223C7
:100F50002B70124B5A221A60F3E70323F8E704239D
:100F6000F6E70523F4E702232B70B4220B4BF2E7DC
:100F70000323F9E70423F7E70523F5E70A232B709A
:100F8000DFE70B23FBE70C23F9E70923F7E700BFB3
:100F9000000000200400002008040020DC000020E5
:100FA00000B5194D194C8BB06868FFF7C5FA41ECD4
:100FB000100B05A9052006F041F805AA2146684650
:100FC00006F0A8FA0A216A46084605F08FFF104B82
:100FD0001049B3F90020684606F09CFA6A461421CD
:100FE0000A2005F083FF0C4A0C49684606F092FA85
:100FF0006A461E210A2005F079FF05F0DBFE642019
:1010000004F079F9D0E700BF10040020F09C00083C
:10101000BE010020F79C0008C5000020FF9C0008CE
:1010200008B50B480022042102F0A6F90848012265
:10103000082102F0A1F906480022202102F09CF9C3
:10104000BDE8084002480122102102F095B900BF16
:101050000000024000B595B02C22002109A806F03E
:1010600042F91422002103A806F03DF90023194A91
:101070000193116C41F080511164126C02F08052A6
:101080000192019A144A0293116841F4804111605F
:1010900012680E9302F480420292029A022208928F
:1010A00001201022CDE90B0208A802F0A3FD0146A1
:1010B00008B172B6FEE70F23CDE90330CDE9050094
:1010C000079003A802F074FF08B172B6FEE715B0EE
:1010D0005DF804FB003802400070004070B59AB023
:1010E00001F050FEFFF7B6FF1422002111A806F010
:1010F000FAF80024A14B00941A6BA148A14D42F0CC
:1011000010021A631A6B02F010020092009A019406
:101110001A6B42F004021A631A6B02F00402019285
:10112000019A02941A6B42F001021A631A6B02F0E0
:1011300001020292029A03941A6B42F002021A63AD
:101140001B6B03F00203039322464FF4FC61039BE5
:1011500002F012F98C4822463C2102F00DF9224699
:101160008A484FF4806102F007F901264FF4FC63CE
:10117000834811A9CDE91136CDE9134402F022F8D4
:101180003C23CDE9113680481394022311A914930E
:1011900002F018F84FF480637C4811A9CDE91136AC
:1011A000CDE9134402F00EF81022214606A806F0FD
:1011B0009AF81C2221460AA8CDE9044406F093F8C7
:1011C0002022214611A806F08EF8714BAC60C5E9CB
:1011D0000034284641F61F43C5E90334C5E90544F8
:1011E00003F01AFA08B172B6FEE74FF4805306A96D
:1011F0002846069303F05AFB08B172B6FEE728466C
:1012000003F036FA08B172B6FEE7CDE9040004A98E
:10121000284603F05FFC024608B172B6FEE7602381
:10122000CDE90A30CDE90C00CDE90E0010900AA9F5
:10123000284603F0D5FA08B172B6FEE704220AA9DF
:10124000284603F0CDFA08B172B6FEE7CDE91100E9
:10125000CDE9130015904FF40053189011A92846BA
:10126000169303F075FC044608B172B6FEE7494DCB
:1012700001461C2212A806F036F84FF08043C5E95B
:1012800000344FF0FF33C5E903340323119311A950
:101290000A232846CDE90A44AC60AC611396159345
:1012A0001796199303F010FA08B172B6FEE7CDE96C
:1012B0000A000AA9284603F00DFC044608B172B6DC
:1012C000FEE70146102206A806F00DF81C22214672
:1012D0000AA8CDE9044406F006F82022214611A808
:1012E00006F001F82C4D2D48A023C0E900534FF41F
:1012F0007A73C0E90334802384604461836103F01E
:101300008BF908B172B6FEE74FF480532348069379
:1013100006A903F0CBFA08B172B6FEE71F4803F046
:10132000A7F908B172B6FEE7CDE9040004A91B488D
:1013300003F0D0FB08B172B6FEE76023CDE90A30B6
:10134000CDE90E000C9010900C2214480AA903F06D
:1013500047FA08B172B6FEE7CDE91100CDE91300F6
:1013600015904FF40053189011A90C48169303F0F0
:10137000EFFB0446A0B172B6FEE700BF00380240A2
:10138000001002407C0300200000024000040240E4
:1013900000040140EC02002000000140A4020020F3
:1013A0008148824E01F096FB2146202212A805F0CA
:1013B0009AFF7F4BB460C6E900344FF6FF730125F6
:1013C000C6E9033411A903233046CDE90A44B461C8
:1013D00011931395179503F077F908B172B6FEE7EC
:1013E000CDE90A000AA9304603F074FB034608B1B0
:1013F00072B6FEE76F48704C03614FF4E132C0E90A
:1014000000420C22C0E90233C0E90523C36103F0A6
:1014100089FC034608B172B6FEE768486849694A24
:101420000362C0E900124FF48042C0E90233C0E910
:101430000423C0E9063302F081F9044608B172B60C
:10144000FEE70146102211A805F04DFF5E485F4BF4
:101450008460C0E900345E4B0461047680F820406B
:10146000C4628362C460C56180F83040456101F0A8
:10147000C9FC08B172B6FEE70A230126CDE9113690
:101480005148002311A9139301F062FD054608B1EC
:1014900072B6FEE70146102211A805F024FF4D4C5C
:1014A0004D4BA560C4E900352046494B25612576A2
:1014B00084F82050E562A362E560E66184F830506C
:1014C000666101F09FFC08B172B6FEE70E2313902F
:1014D00011A92046CDE9113601F03AFD08B172B6E6
:1014E000FEE73E4B0C2418809C706422013C1A716C
:1014F000D88003F10403F9D105F018FD2F48032229
:10150000214605F0EBFB062235492A4803F059FE37
:101510002146344803F0DCFA0421324803F0D8FABB
:101520000C21214803F0D4FA3C212F4802F0E3FEBD
:101530003C211E4802F0DFFE01F04AFC2B4B1863F1
:1015400001F046FC2A4B186303F060FE294A2A4842
:10155000214603F087FE294B294A18602146294875
:1015600003F080FE284B294A18602146284803F0E2
:1015700079FE284B284A18602146284803F072FE5D
:10158000274B284A18602146274803F06BFE274B5B
:10159000274A18602146274803F064FE264B18604E
:1015A00003F046FEFEE700BFA40200203403002043
:1015B00000040040C4030020004800405002002006
:1015C00000540040A0860100C0010020002001401E
:1015D0000100000F0802002000210140E40000206B
:1015E000C50000207C030020EC0200203401002014
:1015F00070010020A89D0008B51D000820010020F2
:10160000CC9D0008A10F000824010020849D000843
:10161000150F000818010020F09D0008152600088D
:101620000C040020149E0008110F00083C04002048
:10163000609D0008130F0008E000002010B504466C
:1016400018B1BDE81040FFF7EBBC0B4801220421A4
:1016500001F092FE22460848082101F08DFE06485E
:101660000122202101F088FE22460348BDE81040F7
:10167000102101F081BE00BF0000024042B10C4BBE
:101680001B681B68DB060AD5814203DA401A7047E3
:10169000084BF5E7C1F57F41FF31084470478142AF
:1016A00001DD081A7047C0F57F40FF30F5E700BF45
:1016B000EC02002034030020F8B51A4B1B685B6A6B
:1016C0004B60194B1B685B6A536007460C46D1E9B7
:1016D0000001814215461DD00122FFF7CFFF0646CB
:1016E000D5E90001814217D00022FFF7C7FF4FF66E
:1016F000E7529642034608DC904206DC7A6833449F
:1017000003EBD37302EB63037B60636823606B6856
:101710002B60F8BD0026E3E74FF6E7539E42F4DC6A
:101720000023EBE7EC02002034030020000000005F
:1017300038B5134D134C034610EE100A6B6163610C
:10174000FEF7FAFE0CA3D3E90023FFF777F8FFF7C3
:10175000E5F90D4B18600D4B1A68536A6B600C4B22
:101760001B68596A6160516A0A4A11605A6A0A4BD9
:101770001A6038BDAFF300801E82BD9CEC79213F1A
:10178000340100207001002028010020EC0200201C
:1017900034030020AC010020B40100200D4B0E48A2
:1017A0001B6810B500245C633C229C63214605F055
:1017B0009AFD0A483C22214605F095FD084BC3E9F5
:1017C0000044084BC3E90044074BC3E900449C6054
:1017D00010BD00BF7C0300203401002070010020F8
:1017E000AC010020B4010020280100204B6970B535
:1017F00005460C46002B5ED0384B99425CD1384BE5
:101800001B685B6A0B600122D4E9001081425CD046
:10181000FFF734FF4FF6E753984206DC3C2358436A
:101820004FF4A57390FBF3F32361226942F6F8238A
:101830009A42C4BF00232361D4E904239B1AE361C5
:1018400001F0C6FA226B95ED016A6063D4E90713D3
:10185000861A626AA6638A1AC4E9091292FBF6F232
:1018600007EE902AB8EEE77A07EE901A01FB0633EE
:10187000F8EEE76A07EE903AF8EEE77AE26823625C
:1018800067EE867A95ED006A2063E6EE867AD5EDFE
:10189000026A84ED0B7AE7EE267AFDEEE77A17EE20
:1018A000903A134441F658329342C4ED027A0EDD69
:1018B000E2602368636070BD0A4B994201BF0A4B26
:1018C0001B685B6A0B6000229EE70020A6E7002BE6
:1018D000B8BF4FF4FA73E360EBE700BF34010020B8
:1018E000EC020020700100203403002038B5D1ED57
:1018F000027A91ED017A05460C46002A3CD077EE3B
:10190000677AC4ED037A01F063FA236AD4ED036ABF
:1019100094ED056A6062C31A07EE903A36EEC66A25
:10192000B8EEE77AD4ED047AA362C6EE075A2062D5
:10193000E6EE877A95ED017AC4ED047A67EE877A50
:1019400095ED007A84ED066AE6EE877A95ED027AE7
:10195000C4ED056AE5EE877A9FED0F7AC4ED075A6C
:10196000FDEEE77AF8EEE77AF4EEC77AF1EE10FAD8
:1019700005DD84ED007A38BD77EEC77AC1E79FEDCB
:10198000077AF4EEC77AF1EE10FA48BFF0EE477A24
:10199000C4ED007AEFE700BF00009642000090C25D
:1019A00030B585B0094D009502234FF6FF72CDE9A1
:1019B0000132044601233722D021054801F0F6FF09
:1019C0002B885BBA238005B030BD00BFBC0100206E
:1019D0005002002000000000F0B5354C87B00546ED
:1019E0002046FFF7DDFFB4F90000324CFEF792FD10
:1019F0002BA3D3E90023FEF721FF2BA3D3E9002378
:101A0000FEF7F2FD064620680F46FEF795FD0246FA
:101A10000B4630463946FEF731FCFFF7A7F8206049
:101A2000254C00232A46606021462448A360FFF726
:101A30005DFFD4ED007A9FED227ADFED226A77EE2A
:101A4000877A9FED217A67EE877A87EEA67ADFEDB7
:101A50001F7A77EE277A17EE900AFEF76DFD41ECBC
:101A6000100B08F0F3F851EC100BFFF757F85F2854
:101A7000B8BF5F20F028A8BFF020044602461449F2
:101A800001A805F047FD01AA28210A2005F02EFA39
:101A9000104B1B681C6407B0F0BD00BFAFF30080A3
:101AA00066666666666630407B14AE47E17A843FC0
:101AB000BE0100201C01002010040020180000209E
:101AC000000090420000134300003A4300005842D7
:101AD000089D0008A40200202DE9F84F304D314C3C
:101AE0002DED028B9FED308A0023834685ED008A21
:101AF000238001F06DF90FF29809D9E900890646B3
:101B000001F066F9801B0928FAD92046FFF748FF43
:101B1000B4F90000FEF7FEFC1FA3D3E90023FEF793
:101B20008DFE42464B46FEF75FFD064628680F468F
:101B3000FEF702FD0B46024639463046FEF79EFB95
:101B4000FFF714F8286007EE900A9BED007A77EE15
:101B5000C77AFDEEE77A17EE903A1BB101F038F93B
:101B60000646CDE7114A124B12681B68C2ED0D7A8A
:101B7000C2ED0E7A91221A644FF4FA7003F0BBFBA7
:101B800085ED008ABDEC028B00232380BDE8F88F31
:101B90007B14AE47E17A843F6666666666663040CF
:101BA0001C010020BE010020000000007C0300207A
:101BB000A402002010B5124C124B2360124B1B687C
:101BC000F0221A644FF4FA7003F095FBFFF728FA3D
:101BD0000E4B1B6840F6B8325A634FF448729A6352
:101BE00020460021FFF778FF094B0A4800221A60BF
:101BF000094B00212C22198005F075FB10BD00BF98
:101C000040040020000016C3A40200207C03002032
:101C10001C01002010040020BE01002010B5124C51
:101C2000124B2360124B1B685F221A644FF4FA7048
:101C300003F061FBFFF7F4F90E4B1B684FF4487299
:101C40005A6340F6B8329A6320460121FFF744FFF9
:101C5000094B0A4800221A60094B00212C221980E6
:101C600005F041FB10BD00BF4004002000001543FB
:101C7000A40200207C0300201C010020100400208E
:101C8000BE01002010B5124C124B2360124B1B6892
:101C9000F0221A644FF4FA7003F02DFB0020FFF7D6
:101CA000CDFC0E4B1B6840F6B8325A634FF44872B5
:101CB0009A6320460021FFF70FFF094B09480022D5
:101CC0001A60094B00212C22198005F00CFB10BD75
:101CD0004004002000001543A40200207C030020E3
:101CE0001C01002010040020BE01002010B5124C81
:101CF000124B2360124B1B685F221A644FF4FA7078
:101D000003F0F9FA0020FFF799FC0E4B1B684FF423
:101D100048725A6340F6B8329A6320460121FFF7B1
:101D2000DBFE094B094800221A60094B00212C22D6
:101D3000198005F0D8FA10BD40040020000016C339
:101D4000A40200207C0300201C01002010040020BD
:101D5000BE010020F8B5154D154CFFF761F92B6851
:101D600040F6C4125A639A6323685F221A644FF4E0
:101D7000966003F0C0FA2368F0271F6440F65430E1
:101D800003F0B9FA236891261E644FF4C86003F08B
:101D9000B2FA236840F2DC501F6403F0ACFA236807
:101DA0001E642B6800225A639A63F8BD7C030020EE
:101DB000A402002038B501F00BF801F009F801F099
:101DC00007F8094D094B98602B6891241C644FF467
:101DD000FA7003F090FA4FF47A7003F08CFAFFF780
:101DE000B9FF2B681C64FEE7A40200202801002034
:101DF0002DE9F84F4A4CDFF844A12368DFF8409101
:101E00008B422DED028B8046DFED468AB0EE408A94
:101E10000E4609D000214448CAED008A2C22A9F8B8
:101E2000001005F060FA266000F0D2FF044600F0D2
:101E3000CFFF054600F0CCFF3C4FB86018EE100A0B
:101E4000FEF77AFB34A3D3E90023FEF749FE00280E
:101E500018BF4FF49678F0B214BF4FF04B0B4FF40D
:101E60008C7BFFF7EBFB4046B0EE480AFFF760FCC7
:101E700000212D48A9F800102C22CAED008A05F097
:101E800032FADFF8C080DFF8C09000F0A1FF401BFD
:101E9000092805D93046FFF79FFD00F099FF054658
:101EA00000F096FFBB68C01A132817D9424649466E
:101EB0003846FFF701FC3B687A68A3EB0B039A42B4
:101EC00009D3FFF76BFCBDEC028B4FF4FA70BDE851
:101ED000F84F03F010BA00F07BFFB86000F078FF15
:101EE000001BB0F57A7FD0D3DFF860A0104C11480A
:101EF0004A465146FFF77AFC21460E484246FFF714
:101F000075FC0D4BDAF80C201B685A63E2689A6383
:101F100000F05EFF0446B8E7CDCCCCCCCCCCDC3FA7
:101F20001400002000000000100400202801002000
:101F300070010020080000207C0300201C0100200C
:101F4000BE010020B4010020AC01002034010020BB
:101F50002DE9F843224D234F234EDFF8A4900024AF
:101F60002C224FF0000821462846C7F80080348014
:101F700005F0B9F99FED1D0A1D4BC9F8003001218C
:101F80004FF4C870FFF734FF4FF4FA7003F0B3F961
:101F9000184B1B68F02119644FF4FA7003F0ABF989
:101FA000FFF73EF8144B1B6840F6B83159634FF405
:101FB0004871996348462146FFF78EFD21469FED03
:101FC0000F0A4FF4C870FFF713FF2C222146284652
:101FD000C7F80080348005F086F9BDE8F88300BFBB
:101FE000100400201C010020BE010020B81E853D09
:101FF0000000A0C2A40200207C0300201F856B3ECD
:10200000400400202DE9F0411A4C1B4E1B4DDFF817
:1020100080802C220021002720462980376005F08F
:1020200062F9174BC8F80030164B1B68F020186493
:102030004FF4FA7003F05FF9FEF7F2FF124B1B68E2
:1020400040F6B83058634FF448709863002140461A
:10205000FFF742FD9FED0D0A00214FF4C870FFF716
:10206000C7FE00212C2220463760298005F03BF96D
:10207000BDE8F081100400201C010020BE010020FA
:102080000000A8C2A40200207C030020CDCC4C3E5E
:10209000400400202DE9F843204D214F214EDFF868
:1020A0009C9000242C224FF0000821462846C7F8B7
:1020B0000080348005F017F99FED1B0A1B4BC9F80F
:1020C000003001214FF4C870FFF792FE184B1B68D7
:1020D000522119644FF4FA7003F00DF9FEF7A0FFD6
:1020E000144B1B684FF44871596340F6B83199633B
:1020F00048460121FFF7F0FC21469FED0F0A4FF4FF
:10210000C870FFF775FE2C2221462846C7F80080CC
:10211000348005F0E8F8BDE8F88300BF1004002023
:102120001C010020BE0100208FC2753C0000A442AB
:10213000A40200207C030020D1229B3E400400200A
:102140002DE9F84F2B4EDFF8CC802B4F2B4DDFF8CD
:10215000C8B02DED028B00249FED298A3C802C22F3
:102160002146304688ED008A05F0BDF8254B2B60EE
:10217000254B1968F02008644FF4FA7003F0BBF89F
:10218000FEF74EFFDBF800104FF4FA694FF4487A7F
:10219000C1F834902846C1F838A02146FFF79CFCCE
:1021A000194B1A491B6829605F2119644FF4FA70B2
:1021B00003F0A1F8FEF734FFDBF800300121C3F88B
:1021C00034A02846C3F83890FFF786FC9FED100A2C
:1021D00021464FF4C870FFF70BFE2C2221463046F3
:1021E00088ED008A3C8005F07EF8BDEC028BBDE8EE
:1021F000F88F00BF10040020BE0100204004002022
:1022000000000000000010C2A402002000001442E0
:102210008FC2F53D1C0100207C0300202DE9F84F02
:102220002B4EDFF8C8802B4F2B4DDFF8C4B02DEDBF
:10223000028B00249FED298A3C802C2221463046C7
:1022400088ED008A05F04FF8254B2B60254B196867
:102250005F2008644FF4FA7003F04DF8FEF7E0FEDB
:10226000DBF800104FF448794FF4FA6AC1F8349063
:102270002846C1F838A00121FFF72EFC194B4FF07A
:1022800042411B682960F02119644FF4FA7003F091
:1022900032F8FEF7C5FEDBF800302146C3F834A063
:1022A0002846C3F83890FFF717FC9FED0F0A214628
:1022B0004FF4C870FFF79CFD2C222146304688ED74
:1022C000008A3C8005F00FF8BDEC028BBDE8F88F6A
:1022D00010040020BE010020400400200000000087
:1022E00000000842A402002060E5D03D1C0100204F
:1022F0007C0300202DE9F843224D234F234EDFF8C5
:10230000A49000242C224FF0000821462846C7F84C
:102310000080348004F0E7FF9FED1D0A1D4BC9F8D3
:10232000003001214FF4C870FFF762FD4FF4FA70DE
:1023300002F0E1FF184B1B68F02119644FF4FA70AA
:1023400002F0D9FF2046FFF779F9144B1B6840F6DD
:10235000B83159634FF44871996348462146FFF7F5
:10236000BBFB21469FED0E0A4FF4C870FFF740FDFE
:102370002C2221462846C7F80080348004F0B3FFA1
:10238000BDE8F883100400201C010020BE010020DD
:102390008FC2753E0000AA42A40200207C030020E8
:1023A0008FC2753D400400202DE9F843224D234F94
:1023B000234EDFF8A49000242C224FF00008214681
:1023C0002846C7F80080348004F08DFF9FED1D0A79
:1023D0001D4BC9F8003001214FF4C870FFF708FD0C
:1023E0004FF4FA7002F087FF184B1B6852211964F2
:1023F0004FF4FA7002F07FFF2046FFF71FF9144BED
:102400001B684FF44871596340F6B83199634846E8
:102410000121FFF761FB21469FED0E0A4FF4C870C2
:10242000FFF7E6FC2C2221462846C7F800803480BE
:1024300004F059FFBDE8F883100400201C010020BF
:10244000BE010020E17A943E0000A2C2A402002056
:102450007C0300200AD7A33C40040020037810B579
:1024600000EB830401332171E2808278B3FBF2F147
:1024700002FB1133037010BD437800EB830210B5EB
:1024800014790C70D2884A8082780133B3FBF2F160
:1024900002FB1133437010BD1FB5074901A805F0B9
:1024A0009CF84FF6FF730A2201A9044802F068FC69
:1024B00005B05DF804FB00BF109D0008C4030020B8
:1024C000F8B54E484E4C0578532D28D14378542BFF
:1024D0001CD14C4A63782178072010704A480022AA
:1024E000994202700CD049494548FFF7C5FF48485A
:1024F0004249036806225B68BDE8F84002F061BE0D
:10250000424B642119705A80FFF7C6FF2278637826
:102510009A42E8D13B4B1B78072BE8D1E3E7C6781A
:102520008378A6F130020A21A3F130074A434FF025
:10253000640C0CFB07220779462DA7F130073A44BB
:102540000FD1417857291BD12D2B07D12D2E05D125
:1025500000220B212A48FFF781FFD7E792B2012121
:10256000F8E7422D42D14078572818D12D2B04D1BD
:102570002D2E02D100220C21ECE792B20221E9E7D4
:102580004C2905D1392B18D1002203212046E2E73E
:102590005229BBD1392B15D100220421F6E74C2852
:1025A00004D1392B13D100220521EFE75228ADD1F8
:1025B000392B11D100220621E8E7312B13D100225B
:1025C0000721E3E7312B0BD100220821DEE7312B75
:1025D0009CD100220921D9E7312B97D10022D5E7E0
:1025E0004C2B93D1B4E7522B90D1C3E7552D8DD10D
:1025F0004378532B8AD192B20D21C7E7C500002042
:10260000E400002004000020080400200000002056
:10261000C403002038B5534C534D2378B3B9534A03
:102620005188538007EE901A6421F8EE677A117092
:1026300001219FED4F0A4FF4167087EE800AFFF7D5
:10264000D7FBFFF729FF07232370E6E7012B0AD109
:10265000464B5A8807EE902A00216422F8EE677AEA
:102660001A705980E5E7022B11D1404B64221A7091
:1026700000225A803F4B1B685A2B05D1FFF70AFDF9
:102680003C4B00221A60DCE7FFF7C8FAF8E7032B9F
:102690000ED1364B64221A7000225A80354B1B68CB
:1026A0005A2B02D1FFF754FCEAE7FFF783FAE7E77A
:1026B000042B0ED12D4B64221A7000225A802D4B10
:1026C0001B685A2B02D1FFF76FFED9E7FFF70EFB0D
:1026D000D6E7052B0ED1254B64221A7000225A80B2
:1026E000244B1B685A2B02D1FFF704FEC8E7FFF703
:1026F000C9FAC5E70A2B07D11C4B64221A700022C5
:102700005A80FFF71DFD9CE70B2B07D1174B642266
:102710001A7000225A80FFF781FD92E7082B0BD137
:10272000124B64221A7000225A80FFF7B3FC4FF458
:102730007A7002F0E0FD84E7092B07D10B4B64228D
:102740001A7000225A80FFF75DFCF0E70C2B7FF433
:1027500064AF064B5A882A7064221A7000225A808D
:10276000E5E700BF04000020B800002000000020C2
:102770000000C842DC00002070B5067F012E044630
:1027800010D11C4D297871B901F024FE1A4B2E701E
:10279000186023681A6A22F00A021A621A6A42F062
:1027A00002021A6270BD0129FCD1002101F012FE63
:1027B000124B1860236800225A620F4B1B68984224
:1027C00012D9C31A0E4A136000232B7023681A6AA9
:1027D00022F00A021A621A6A1A620A4B1A68D3684D
:1027E00023F00203D360DDE7EED2C3F57F43FF336E
:1027F0000344E7E7C4000020BC000020C000002024
:10280000B4000020A40200200268034B9A4201D1C8
:1028100000F0D2BA704700BF0010004082B00E4BEB
:1028200000220092596C41F480415964596C01F4C2
:102830008041009100990192196C41F08051196416
:102840001B6C03F080530193019B0F216FF001007B
:1028500002B000F021BC00BF0038024010B51422C5
:102860008AB0044600210DEB020004F03CFD236811
:102870001E4A93421FD11E4B002101915A6C42F413
:1028800080725A645A6C02F480720192019A029129
:102890001A6B42F004021A631B6B03F004030293E9
:1028A000029B012305931348032305A9069300F017
:1028B00089FC0AB010BD104A9342FAD10C4B00219A
:1028C00003915A6C42F400725A645A6C02F400721A
:1028D0000392039A04911A6B42F004021A631B6B71
:1028E00003F004030493049B1023DBE70020014062
:1028F00000380240000802400021014030B5044683
:1029000089B01422002103A804F0EDFC2268144BC6
:102910009A4222D1134C144800250195236B43F0B1
:1029200002032363236B03F002030193019B4FF423
:1029300040721223CDE9032303210423CDE90613BA
:1029400003A900F03FFC0295236C43F400132364B9
:10295000236C03F400130293029B09B030BD00BF47
:1029600000540040003802400004024010B5044604
:1029700088B01422002103A804F0B5FC23681A4A89
:1029800093420DD100230093184B5A6C42F0010280
:102990005A645B6C03F001030093009B08B010BD08
:1029A000134A9342FAD1114B1248002101915A6CFB
:1029B00042F002025A645A6C02F002020192019A39
:1029C00002911A6B42F004021A631B6B03F00403BA
:1029D0000293029BC0220223CDE9032303A9032310
:1029E000079300F0EFFBD9E70000014000380240F8
:1029F000000401400008024070B514228AB0044669
:102A000000210DEB020004F06EFC2368B3F1804F4F
:102A100037D103F50E33002400941A6C294842F094
:102A200001021A641A6C02F001020092009A0194E9
:102A30001A6B42F001021A631A6B02F00102019252
:102A4000019A02941A6B42F002021A631B6B03F0A4
:102A500002030293029B02264FF40043012505A9BD
:102A6000CDE90536099500F0ADFB0823CDE9053623
:102A7000CDE907441448099505A900F0A3FB0AB065
:102A800070BD124A9342FAD1114B0E4800210391B6
:102A90001A6C42F002021A641A6C02F002020392EB
:102AA000039A04911A6B42F001021A631B6B03F044
:102AB00001030493049BC0220223CDE9052309935B
:102AC00005A9DAE7000002400004024000040040CB
:102AD0000038024010B5044686B01422002101A837
:102AE00004F001FC22680E4B9A4216D10023009399
:102AF0000C4B0D481A6B42F010021A631B6B03F06B
:102B000010030093009B4FF480420223CDE9012380
:102B100001A90123059300F055FB06B010BD00BFCD
:102B200000000140003802400010024010B5044689
:102B300088B01422002103A804F0D5FB2268184BAA
:102B40009A422BD103F5F833002401941A6C1548EE
:102B500042F480221A641A6C02F480220192019AD3
:102B600002941A6B42F004021A631B6B03F0040315
:102B700002934FF44062029B0223CDE90323032119
:102B80000723CDE9061303A900F01CFB27202246EA
:102B9000052100F081FA272000F0B0FA08B010BD3E
:102BA000004800400008024070B588B0002302933E
:102BB000204B1A6C42F010021A641B6C03F01003D5
:102BC0000293054601A903A8029B01F0ADFA069BFA
:102BD0004BBB01F089FA184E184B336040F2E733D3
:102BE000F360174BB0FBF3F3013B736030460023F7
:102BF0003361B360B36101F00FFD044680B9304624
:102C000001F03EFB044658B9362000F077FA0F2D4C
:102C10000DD822462946362000F03EFA094B1D60A9
:102C2000204608B070BD01F05FFA4000D3E70124F0
:102C3000F6E700BF003802404404002000100040C6
:102C400040420F002C000020FEE7FEE7FEE7FEE713
:102C5000FEE77047014802F049B900BFC4030020F5
:102C6000014801F0D0BB00BF4404002001207047A0
:102C700008B504F007FA162303604FF0FF3008BDD3
:102C800008B504F0FFF916230360FEE770B50D46A2
:102C900014460E46731B9C4201DC204670BDAFF308
:102CA000008006F8010BF5E770B50D4614460E4698
:102CB000731B9C4201DC204670BD16F8010BAFF37C
:102CC0000080F5E74FF0FF3070474FF400534B6042
:102CD0000020704701207047002070470B4A1168A0
:102CE00010B5034609B90A491160106809490A4C30
:102CF0000344091B8B4206D904F0C4F90C2303607A
:102D00004FF0FF3010BD1360FCE700BF8C040020C3
:102D1000B05200200000022000040000034AD2F854
:102D2000883043F47003C2F88830704700ED00E04B
:102D3000DFF834D00D480E490E4A002302E0D45883
:102D4000C4500433C4188C42F9D30B4A0B4C0023F3
:102D500001E013600432A242FBD3FFF7DFFF04F06F
:102D60008DFAFEF7BBF9704700000220000000203A
:102D70009800002098AB000898000020B052002076
:102D8000FEE7000008B50B4B1A6842F400721A60A7
:102D90001A6842F480621A601A6842F480721A60FB
:102DA000032000F067F90F20FFF7FEFEFFF736FD66
:102DB000002008BD003C0240034A044B11681B7808
:102DC0000B441360704700BF9004002028000020CF
:102DD000014B1868704700BF9004002038B50446C6
:102DE000FFF7F6FF631C1CBF054B1B78054618BF99
:102DF000E418FFF7EDFF431BA342FAD338BD00BF31
:102E00002800002038B50446002800F09B80056C9F
:102E100025B9FFF723FD656484F83C50236CDB067D
:102E200000F18E80236C23F4885323F0020343F0D7
:102E300002032364444B5A6822F440325A605A68B1
:102E400061680A435A60236821695A6822F48072D3
:102E50005A605A6842EA01225A605A68A16822F010
:102E600040725A605A680A435A609A68E16822F4CC
:102E700000629A609A680A439A603449A26A8A4258
:102E800052D0996821F07061996099680A439A60FC
:102E90009A68E16A22F040529A609A680A439A60FE
:102EA0009A6822F002029A609A68217E42EA410200
:102EB0009A6094F82020002A3ED05A68616A42F451
:102EC00000625A605A6822F460425A605A680139B6
:102ED00042EA41325A60DA6AE16922F47002DA6247
:102EE000DA6A013942EA0152DA629A6822F400721F
:102EF0009A609A6894F8301042EA41229A609A687F
:102F0000616922F480629A609A68002042EA812214
:102F10009A606064236C23F0030343F0010323648D
:102F2000002384F83C3038BD9A6822F070629A60C1
:102F30009A6822F04052B2E75A6822F40062C9E768
:102F40000120EDE70120EEE7002301400100000F22
:102F5000F7B50023019390F83C30012B66D0012394
:102F600080F83C300D6803688E68092DACB231D909
:102F700004EB4402DF681E3A4FF0070C0CFA02FC27
:102F800027EA0C07DF60DF6806FA02F23A43DA60EC
:102F90004968062901EB81022CD8596B053A1F2696
:102FA000964021EA06015963596B04FA02F20A437A
:102FB0005A632C4A934207D1122D39D1D2F80433E7
:102FC00043F48003C2F80433002380F83C301846F1
:102FD00003B0F0BD1F6905EB45024FF0070C0CFA7A
:102FE00002FC27EA0C071F611F6906FA02F23A4346
:102FF0001A61CDE70C294FF01F010BD81E6B233A45
:10300000914026EA01011963196B04FA02F20A439E
:103010001A63CEE7DE6A413A914026EA0101D9629D
:10302000D96A04FA02F20A43DA62C2E70220CFE761
:10303000A5F11003012BC7D80B4A5368102D43F498
:1030400000035360C0D1094B094A1B68B3FBF2F37C
:103050000A2253430193019B002BB5D0019B013BF6
:10306000F8E700BF002001400023014024000020B9
:1030700040420F000749CA6822F4E06203021204CA
:1030800003F4E063120C134343F0BF6343F40033D3
:10309000CB60704700ED00E0164B30B5DC68C4F340
:1030A0000224C4F10705231D042D28BF0425062B87
:1030B0004FF0FF338CBF033C002403FA05F521EAEF
:1030C0000501A34022EA0302A140002841EA0203CD
:1030D000ACBF00F16040084A4FEA0313B8BF00F0EC
:1030E0000F00DBB2AABF00F56140135480F8003333
:1030F00030BD00BF00ED00E014ED00E0002808DB6B
:103100004209012300F01F0003FA00F0014B43F8CD
:103110002200704700E100E070B50446866DFFF7BD
:1031200057FE94F83530022B054606D080236365A0
:10313000002384F83430012070BD23681A6822F01F
:1031400016021A605A6922F080025A61226C0AB98A
:10315000A26C1AB11A6822F008021A601A6822F0EA
:1031600001021A6023681B6813F001030AD1E16DA4
:103170003F228A40B260012284F8352084F834303E
:103180001846D9E7FFF724FE401B0528EAD920237B
:1031900063650320002384F8350084F83430CBE7DE
:1031A00090F83530022B03D080234365012070470F
:1031B0000268052380F83530136823F0010313609B
:1031C000002070472DE9F74FDFF8A891674A0023E8
:1031D0000D6801249C4004EA050CAC4340F0B1802A
:1031E0004D6805F003044FEA43080326671E06FAFC
:1031F00008F6012F6FEA060634D8876807EA060E3C
:10320000CF6807FA08F747EA0E078760476827EA9A
:103210000C0EC5F300179F4047EA0E074760C768CA
:1032200007EA060E8F6807FA08F747EA0E07022C2E
:10323000C76019D14FEAD30A00EB8A0A03F0070BE3
:10324000DAF820704FEA8B0B4FF00F0E0EFA0BFEE0
:1032500027EA0E0E0F6907FA0BF747EA0E07CAF8BE
:10326000207001E0032CDAD1076804FA08F43E402C
:10327000264315F4403F066063D04FF0000ACDF8B6
:1032800004A0D9F844603A4C46F48046C9F844603A
:10329000D9F8446006F480460196019E23F00306A7
:1032A00006F1804606F59C3603F0030ED6F808803A
:1032B0004FEA8E0E0F2707FA0EF7A04228EA0707FB
:1032C00046D004F58064A04244D004F58064A04256
:1032D00042D004F58064A04240D004F58064A0424E
:1032E0003ED004F58064A0423CD004F58064A04246
:1032F0003AD004F58064A0420CBF0724082404FAE5
:103300000EF43C43B46094686FEA0C06EF0254BFBD
:1033100034404CEA04049460D468AF0254BF344093
:103320004CEA0404D4605468AF0354BF34404CEA00
:10333000040454601468ED0354BF34404CEA0404A0
:1033400014600133102B7FF443AF03B0BDE8F08F5E
:103350005446D4E70124D2E70224D0E70324CEE781
:103360000424CCE70524CAE70624C8E7003C014052
:1033700000000240003802400AB181617047090430
:10338000FBE701684B6913F480634FF0000210D033
:103390006FF480634B612023026380F83D3080F836
:1033A0003E20036C80F83C2043F0040303640120BA
:1033B0007047184670472DE9F84606460F46914675
:1033C0001D464FEA114A3368BAF1010F0CBF5C6920
:1033D0009C6927EA0404A4B2B4FA84F46409A14500
:1033E00001D0002017E06A1CEED0FFF7F1FC089B2B
:1033F000C01AA84201D8002DE5D100232022336352
:1034000086F83D2086F83E30326C86F83C3042F03B
:10341000200232640120BDE8F8862DE9F04104461F
:103420000F46164698462568686927EA000080B26C
:10343000B8B16B695A0516D52B6843F400732B603D
:103440006FF480636B6120220023236384F83D20A6
:1034500084F83E30226C42F00402226484F83C304E
:103460000120BDE8F081731CDED0FFF7B1FCA0EBBA
:103470000800B04201D8002ED5D1002320222363BA
:1034800084F83D2084F83E30226C42F02002E4E7CC
:1034900070B504460D46164621684B6913F040038B
:1034A00001D0002010E04A69D2060ED56FF010025C
:1034B0004A612022236384F83D2084F83E30226C48
:1034C000226484F83C30012070BDFFF781FC801B32
:1034D000A84201D8002DDFD100232022236384F8E5
:1034E0003D2084F83E30226C42F02002E8E770B5BF
:1034F00004460D46164623685B695B0701D500202C
:1035000070BD2046FFF73DFFA8B96A1CF3D0FFF756
:103510005FFC801BA84201D8002DECD100232022A3
:10352000236384F83D2084F83E30226C84F83C30DC
:1035300042F0200222640120E2E770B504460D4605
:10354000164623685B691B0601D5002070BD204626
:10355000FFF717FFA8B96A1CF3D0FFF739FC801BEF
:10356000A84201D8002DECD100232022236384F847
:103570003D2084F83E30226C84F83C3042F020023A
:1035800022640120E2E700002DE9F04315460268BD
:1035900085B0DDE90C789946136843F480731360B5
:1035A0000E463B46CDF8008000224FF00111044644
:1035B000FFF701FF236838B11B68DB0502D54FF424
:1035C0000073236403200AE006F0FE061E61194919
:1035D00043463A462046FFF720FF18B1012005B0C8
:1035E000BDE8F083236803905A6903929B690393B3
:1035F000424639462046039BFFF79FFF40B1236CAC
:10360000042B01BF2268136843F400731360E5E7DD
:10361000B9F1010F236802D1EDB21D61DFE72A0A7B
:103620001A61394642462046FFF787FF0028E6D157
:103630002368F1E7020001002DE9FF479A4603687D
:1036400015461A6842F480621A601A68DDE90C783F
:1036500042F480721A600E463B46CDF8008000228C
:103660004FF001110446FFF7A6FE236848B11B681E
:10367000DB0502D54FF400732364032004B0BDE8DA
:10368000F0875FFA86F906F0FE061E612A49434676
:103690003A462046FFF7C1FE08B10120EEE7236855
:1036A00003905A6903929B69039342463946204628
:1036B000039BFFF742FF40B1236C042B01BF22683C
:1036C000136843F400731360E7E7BAF1010F23684E
:1036D0001AD1EDB21D61424639462046FFF72DFF53
:1036E0000028E9D12268136843F4807313604FF017
:1036F00001110246CDF800803B462046FFF75BFEF5
:10370000226860B11368B3E72A0A1A613946424653
:103710002046FFF712FF0028CED12368D9E749F0F1
:1037200001031361044943463A462046FFF775FEFC
:10373000003818BF0120A1E70200010070B504465F
:1037400008B9012070BD90F83D3003F0FF021BB9AD
:1037500080F83C20FFF7D2F8242384F83D3023681A
:103760001A6822F001021A601A6842F400421A60D4
:103770001A6822F400421A6000F0B6FC3F4B6568FC
:103780009D4294BF3E4B3F4B98428CBF0023012388
:10379000002BD6D12268394E53683B49B0FBF1F17A
:1037A00023F03F030B43B542536088BF4FF4967636
:1037B000136A88BF714323F03F0384BF4FF47A76C6
:1037C000B1FBF6F1013119431162D169431E2B4857
:1037D00021F44F41854221F0FF0132D86D0040F6BF
:1037E000FC70B3FBF5F30133034242D0C3F30B0388
:1037F0000B43D361D4E907301168034321F0C001C2
:103800000B4313609168D4E9030321F4034103439C
:1038100021F0FF010B439360D4E90530D1680343E5
:1038200021F0FF010B43D360136843F001031360E1
:1038300000202023206484F83D30206384F83E007B
:1038400080E7A06850B905EB4505B3FBF5F30133FC
:10385000C3F30B037BB143F40043C9E7192045438D
:10386000B3FBF5F30133C3F30B0323B143F440433C
:10387000BEE70423BCE70123BAE700BFA08601002E
:103880007F841E00FF083D0040420F002DE9F743F2
:10389000044699460C9E0F469046FFF799FA94F815
:1038A0003D30202B054603D0022003B0BDE8F08355
:1038B00000903C49192301222046FFF77CFD002897
:1038C000F2D194F83C30012BEED02068012384F82B
:1038D0003C300368D9075EBF036843F0010303600F
:1038E000036823F400630360212384F83D30402300
:1038F00084F83E30002323640A9B6362BDF82C30B9
:103900006385638D2385284BE362CDE900654B46D3
:10391000424639462046FFF737FE00282AD00120CC
:10392000C3E7FFF70AFE40B1236C042B01BF2268F6
:10393000136843F400731360F1E7636A27681A465B
:1039400012F8011B39616262628D218D013A92B2D7
:1039500062857A69481E80B2520720850AD548B12F
:103960005A783A6102336362638D013B02399BB23C
:1039700021856385238D2A4631462046002BD0D1F0
:10398000FFF7B5FD0028CFD12268136843F4007318
:103990001360202384F83D3084F83C0084F83E0016
:1039A00083E700BF020010000000FFFF2DE9F04395
:1039B000044687B09946109F0D469046FFF708FAD7
:1039C00094F83D30202B064604D00225284607B047
:1039D000BDE8F08300907649192301222046FFF7C5
:1039E000EAFC0028F1D194F83C30012BEDD020689E
:1039F000012384F83C300368DB075EBF036843F0B3
:103A000001030360036823F400630360222384F846
:103A10003D30402384F83E30002323640E9B6362D4
:103A2000BDF83C306385638D2385624BE362294694
:103A3000CDE900764B4642462046FFF7FDFD0546A0
:103A400008B10125C2E7228D2368B2B902905A69F4
:103A500002929A690292029A1A6842F400721A60FB
:103A6000DFF85481238D002B2CD1202284F83D20B7
:103A700084F83C3084F83E30A8E7012A0AD11A685D
:103A800022F480621A6003905A6903929A69039241
:103A9000039AE1E7022A0ED11A6822F480621A60C2
:103AA0001A6842F400621A6004905A6904929B6991
:103AB0000493049BD4E705905A6905929B6905938A
:103AC000059BCDE7032B56D8012B15D1324639463D
:103AD0002046FFF7DDFC0028B3D123681A69636A2A
:103AE0001A70636A01336362238D013B2385638D02
:103AF000013B9BB26385B5E7022B00963B464FF036
:103B000000024146204619D1FFF755FC002898D104
:103B100023681A6842F400721A601A69636A1A709C
:103B2000626A531C6362238D013B2385638D013BD5
:103B30009BB2638523681B695370D2E7FFF73BFC98
:103B400000287FF47EAF23681A6822F480621A602E
:103B50001A69636A1A70636A009601336362238D7F
:103B6000013B2385638D013B9BB2638502463B4647
:103B700041462046C8E7324639462046FFF788FCD2
:103B800000287FF45EAF23681A69636A1A70626A5C
:103B9000531C6362238D013B2385638D013B9BB2E4
:103BA00063852368596949077FF55CAFC3E700BFA8
:103BB000020010000000FFFF04000100044B01227E
:103BC0001A62044B82B01B680193019B02B07047DC
:103BD00000000E4200700040044B00221A62044BA9
:103BE00082B01B680193019B02B0704700000E4237
:103BF000007000402DE9F341044640B30368DD073F
:103C000010D4236898075ED423681A0700F1A080B7
:103C100023685B0700F1C080A069002840F028817C
:103C200000202BE08F4B9A6802F00C02042A07D088
:103C30009A6802F00C02082A0BD15A68510208D582
:103C4000884B1B689A03DCD56368002BD9D101200F
:103C500014E06268B2F5803F13D11A6842F48032F2
:103C60001A60FFF7B5F87F4E054633689B03C8D44A
:103C7000FFF7AEF8401B6428F7D9032002B0BDE877
:103C8000F081784DB2F5A02F2B6807D143F4802343
:103C90002B602B6843F480332B60E2E723F48033FE
:103CA0002B602B6823F480232B60002AD9D1FFF7E7
:103CB0008FF806462B689F03A3D5FFF789F8801B72
:103CC0006428F7D9D9E7674B9A6812F00C0F07D030
:103CD0009A6802F00C02082A11D15B685E020ED4C9
:103CE000604A13689D0702D5E368012BAFD11368C2
:103CF000216923F0F80343EAC103136084E7E26813
:103D0000594BB2B101221A60FFF762F8554D0646D1
:103D10002B68980707D52B68226923F0F80343EA3C
:103D2000C2032B6070E7FFF753F8801B0228EFD91E
:103D3000A3E71A60FFF74CF84A4E05463368990727
:103D40007FF562AFFFF744F8401B0228F6D994E7ED
:103D50006269454B82B10122C3F8802EFFF738F823
:103D6000404E0546736F9F073FF552AFFFF730F89F
:103D7000401B0228F6D980E7C3F8802EFFF728F809
:103D8000384E0546736F98077FF542AFFFF720F86E
:103D9000401B0228F6D970E7324B1A6C12F08052A1
:103DA00028D101921A6C42F080521A641B6C03F005
:103DB00080530193019B01272C4D2B68D9051BD5FE
:103DC000A368284D012B27D12B6F43F001032B67EC
:103DD000FEF7FEFF234E054641F28838336F9B07FE
:103DE00039D5002F3FF418AF1E4A136C23F08053CF
:103DF000136411E70027DFE72B6843F480732B601F
:103E0000FEF7E6FF06462B68DA05D9D4FEF7E0FF99
:103E1000801B0228F7D930E7052B04D12B6F43F024
:103E200004032B67D0E72A6F22F001022A672A6F6A
:103E300022F004022A67002BCAD1FEF7C9FF41F223
:103E4000883806462B6F9807CBD5FEF7C1FF801B3D
:103E50004045F7D911E7FEF7BBFF401B4045BDD9F0
:103E60000BE700BF003802400000474200700040EE
:103E7000364DAB6803F00C03082B3DD0344B0022C9
:103E800002281A662BD1FEF7A3FF06462B6899017C
:103E90001FD4D4E907321343626A43EA8213E26A09
:103EA00043EA0263A26A5208013A43EA02436B60A2
:103EB000274B264D01221A66FEF78AFF04462B681F
:103EC0009A013FF5ADAEFEF783FF001B0228F6D93D
:103ED000D3E6FEF77DFF801B0228D7D9CDE6FEF79B
:103EE00077FF04462B689B017FF59AAEFEF770FFC3
:103EF000001B0228F6D9C0E601283FF4BFAE6B686C
:103F0000E26903F4800191427FF4A1AE216A03F0DB
:103F10003F028A427FF49BAE616A47F6C0721A4044
:103F2000B2EB811F7FF493AEA26A520803F44031D2
:103F3000013AB1EB024F7FF48AAEE26A03F070639C
:103F4000B3EB026F3FF46CAE81E600BF0038024075
:103F500000004742134908B58B6803F00C03042B9B
:103F60001CD0082B1CD14A684B68496813F48003A5
:103F700014BF0D480D48C1F3881118BF002302F08B
:103F80003F02A1FB0001FCF741FE064B5B68C3F357
:103F9000014301335B00B0FBF3F008BD0248FCE7CE
:103FA0000248FAE70038024040787D010024F4001E
:103FB0002DE9F0410D46044610B90120BDE8F0811D
:103FC000444B1A6802F007028A4228D322689707F6
:103FD0002DD4D00741D43F4B1A6802F00702AA4201
:103FE00066D8226851076CD4130707D53A4A21696D
:103FF000936823F4604343EAC1039360FFF7AAFF89
:10400000354B364A9B68C3F30313D35CD840344B1B
:104010001860344B1868FEF7C7FD0020CEE7CAB21F
:104020001A701B6803F007038B42C6D1CEE72A4BF8
:1040300012F0040F1EBF996841F4E0519960160711
:1040400042BF996841F4604199602349A0688B6838
:1040500023F0F00303438B60BBE762681E4B012A29
:104060001CD11B6813F4003FA7D01B4EB36823F08C
:1040700003031343B360FEF7ABFE41F288380746F3
:10408000B368626803F00C03B3EB820FA3D0FEF7B2
:104090009FFEC01B4045F3D903208FE7911E0129E5
:1040A0001B6802D813F0007FDEE713F0020FDBE796
:1040B000EAB21A701B6803F00703AB427FF47DAFCE
:1040C0008FE70549E0688B6823F4E05303438B6076
:1040D0008AE700BF003C024000380240389E0008DA
:1040E000240000202C000020044B054A9B68C3F3E9
:1040F0008223D35C034A1068D840704700380240DE
:10410000489E000824000020044B054A9B68C3F326
:104110004233D35C034A1068D840704700380240ED
:10412000489E0008240000200F2303600B4B9A6870
:1041300002F0030242609A6802F0F00282609A681C
:1041400002F4E052C2609B68DB0803F4E0530361B1
:10415000034B1B6803F007030B60704700380240F5
:10416000003C0240036A23F001030362036A70B556
:10417000446882690D6822F073022A438D6823F037
:1041800002032B430E4DA84202D00E4EB04210D176
:10419000CE6823F008033343A84223F0040302D07F
:1041A000084DA84205D1D1E9055624F440743543A1
:1041B0002C43446082614A684263036270BD00BF61
:1041C0000000014000040140036A23F4807303628D
:1041D000036A70B54468C2690D6822F073022A430D
:1041E0008D6823F4007343EA0523114DA84203D0E0
:1041F00005F58065A84214D1CD6823F4006343EA35
:1042000005230B4DA84223F4806303D005F5806598
:10421000A84206D1D1E9055624F44054354344EA76
:1042200005144460C2614A68C263036270BD00BF86
:1042300000000140036A23F480530362036A30B52F
:104240004468C2690D6822F4E64242EA05228D689C
:1042500023F4005343EA0533084DA84203D005F583
:104260008065A84204D14D6924F4804444EA851451
:104270004460C2614A680264036230BD00000140CC
:1042800090F83D30012B30D1022380F83D30036897
:10429000DA6842F00102DA60154A93421AD0B3F1AB
:1042A000804F17D0A2F57C42934213D002F5806272
:1042B00093420FD002F5806293420BD002F5784210
:1042C000934207D002F57052934203D0A2F5943284
:1042D000934204D19A6802F00702062A03D01A68B2
:1042E00042F001021A60002070470120704700BFB1
:1042F00000000140704730B590F83E2090F83F3004
:1043000090F8425090F84340D2B2DBB2EDB2E4B242
:10431000E9B9012A5AD1012D5AD1022380F83E3041
:1043200080F8423003681A6A22F001021A621A6A9F
:1043300042F001021A62DA6842F00202DA600268B0
:10434000136843F0010313600023184630BD0429AD
:1043500015D1012B3AD1012CF7D1022380F83F303F
:1043600080F8433003681A6A22F010021A621A6A4F
:1043700042F010021A62DA6842F00402DEE7012A13
:1043800024D1012B24D1012DDFD1012CDDD1022339
:1043900080F83E3080F83F3080F8423080F843307B
:1043A00003681A6A22F001021A621A6A42F00102D4
:1043B0001A621A6A22F010021A621A6A42F0100295
:1043C0001A62DA6842F00202DA60D4E70123BCE73D
:1043D0001346BAE7082910D004D841B1042909D0FE
:1043E000002070470C29FBD10368186C70470368E4
:1043F000586B70470368986B70470368D86B7047B9
:1044000070477047704703681A69910710B50446F2
:104410000ED5DA6892070BD56FF002021A610122FD
:1044200002779B699B0777D0FEF7A6F900232377D5
:1044300023681A69500710D5DA6851070DD56FF057
:1044400004021A61022222779B6913F4407F2046FE
:1044500068D0FEF791F90023237723681A691207C1
:104460000FD5DA6810070CD56FF008021A61042224
:104470002277DB69990720465AD0FEF77DF90023A1
:10448000237723681A69D20610D5DA68D0060DD5CD
:104490006FF010021A6108222277DB6913F4407F63
:1044A00020464BD0FEF768F90023237723681A696A
:1044B000D10708D5DA68D20705D56FF001021A6175
:1044C0002046FEF7A1F923681A69100608D5DA68B4
:1044D000110605D56FF080021A61204600F05FFBDF
:1044E00023681A69520608D5DA68500605D56FF0B8
:1044F00040021A612046FFF785FF23681A6991067A
:1045000022D5DA6892061FD56FF0200220461A6184
:10451000BDE8104000F042BBFFF772FF2046FFF7F6
:1045200070FF83E7FFF76CFF2046FFF76AFF92E713
:10453000FFF766FF2046FFF764FFA0E7FFF760FF85
:104540002046FFF75EFFAFE710BD0000304A03686A
:10455000904212D0B0F1804F0FD0A2F57C42904231
:104560000BD002F58062904207D002F58062904243
:1045700003D002F57842904219D14A6823F07003C3
:104580001343234A904229D0B0F1804F26D0A2F5A0
:104590007C42904222D002F5806290421ED002F509
:1045A000806290421AD002F57842904216D0194AA1
:1045B000904213D002F5806290420FD002F58062E3
:1045C00090420BD0A2F59832904207D002F580625B
:1045D000904203D002F58062904203D1CA6823F46E
:1045E000407313434A6923F08003134303608B68CD
:1045F000C3620B688362064B984203D003F5806365
:10460000984201D10B69036301234361704700BFE6
:10461000000001400040014010B5044630B390F85E
:104620003D3003F0FF021BB980F83C20FEF79EF9F5
:104630000223206884F83D30211DFFF787FF012306
:1046400084F84630002084F83E3084F83F3084F807
:10465000403084F8413084F8423084F8433084F8A4
:10466000443084F8453084F83D3010BD0120FCE72B
:1046700010B5044630B390F83D3003F0FF021BB98B
:1046800080F83C20FFF736FE0223206884F83D3096
:10469000211DFFF75BFF012384F84630002084F8DA
:1046A0003E3084F83F3084F8403084F8413084F85C
:1046B000423084F8433084F8443084F8453084F83C
:1046C0003D3010BD0120FCE7F8B50D46044600283A
:1046D0004DD090F83D3003F0FF021BB980F83C202C
:1046E000FEF78AF92146022384F83D3051F8040B85
:1046F000836823F4804323F007038360FFF726FFDA
:1047000020682A6886688369A968076A1643AA69C7
:1047100023F4407341EA022123F003030B4323F403
:104720007C422B69E9691B0143EA0123E9680B43D9
:10473000296A22F0FC0243EA01331343696927F036
:10474000AA026F68866047EA011783611743012355
:10475000076284F84630002084F83E3084F83F3009
:1047600084F8423084F8433084F83D30F8BD0120AD
:10477000FCE70000036A23F010030362036A70B5CC
:10478000446882690D6822F4E64242EA05228D6897
:1047900023F0200343EA0513104DA84203D005F58A
:1047A0008065A84214D1CD6823F0800343EA051345
:1047B0000A4DA84223F0400303D005F58065A842C6
:1047C00006D1D1E9055624F44064354344EA850412
:1047D000446082614A688263036270BD00000140E8
:1047E00070B590F83C30012B054653D00120082AC3
:1047F00085F83C003DD006D8C2B1042A28D0002359
:1048000085F83C3070BD0C2AF9D12868FFF712FDFD
:104810002B680969DA6942F40062DA61DA6922F424
:104820008062DA61DA6942EA012231E02868FFF742
:1048300099FC2B6809699A6942F008029A619A69A1
:1048400022F004029A619A690A439A610020D6E72D
:104850002868FFF78FFF2B6809699A6942F40062A4
:104860009A619A6922F480629A619A6942EA012205
:10487000EBE72868FFF7A8FC2B680969DA6942F0C2
:104880000802DA61DA6922F00402DA61DA690A43BD
:10489000DA61DBE70220B5E710B58468114324F440
:1048A0007F4441EA03232343836010BD70B590F831
:1048B0003C30012B04464FF0020300F091800122AE
:1048C00080F83D3080F83C200068836823F47F4303
:1048D00023F0770383600B68602B52D033D8402BD2
:1048E00067D016D8202B0DD00AD833F0100109D08C
:1048F000012384F83D30002384F83C30104670BD1D
:10490000302BF5D1826822F07002134343F0070385
:1049100017E0502BECD14A68CE68016A056A25F091
:1049200001050562836921F00A0123F0F00343EADF
:1049300006130A4383610262836823F0700343F025
:104940005703836011E0B3F5805F0ED0B3F5005FCD
:104950000DD0702BCCD1CB68D1E90121FFF79CFFA2
:104960002268936843F0770393600022C0E7CB6826
:10497000D1E90121FFF790FF2268936843F4804357
:10498000F2E74D68CE68016A21F010010162826988
:10499000036A22F4704223F0A00343EA051342EABB
:1049A000063282610362836823F0700343F0670379
:1049B000C7E74A68CE68016A056A25F00105056205
:1049C000836921F00A0123F0F00343EA06130A4346
:1049D00083610262836823F0700343F04703B0E70A
:1049E0001A468BE7036A01F01F0110B501248C40C1
:1049F00023EA04030362036A8A401A43026210BD79
:104A000010B5044629B990F83E30012B18D001208A
:104A10002DE004290DD190F83F30013B18BF012350
:104A2000002BF4D104294FF0020321D184F83F3048
:104A300009E008290CBF90F8403090F84130ECE7CD
:104A4000022380F83E3020680122FFF7CBFF236865
:104A50001C498B4213D01C4A934210D0B3F1804FB3
:104A600014D19A6802F00702062A26D1002010BD50
:104A700008290CBF84F8403084F84130E3E75A6CD1
:104A80008B4242F400425A64EBD0E7E70F4A93426C
:104A9000E7D002F580629342E3D002F58062934250
:104AA000DFD002F578429342DBD002F57052934298
:104AB000D7D0A2F594329342D3D01A6842F00102C3
:104AC0001A60D3E7000001400004014000040040E8
:104AD000FFF796BF30B590F83C30012B4FF0020342
:104AE00032D080F83D3003680D685C689A6824F025
:104AF00070042C435C60154CA3421AD0B3F1804F74
:104B000017D0A4F57C44A34213D004F58064A342DB
:104B10000FD004F58064A3420BD004F57844A3427F
:104B200007D004F57054A34203D0A4F59434A342F3
:104B300004D1496822F080020A439A60012380F878
:104B40003D30002380F83C30184630BD0000014065
:104B500090F83C30012B1FD0CB688A6823F4407357
:104B600013434A6823F4806313430A6823F4006301
:104B700013430A6923F4805313434A6923F400530F
:104B80001343CA6923F48043134302685364002328
:104B900080F83C30184670470220704770477047D5
:104BA000026802F10C0353E8003F23F490730C32C7
:104BB00042E8003102680029F2D102F1140353E8FF
:104BC000003F23F0010302F1140C4CE800310029EE
:104BD000F3D1036B012B0BD102F10C0353E8003F1F
:104BE00023F0100302F10C0C4CE800310029F3D142
:104BF000202380F83E300023036370470268C168B9
:104C0000136923F440530B4370B513610546836861
:104C10000069D168034368690343E86921F41641D8
:104C200021F00C0103430B43D3605369A96923F4BA
:104C300040730B4353611F4B9A4203D003F58063CB
:104C40009A4223D1FFF760FAEB691921B3F5004FBF
:104C5000D5E90046A0FB01011BD1B2194FF00003BA
:104C60005B41FBF7D3FF6421B0FBF1F501FB1503BA
:104C7000DB003233B3FBF1F303F007025B0002EB1E
:104C8000051203F4F8731344A36070BDFFF72CFA08
:104C9000DAE7B200B30FFBF7B9FF6422B0FBF2F121
:104CA00002FB11031B013233B3FBF2F303EB0113DD
:104CB000EAE700BF00100140F8B504460E4617466B
:104CC0001D462268136836EA030301D1002028E05C
:104CD0006B1CF7D025B1FEF77BF8C01B8542F0D2E4
:104CE000226802F10C0353E8003F23F4D0730C3226
:104CF00042E8003021680028F2D101F1140353E8A2
:104D0000003F23F0010301F1140040E80032002AC3
:104D1000F3D1202384F83D3084F83C2084F83E30E1
:104D20000320F8BD10B5044640B390F83D3003F0C1
:104D3000FF021BB980F83C20FDF7F8FE226824230F
:104D400084F83D30D36823F40053D3602046FFF746
:104D500055FF23681A6922F490421A615A6922F0B9
:104D60002A025A61DA6842F40052DA6000202023F5
:104D7000206484F83D3084F83E3010BD0120FCE70B
:104D8000F7B5174690F83D200093202A04460E46BA
:104D900049D1002945D0002F43D090F83C20012A6A
:104DA00041D0012280F83C2000252122056480F8B2
:104DB0003D20FEF70DF8A168009BA784B1F5805F48
:104DC0000246E78403D1216909B935460E46002120
:104DD00084F83C10E18C89B241B940212046FFF7AC
:104DE0006BFF60B9202384F83D3009E08021204624
:104DF000CDE90023FFF760FFDDE9002310B10320B8
:104E000003B0F0BD20684EB935F8021BC1F30801AC
:104E10004160E18C013989B2E184DBE716F8011BBE
:104E2000F6E70120ECE70220EAE77047704708B593
:104E3000806B0023C385C384FFF7F8FF08BD70476C
:104E400007B58168836A0268B1F5805F3ED1016968
:104E500000293ED15268C2F3080223F8022B836274
:104E6000C38D013B9BB2C385002B2CD10268D16856
:104E700021F02001D160D16821F48071D1605169A5
:104E800021F001015161202280F83E20026B012AAD
:104E9000026828D1036302F10C0353E8003F23F0BA
:104EA000100302F10C0C4CE800310029F3D1136817
:104EB000DB0605D501911368019353680193019BAB
:104EC000818DFFF7BCFF03B05DF804FB39B90169C0
:104ED00029B95268D2B21A70836A0133BFE75268A7
:104EE00002F07F02F7E7FDF7EBFAECE7036837B56E
:104EF0001A68D9685D6912F00F0F04460CD1950647
:104F000070D58D066ED590F83E30222B64D103B05B
:104F1000BDE83040FFF794BF05F0010001F4907543
:104F200005435FD0D50705D5CB0542BF236C43F0C1
:104F300001032364550704D518B1236C43F0020321
:104F40002364930704D518B1236C43F0040323644E
:104F5000150707D501F0200303431EBF236C43F060
:104F600008032364236C002B36D0900608D58A06EC
:104F700006D594F83E30222B02D12046FFF760FF81
:104F800023685B69256C03F0400305F008051D43A9
:104F9000204623D0FFF704FE226853695B0618D52C
:104FA00002F1140353E8003F23F0400302F1140020
:104FB00040E800310029F3D1A06B50B1724B03657A
:104FC000FEF7EEF840B1A06B036D03B0BDE83040D2
:104FD00018472046FFF72AFF03B030BDFFF726FF32
:104FE0002564F9E7206B012840F09180D50640F157
:104FF0008E80C80640F18B80002201921A680192CF
:105000005A680192019A5A6955064CD5A16B0A68F3
:10501000526892B2002ADFD0A08D9042DCD9E2859E
:10502000CA69B2F5807F36D003F10C0252E8002F36
:1050300022F4807203F10C0040E800210029F3D132
:1050400003F1140252E8002F22F0010203F11400D0
:1050500040E800210029F3D103F1140252E8002FA7
:1050600022F0400203F1140040E800210029F3D1AE
:10507000202284F83E20216303F10C0252E8002F25
:1050800022F0100203F10C0040E800210029F3D1C6
:10509000A06BFEF741F8E38DA18DC91A89B22046B5
:1050A000FFF7CDFE98E7E18D8AB2E18D89B2002944
:1050B00092D0A18D891A89B200298DD003F10C02FA
:1050C00052E8002F22F4907203F10C0545E800200D
:1050D0000028F3D103F1140252E8002F22F001025C
:1050E00003F1140545E800200028F3D1202284F8BC
:1050F0003E20206303F10C0252E8002F22F0100240
:1051000003F10C0545E800200028F3D1C7E710069D
:1051100028D50D0626D594F83D20212A7FF45CAFD2
:10512000A168226AB1F5805F17D12169A9B932F867
:10513000021BC1F3080159602262E28C013A92B26B
:10514000E284002A7FF448AFDA6822F08002DA6055
:10515000DA6842F04002DA603EE7511C21621278C0
:105160005A60EAE750067FF537AF4A067FF534AF5D
:10517000DA6822F04002DA60202384F83D302046CD
:10518000FFF753FE28E700BF2F4E0008C28500231B
:1051900082852222036480F83E20026980F83C3038
:1051A000816203681AB1DA6842F48072DA605A697F
:1051B00042F001025A61DA6842F02002DA6000200F
:1051C000704770B490F83E60202E10D161B15AB192
:1051D00090F83C40012C0AD0012480F83C40002487
:1051E000046370BCFFF7D2BF012070BC704702207F
:1051F000FBE708B54FF0E0231B6901F05BF80128DD
:1052000003D0BDE8084001F065BB08BDEFF305839E
:105210002BB9064B186828B901221A6070476FF045
:10522000050070474FF0FF30704700BF5007002067
:1052300010B5EFF305845CB9084B1A68012A0AD14E
:10524000074AD47702221A6000F09EFD204610BD66
:105250006FF00500FBE74FF0FF30F8E75007002044
:1052600000ED00E0F0B587B0144600220B46059231
:10527000EFF30582D2B9C8B1002C2FD0A569002D5B
:1052800008BF1825691E3729AC462BD86168C907A5
:1052900028D466696EB1B208D4E9027E216857B19C
:1052A000BEF1BB0F02D9246904B1EEB9059807B06D
:1052B000F0BD8022F0E7BEF1000FF7D12469002C89
:1052C000F4D10C4605A9CDE900C192B2214600F007
:1052D0002DFD01281CBF00230593E7E74FF0180CB4
:1052E0008022EFE71046E2E7CDE90147009500F0A4
:1052F000E5FC0590DAE710B5EFF3058424B910B1A9
:1053000000F0AAFE204610BD6FF00500FBE700008C
:10531000034B0360034B0B6080231360704700BF97
:105320009406002094040020034B0360034B0B60A1
:105330004FF4807313607047540B00205407002013
:1053400000F108034FF0FF32C0E90223436003611C
:1053500000230360704700230361704743684B607C
:105360009A688A609A68516099600368086101339D
:105370000360704730B50C68631C0AD103695A6832
:105380004A6091608B605960036808610133036073
:1053900030BD00F10802134652681568A542FAD9DB
:1053A000EDE7D0E9011203698A60516059688142D2
:1053B00008BF5A60002202611A68013A1A60186830
:1053C000704710B5044601F01DFAA46B01F03AFADB
:1053D000B4FA84F0400910BDF8B51546026C866B2E
:1053E000044652B9076847BB806800F073FFA760A6
:1053F00005460136A6632846F8BD65B9406801F048
:1054000064FF6368226C1344A26863609342F0D324
:1054100023686360EDE7C06801F057FF226CE36822
:1054200051429B1A2268E36093423EBFA3685B1817
:10543000E360022D01D116B1013E0025D9E73546C2
:10544000D7E7034610B41A6C08466AB1DC6899685D
:1054500014448C4228BF1968DC6028BFD960D96821
:105460005DF8044B01F031BF5DF8044B704770B537
:10547000044601F0C7F994F8455004F124066DB2D2
:10548000002D14DCFF2384F8453001F0DBF901F036
:10549000B9F994F8445004F110066DB2002D12DCF5
:1054A000FF2384F84430BDE8704001F0CBB9636A53
:1054B000002BE7D0304600F06BFE08B100F0F4FEA0
:1054C000013D6DB2DCE72369002BE9D0304600F0E6
:1054D0005FFE08B100F0E8FE013D6DB2DEE738B5D1
:1054E0000D46044640B94FF0500383F31188BFF3D3
:1054F0006F8FBFF34F8FFEE701F084F9D4E90F31CE
:10550000226862604B43D0185B1A1344A060E360CA
:105510000020FF23A06384F8443084F84530A5B907
:10552000236973B104F1100000F032FE48B14FF06E
:10553000E0234FF08052C3F8042DBFF34F8FBFF329
:105540006F8F01F07FF9012038BD04F11000FFF7E3
:10555000F7FE04F12400FFF7F3FEF2E713B51C4653
:1055600040B94FF0500383F31188BFF36F8FBFF33F
:105570004F8FFEE743B94FF0500383F31188BFF319
:105580006F8FBFF34F8FFEE74AB191B94FF05003D1
:1055900083F31188BFF36F8FBFF34F8FFEE741B1E5
:1055A0004FF0500383F31188BFF36F8FBFF34F8F1A
:1055B000FEE750230193019B502B08D04FF050037E
:1055C00083F31188BFF36F8FBFF34F8FFEE700297E
:1055D00008BF2246019B22600123C4E90F0184F821
:1055E000463019462046FFF77AFF9DF8103084F8C0
:1055F0004C30204602B010BD2DE9F04385B08846FE
:1056000001921F46044640B94FF0500383F31188BE
:10561000BFF36F8FBFF34F8FFEE751B9036C43B1F8
:105620004FF0500383F31188BFF36F8FBFF34F8F99
:10563000FEE7022F0BD1E36B012B08D04FF0500394
:1056400083F31188BFF36F8FBFF34F8FFEE700F036
:1056500031FE064650B9019B4BB14FF0500383F326
:105660001188BFF36F8FBFF34F8FFEE700264FF017
:10567000000937E0019D1DB901F0E4F8002052E077
:1056800016B902A800F0C8FD01F0DCF800F0CCFB70
:1056900001F0B8F894F84430FF2B08BF84F8449028
:1056A00094F84530FF2B08BF84F8459001F0CAF804
:1056B00001A902A800F0BCFD00284AD101F0A2F81F
:1056C000A26BE36B9A4231D101F0BCF8019904F16D
:1056D000100000F025FD2046FFF7C9FE00F048FC51
:1056E00060B3012601F08EF8A26BE36B9A4201D3FE
:1056F000022FBFD13A4641462046FFF76DFE636A4E
:105700001BB104F1240000F043FD48B14FF0E02349
:105710004FF08052C3F8042DBFF34F8FBFF36F8F4C
:1057200001F090F8012005B0BDE8F08301F08AF89F
:105730002046FFF79CFE00F01BFCD2E74FF0E02371
:105740004FF08052C3F8042DBFF34F8FBFF36F8F1C
:10575000C7E72046FFF78BFE00F00AFC8EE72DE935
:10576000F843894690461F46044640B94FF050031F
:1057700083F31188BFF36F8FBFF34F8FFEE751B9EB
:10578000036C43B14FF0500383F31188BFF36F8F65
:10579000BFF34F8FFEE7022F0BD1E36B012B08D035
:1057A0004FF0500383F31188BFF36F8FBFF34F8F18
:1057B000FEE701F03DF9EFF311864FF0500383F35C
:1057C0001188BFF36F8FBFF34F8FA26BE36B9A42C9
:1057D00001D3022F23D194F84550A36B6DB23A4602
:1057E00049462046FFF7F8FD6B1C13D1636A0BB9DD
:1057F00001200BE004F1240000F0CAFC0028F7D0DF
:10580000B8F1000FF4D00120C8F8000086F3118829
:10581000BDE8F88301356DB284F84550E8E7002013
:10582000F4E72DE9FF410F460192044640B94FF0DD
:10583000500383F31188BFF36F8FBFF34F8FFEE7E1
:1058400051B9036C43B14FF0500383F31188BFF398
:105850006F8FBFF34F8FFEE700F02CFD064650B967
:10586000019B4BB14FF0500383F31188BFF36F8F4F
:10587000BFF34F8FFEE700264FF000083DE0019D8B
:105880001DB900F0DFFF002056E016B902A800F0B5
:10589000C3FC00F0D7FF00F0C7FA00F0B3FF94F8A4
:1058A0004430FF2B08BF84F8448094F84530FF2B28
:1058B00008BF84F8458000F0C5FF01A902A800F0E8
:1058C000B7FC002841D12046FFF77BFDB8B3019912
:1058D00004F1240000F024FC2046FFF7C8FD00F08E
:1058E00047FB48B94FF0E0234FF08052C3F8042D36
:1058F000BFF34F8FBFF36F8F012600F083FFA56BBF
:10590000002DBCD039462046013DFFF79AFDA56326
:10591000236973B104F1100000F03AFC48B14FF074
:10592000E0234FF08052C3F8042DBFF34F8FBFF335
:105930006F8F00F087FF012004B0BDE8F0812046A2
:10594000FFF795FD00F014FBD6E72046FFF78FFD2B
:1059500000F00EFB2046FFF734FD0028CCD092E784
:1059600010B5074A002352F833402CB942F83310DF
:1059700002EBC303586010BD0133082BF3D1FAE7E3
:10598000100C002070B504460D46164600F03AFF94
:1059900094F84430FF2B04BF002384F8443094F87B
:1059A0004530FF2B04BF002384F8453000F04AFF48
:1059B000A36B2BB93246294604F1240000F0CAFB40
:1059C0002046BDE87040FFF752BD00002DE9F041D0
:1059D000044600F017FF304B304E1A68304F01324A
:1059E0001A603568002D4BD134601B68012B1FD124
:1059F000B84640460135FFF7A3FC382D08F11408DE
:105A0000F7D1DFF8C480274D4046FFF799FC2846C0
:105A1000FFF796FC2448FFF793FC2448FFF790FC1F
:105A20002348FFF78DFC234BC3F80080224B1D60F9
:105A3000224A136801331360214A63641168E36AE0
:105A400014208B4200FB037004F1040188BF136033
:105A5000FFF784FC00F0F6FE1A4B1B6873B1336845
:105A6000DA6AE36A9A4209D24FF0E0234FF080529B
:105A7000C3F8042DBFF34F8FBFF36F8FBDE8F081E4
:105A8000104B1B68002BD3D13368DA6AE36A9A4261
:105A900098BF3460CCE700BFBC100020500C002041
:105AA0005C0C0020E41000200411002030110020C4
:105AB0001C110020540C0020580C0020C81000209D
:105AC000CC10002018110020D0100020F8B5154B84
:105AD000154E1D680446306804300F46FFF761FC20
