:020000040800F2
:1000000000000220493F0008453D00084B3D000824
:10001000513D0008573D00085D3D0008000000000C
:1000200000000000000000000000000061AD0008BA
:10003000633D000800000000B1AF0008E18900083E
:10004000993F0008993F0008993F0008993F000830
:10005000993F0008993F0008993F0008993F000820
:10006000993F0008993F0008993F0008993F000810
:10007000993F0008993F0008993F0008993F000800
:10008000993F0008993F0008993F0008993F0008F0
:10009000993F0008993F0008993F0008993F0008E0
:1000A000993F0008993F0008993F0008993F0008D0
:1000B000993F0008993F0008993F0008993F0008C0
:1000C000993F0008993F0008993F0008993F0008B0
:1000D000993F0008993F0008993F0008713D0008CA
:1000E000993F0008993F0008993F0008993F000890
:1000F000993F0008993F0008993F0008993F000880
:10010000993F0008993F0008993F0008993F00086F
:10011000993F0008993F0008853D0008993F000875
:10012000993F0008993F0008993F0008993F00084F
:10013000993F0008993F0008993F0008993F00083F
:10014000993F0008993F0008993F0008993F00082F
:10015000993F0008993F0008993F0008993F00081F
:10016000993F0008993F0008993F0008993F00080F
:10017000993F0008993F0008993F000800000000DF
:08018000993F0008993F0008B7
:1001900010B5054C237833B9044B13B10448AFF3C1
:1001A00000800123237010BD040200200000000025
:1001B00068EA000808B5034B1BB103490348AFF3D5
:1001C000008008BD000000000802002068EA000866
:1001D000034613F8012B002AFBD1181A0138704787
:1001E00001F0FF01102A2BDB10F0070F08D010F8E8
:1001F000013B013A8B422DD010F0070F42B3F6D1EC
:10020000F0B441EA012141EA014122F007047FF004
:1002100000070023F0E80256083C85EA010586EA5B
:10022000010685FA47F5A3FA87F586FA47F6A5FA97
:1002300087F68EB9EED1F0BC01F0FF0102F00702A3
:1002400032B110F8013B013A83EA010313B1F8D14E
:100250000020704701387047002D06BF354603382F
:10026000073815F0010F07D1013015F4807F02BF68
:10027000013015F4C03F0130F0BC0138704700BFB9
:1002800081F0004102E000BF83F0004330B54FEA47
:1002900041044FEA430594EA050F08BF90EA020FB4
:1002A0001FBF54EA000C55EA020C7FEA645C7FEA47
:1002B000655C00F0E2804FEA5454D4EB5555B8BF6A
:1002C0006D420CDD2C4480EA020281EA030382EADB
:1002D000000083EA010180EA020281EA0303362D6D
:1002E00088BF30BD11F0004F4FEA01314FF4801C40
:1002F0004CEA113102D0404261EB410113F0004F52
:100300004FEA03334CEA133302D0524263EB430308
:1003100094EA050F00F0A780A4F10104D5F1200EA6
:100320000DDB02FA0EFC22FA05F2801841F1000101
:1003300003FA0EF2801843FA05F359410EE0A5F1D5
:1003400020050EF1200E012A03FA0EFC28BF4CF006
:10035000020C43FA05F3C01851EBE37101F00045BC
:1003600007D54FF0000EDCF1000C7EEB00006EEBC9
:100370000101B1F5801F1BD3B1F5001F0CD3490853
:100380005FEA30004FEA3C0C04F101044FEA4452AA
:1003900012F5800F80F09A80BCF1004F08BF5FEA31
:1003A000500C50F1000041EB045141EA050130BD11
:1003B0005FEA4C0C404141EB0101013C28BFB1F523
:1003C000801FE9D291F0000F04BF01460020B1FA6E
:1003D00081F308BF2033A3F10B03B3F120020CDA41
:1003E0000C3208DD02F1140CC2F10C0201FA0CF01F
:1003F00021FA02F10CE002F11402D8BFC2F1200C84
:1004000001FA02F120FA0CFCDCBF41EA0C01904039
:10041000E41AA2BF01EB0451294330BD6FEA040482
:100420001F3C1CDA0C340EDC04F11404C4F120026D
:1004300020FA04F001FA02F340EA030021FA04F37F
:1004400045EA030130BDC4F10C04C4F1200220FAD6
:1004500002F001FA04F340EA0300294630BD21FA14
:1004600004F0294630BD94F0000F83F4801306BFDA
:1004700081F480110134013D4EE77FEA645C18BFCE
:100480007FEA655C29D094EA050F08BF90EA020F65
:1004900005D054EA000C04BF1946104630BD91EA5D
:1004A000030F1EBF0021002030BD5FEA545C05D160
:1004B0004000494128BF41F0004130BD14F580049F
:1004C0003CBF01F5801130BD01F0004545F0FE4113
:1004D00041F470014FF0000030BD7FEA645C1ABF48
:1004E000194610467FEA655C1CBF0B46024650EA7F
:1004F000013406BF52EA033591EA030F41F40021AB
:1005000030BD00BF90F0000F04BF0021704730B530
:100510004FF4806404F132044FF000054FF0000105
:1005200050E700BF90F0000F04BF0021704730B5C6
:100530004FF4806404F1320410F0004548BF40429B
:100540004FF000013EE700BF42004FEAE2014FEAF0
:1005500031014FEA02701FBF12F07F4393F07F4FCB
:1005600081F06051704732F07F4208BF704793F0CE
:100570007F4F04BF41F40021704730B54FF46074E1
:1005800001F0004521F000411CE700BF50EA0102E4
:1005900008BF704730B54FF000050AE050EA01028D
:1005A00008BF704730B511F0004502D5404261EBFD
:1005B00041014FF4806404F132045FEA915C3FF43E
:1005C000D8AE4FF003025FEADC0C18BF03325FEADB
:1005D000DC0C18BF033202EBDC02C2F1200300FA8C
:1005E00003FC20FA02F001FA03FE40EA0E0021FAB1
:1005F00002F11444BDE600BF70B54FF0FF0C4CF49F
:10060000E06C1CEA11541DBF1CEA135594EA0C0F50
:1006100095EA0C0F00F0DEF82C4481EA030621EA8B
:100620004C5123EA4C5350EA013518BF52EA0335C6
:1006300041F4801143F4801338D0A0FB02CE4FF078
:100640000005E1FB02E506F00042E0FB03E54FF0A8
:100650000006E1FB03569CF0000F18BF4EF0010EA0
:10066000A4F1FF04B6F5007F64F5407404D25FEA9C
:100670004E0E6D4146EB060642EAC62141EA55514F
:100680004FEAC52040EA5E504FEACE2EB4F1FD0C91
:1006900088BFBCF5E06F1ED8BEF1004F08BF5FEA0F
:1006A000500E50F1000041EB045170BD06F00046C1
:1006B00046EA010140EA020081EA0301B4EB5C046E
:1006C000C2BFD4EB0C0541EA045170BD41F4801166
:1006D0004FF0000E013C00F3AB8014F1360FDEBF8B
:1006E000002001F0004170BDC4F10004203C35DA67
:1006F0000C341BDC04F11404C4F1200500FA05F3EA
:1007000020FA04F001FA05F240EA020001F000428A
:1007100021F0004110EBD37021FA04F642EB060100
:100720005EEA430E08BF20EAD37070BDC4F10C042A
:10073000C4F1200500FA04F320FA05F001FA04F2EE
:1007400040EA020001F0004110EBD37041F10001DA
:100750005EEA430E08BF20EAD37070BDC4F12005E5
:1007600000FA05F24EEA020E20FA04F301FA05F24D
:1007700043EA020321FA04F001F0004121FA04F2F5
:1007800020EA020000EBD3705EEA430E08BF20EAC5
:10079000D37070BD94F0000F0FD101F000464000FF
:1007A00041EB010111F4801F08BF013CF7D041EA81
:1007B000060195F0000F18BF704703F00046520085
:1007C00043EB030313F4801F08BF013DF7D043EA56
:1007D0000603704794EA0C0F0CEA135518BF95EA0C
:1007E0000C0F0CD050EA410618BF52EA4306D1D193
:1007F00081EA030101F000414FF0000070BD50EAB2
:10080000410606BF1046194652EA430619D094EA3B
:100810000C0F02D150EA013613D195EA0C0F05D125
:1008200052EA03361CBF104619460AD181EA030179
:1008300001F0004141F0FE4141F470014FF0000031
:1008400070BD41F0FE4141F4780170BD70B54FF0CC
:10085000FF0C4CF4E06C1CEA11541DBF1CEA13554C
:1008600094EA0C0F95EA0C0F00F0A7F8A4EB05042E
:1008700081EA030E52EA03354FEA013100F0888025
:100880004FEA03334FF0805545EA131343EA1263EE
:100890004FEA022245EA111545EA10654FEA0026A3
:1008A0000EF000419D4208BF964244F1FD0404F55C
:1008B000407402D25B084FEA3202B61A65EB0305B8
:1008C0005B084FEA32024FF480104FF4002CB6EB75
:1008D000020E75EB030E22BFB61A754640EA0C00F5
:1008E0005B084FEA3202B6EB020E75EB030E22BF35
:1008F000B61A754640EA5C005B084FEA3202B6EB76
:10090000020E75EB030E22BFB61A754640EA9C0034
:100910005B084FEA3202B6EB020E75EB030E22BF04
:10092000B61A754640EADC0055EA060E18D04FEAC2
:10093000051545EA16754FEA06164FEAC30343EA62
:1009400052734FEAC2025FEA1C1CC0D111F4801F2F
:100950000BD141EA00014FF000004FF0004CB6E728
:1009600011F4801F04BF01430020B4F1FD0C88BFC7
:10097000BCF5E06F3FF6AFAEB5EB030C04BFB6EBD2
:10098000020C5FEA500C50F1000041EB045170BDC5
:100990000EF0004E4EEA113114EB5C04C2BFD4EBF2
:1009A0000C0541EA045170BD41F480114FF0000E76
:1009B000013C90E645EA060E8DE60CEA135594EAF2
:1009C0000C0F08BF95EA0C0F3FF43BAF94EA0C0FF5
:1009D0000AD150EA01347FF434AF95EA0C0F7FF46A
:1009E00025AF104619462CE795EA0C0F06D152EABE
:1009F00003353FF4FDAE1046194622E750EA4106A2
:100A000018BF52EA43067FF4C5AE50EA41047FF4B2
:100A10000DAF52EA43057FF4EBAE12E74FF0FF3C17
:100A200006E000BF4FF0010C02E000BF4FF0010CE8
:100A30004DF804CD4FEA410C7FEA6C5C4FEA430C61
:100A400018BF7FEA6C5C1BD001B050EA410C0CBFB0
:100A500052EA430C91EA030F02BF90EA020F002012
:100A6000704710F1000F91EA030F58BF994208BF79
:100A700090422CBFD8176FEAE37040F00100704736
:100A80004FEA410C7FEA6C5C02D150EA013C07D18D
:100A90004FEA430C7FEA6C5CD6D152EA033CD3D0D8
:100AA0005DF8040B704700BF8446104662468C46D2
:100AB0001946634600E000BF01B5FFF7B7FF002805
:100AC00048BF10F1000F01BD4DF808EDFFF7F4FF2E
:100AD0000CBF012000205DF808FB00BF4DF808EDB9
:100AE000FFF7EAFF34BF012000205DF808FB00BFDC
:100AF0004DF808EDFFF7E0FF94BF012000205DF8FE
:100B000008FB00BF4DF808EDFFF7CEFF94BF0120B2
:100B100000205DF808FB00BF4DF808EDFFF7C4FFAB
:100B200034BF012000205DF808FB00BF4FEA410CF4
:100B30007FEA6C5C02D150EA013C0AD14FEA430CD7
:100B40007FEA6C5C02D152EA033C02D14FF0000014
:100B500070474FF0010070474FEA410212F5001252
:100B600015D211D56FF47873B3EB625212D94FEAF4
:100B7000C12343F0004343EA505311F0004F23FADE
:100B800002F018BF404270474FF00000704750EA33
:100B9000013005D111F0004008BF6FF000407047F0
:100BA0004FF00000704700BF4FEA4102B2F1E0434E
:100BB00024BFB3F5001CDCF1FE5C0DD901F0004C44
:100BC0004FEAC0024CEA5070B2F1004F40EB830094
:100BD00008BF20F00100704711F0804F21D113F1C0
:100BE0003872BCBF01F00040704741F480114FEAF9
:100BF0005252C2F11802C2F1200C10FA0CF320FA82
:100C000002F018BF40F001004FEAC1234FEAD3239E
:100C100003FA0CFC40EA0C0023FA02F34FEA430308
:100C2000CCE77FEA625307D150EA01331EBF4FF091
:100C3000FE4040F44000704701F0004040F0FE40AC
:100C400040F40000704700BF53B94AB9002908BFFB
:100C500000281CBF4FF0FF314FF0FF3000F074B997
:100C6000ADF1080C6DE904CE00F006F8DDF804E003
:100C7000DDE9022304B070472DE9F047089D0446E2
:100C80008E46002B4DD18A42944669D9B2FA82F23F
:100C900052B101FA02F3C2F1200120FA01F10CFA7B
:100CA00002FC41EA030E94404FEA1C48210CBEFBB3
:100CB000F8F61FFA8CF708FB16E341EA034306FB3C
:100CC00007F199420AD91CEB030306F1FF3080F0CB
:100CD0001F81994240F21C81023E63445B1AA4B218
:100CE000B3FBF8F008FB103344EA034400FB07F7BA
:100CF000A7420AD91CEB040400F1FF3380F00A81FB
:100D0000A74240F207816444023840EA0640E41BEF
:100D100000261DB1D4400023C5E900433146BDE89B
:100D2000F0878B4209D9002D00F0EF800026C5E93D
:100D3000000130463146BDE8F087B3FA83F6002E55
:100D40004AD18B4202D3824200F2F980841A61EBCD
:100D5000030301209E46002DE0D0C5E9004EDDE7EB
:100D600002B9FFDEB2FA82F2002A40F09280A1EBD3
:100D70000C014FEA1C471FFA8CFE0126200CB1FB28
:100D8000F7F307FB131140EA01410EFB03F0884221
:100D900008D91CEB010103F1FF3802D2884200F2AE
:100DA000CB804346091AA4B2B1FBF7F007FB101140
:100DB00044EA01440EFB00FEA64508D91CEB0404DE
:100DC00000F1FF3102D2A64500F2BB800846A4EB39
:100DD0000E0440EA03409CE7C6F12007B34022FA24
:100DE00007FC4CEA030C20FA07F401FA06F31C4353
:100DF000F9404FEA1C4900FA06F3B1FBF9F8200C60
:100E00001FFA8CFE09FB181140EA014108FB0EF0A5
:100E1000884202FA06F20BD91CEB010108F1FF3AF5
:100E200080F08880884240F28580A8F10208614401
:100E3000091AA4B2B1FBF9F009FB101144EA01410F
:100E400000FB0EFE8E4508D91CEB010100F1FF34BA
:100E50006CD28E456AD90238614440EA0840A0FB52
:100E60000294A1EB0E01A142C846A64656D353D028
:100E70005DB1B3EB080261EB0E0101FA07F722FA4C
:100E800006F3F1401F43C5E9007100263146BDE875
:100E9000F087C2F12003D8400CFA02FC21FA03F3D8
:100EA000914001434FEA1C471FFA8CFEB3FBF7F059
:100EB00007FB10360B0C43EA064300FB0EF69E427E
:100EC00004FA02F408D91CEB030300F1FF382FD217
:100ED0009E422DD9023863449B1B89B2B3FBF7F6BF
:100EE00007FB163341EA034106FB0EF38B4208D998
:100EF0001CEB010106F1FF3816D28B4214D9023ED9
:100F00006144C91A46EA004638E72E46284605E7F6
:100F10000646E3E61846F8E64B45A9D2B9EB0208C7
:100F200064EB0C0E0138A3E74646EAE7204694E757
:100F30004046D1E7D0467BE7023B614432E730468A
:100F400009E76444023842E7704700BF80B582B0C9
:100F500000AF03F023F800F0C7F800F00FFC00F03A
:100F600039FB00F08FFA00F0EFF900F0DFFA00F043
:100F7000DBFB00F0BBF900F015F900F065F93E4B22
:100F800000221A703C4B00225A703B4B0C229A7084
:100F900000237B600CE064233B7000237B80364A97
:100FA0007B689B0013443A685A607B6801337B601E
:100FB0007B680B2BEFDD0AF007FD032200212F4891
:100FC0000AF0FDFA06222E492E4806F046FD0021C1
:100FD0002D4805F061FB04212B4805F05DFB0C2139
:100FE0002A4805F059FB3C21294805F0C3FC3C2167
:100FF000284805F0BFFC03F007F803461A46264BC5
:101000001A6303F001F803461A46244B1A6307F0EB
:1010100001FD234A0021234807F046FD0346224AEA
:101020001360224A0021224807F03EFD0346214A70
:101030001360214A0021214807F036FD0346204A6B
:101040001360204A0021204807F02EFD03461F4A66
:1010500013601F4A00211F4807F026FD03461E4A61
:1010600013601E4A00211E4807F01EFD03461D4A5C
:10107000136007F0F3FCFEE764050020B0020020D7
:101080005005002024040020DC030020040300207D
:101090004C030020940300209C040020D80400206E
:1010A00010EB0008313100086804002034EB000820
:1010B0006D3100086C04002058EB0008F131000885
:1010C000700400207CEB0008AD340008740400209C
:1010D000A0EB00083537000878040020C4EB0008B6
:1010E0003F3700087C04002080B594B000AF07F1C2
:1010F00020033022002118460AF023FE07F10C03DA
:1011000000221A605A609A60DA601A610023BB609C
:10111000224B1B6C214A43F0805313641F4B1B6C02
:1011200003F08053BB60BB6800237B601C4B1B68D3
:101130001B4A43F480431360194B1B6803F480433C
:101140007B607B6802233B620123FB6210233B63CD
:101150000023BB6307F12003184604F0F9FC0346A3
:10116000002B01D002F002FB0F23FB6000233B6148
:1011700000237B610023BB610023FB6107F10C03AB
:101180000021184604F05CFF0346002B01D002F05A
:10119000EDFA00BF5037BD4680BD00BF00380240A9
:1011A0000070004080B584B000AF3B4600221A605A
:1011B0005A609A60DA60214B214A1A601F4B002264
:1011C0005A601E4B00229A601C4B00221A611B4B76
:1011D00000221A76194B002283F82020174B002298
:1011E000DA62164B174A9A62144B0022DA60134BEC
:1011F0000122DA61114B002283F830200F4B0122CB
:101200005A610E4802F030FF0346002B01D002F075
:10121000ADFA0A233B6001237B600023BB603B46A1
:101220001946064802F064FF0346002B01D002F085
:101230009DFA00BF1037BD4680BD00BF20020020D0
:10124000002001400100000F80B584B000AF3B4694
:1012500000221A605A609A60DA60214B214A1A60B3
:101260001F4B00225A601E4B00229A601C4B00222A
:101270001A611B4B00221A76194B002283F820209A
:10128000174B0022DA62164B174A9A62144B00225F
:10129000DA60134B0122DA61114B002283F830200F
:1012A0000F4B01225A610E4802F0DEFE0346002B6E
:1012B00001D002F05BFA0E233B6001237B60002328
:1012C000BB603B461946064802F012FF0346002B5E
:1012D00001D002F04BFA00BF1037BD4680BD00BF01
:1012E00068020020002101400100000F80B500AF1E
:1012F000124B134A1A60114B124A5A600F4B0022CC
:101300009A600E4B0022DA600C4B4FF480421A6157
:101310000A4B00225A61094B00229A61074B0022B6
:10132000DA61064B00221A62044803F029FC0346E6
:10133000002B01D002F01AFA00BF80BDB0020020DD
:1013400000540040A086010080B596B000AF07F1C0
:10135000480300221A605A609A60DA6007F140037D
:1013600000221A605A6007F1240300221A605A60B2
:101370009A60DA601A615A619A613B1D202200214D
:1013800018460AF0DEFC3D4B3D4A1A603B4BA0225A
:101390005A603A4B00229A60384B4FF47A72DA6006
:1013A000364B00221A61354B00225A61334B8022A2
:1013B0009A61324805F056F80346002B01D002F03E
:1013C000D5F94FF48053BB6407F1480319462B4805
:1013D00005F048FD0346002B01D002F0C7F927486D
:1013E00005F000F90346002B01D002F0BFF90023FD
:1013F0003B6400237B6407F1400319461F4806F055
:101400006BF90346002B01D002F0B0F960237B6238
:101410000023BB620023FB6200237B630023BB63CA
:101420000023FB6307F124030C221946134805F03F
:1014300057FC0346002B01D002F098F900237B6093
:101440000023BB600023FB6000233B6100237B6122
:101450004FF40053BB6100233B623B1D1946074814
:1014600006F0B6F90346002B01D002F07FF90348DD
:1014700002F062FB00BF5837BD4680BD0403002068
:101480000000014080B58CB000AF07F10C032422AE
:10149000002118460AF055FC3B1D00221A605A60D4
:1014A000214B4FF080421A601F4B00225A601E4BA6
:1014B00000229A601C4B4FF0FF32DA601A4B002278
:1014C0001A61194B00229A610323FB6000233B61E0
:1014D00001237B610023BB610A23FB6100233B6284
:1014E00001237B620023BB620A23FB6207F10C032A
:1014F00019460D4805F098F90346002B01D002F07B
:1015000035F900237B600023BB603B1D194606486C
:1015100006F0E2F80346002B01D002F027F900BFE5
:101520003037BD4680BD00BF4C03002080B58CB075
:1015300000AF07F10C032422002118460AF001FC39
:101540003B1D00221A605A60204B214A1A601F4B33
:1015500000225A601D4B00229A601C4B4FF6FF720E
:10156000DA601A4B00221A61184B00229A61032399
:10157000FB6000233B6101237B610023BB610023EF
:10158000FB6100233B6201237B620023BB620023DB
:10159000FB6207F10C0319460C4805F045F90346B8
:1015A000002B01D002F0E2F800237B600023BB6037
:1015B0003B1D1946054806F08FF80346002B01D065
:1015C00002F0D4F800BF3037BD4680BD9403002040
:1015D0000004004080B596B000AF07F14803002238
:1015E0001A605A609A60DA6007F1400300221A60BC
:1015F0005A6007F1240300221A605A609A60DA6088
:101600001A615A619A613B1D2022002118460AF096
:1016100098FB434B434A1A60414B00225A60404BAF
:1016200000229A603E4B41F61F42DA603C4B00229A
:101630001A613B4B00225A61394B00229A613848AB
:1016400004F010FF0346002B01D002F08FF84FF496
:101650008053BB6407F148031946314805F002FC8A
:101660000346002B01D002F081F82D4804F0BAFFA8
:101670000346002B01D002F079F800233B640023DD
:101680007B6407F140031946254806F025F8034618
:10169000002B01D002F06AF860237B620023BB625A
:1016A0000023FB6200233B6300237B630023BB63B7
:1016B0000023FB6307F1240300221946184805F0B4
:1016C0000FFB0346002B01D002F050F807F1240372
:1016D00004221946124805F003FB0346002B01D0F3
:1016E00002F044F800237B600023BB600023FB6012
:1016F00000233B6100237B614FF40053BB61002357
:101700003B623B1D1946064806F062F80346002B73
:1017100001D002F02BF800BF5837BD4680BD00BF96
:10172000DC0300200004014080B500AF114B124AD9
:101730001A60104B4FF4E1325A600E4B00229A604F
:101740000C4B0022DA600B4B00221A61094B0C2271
:101750005A61084B00229A61064B0022DA61054863
:1017600006F09CF80346002B01D001F0FFFF00BFFC
:1017700080BD00BF240400200048004080B58AB02E
:1017800000AF07F1140300221A605A609A60DA6011
:101790001A6100233B613B4B1B6B3A4A43F0100339
:1017A0001363384B1B6B03F010033B613B69002351
:1017B000FB60344B1B6B334A43F004031363314B20
:1017C0001B6B03F00403FB60FB680023BB602D4B25
:1017D0001B6B2C4A43F0010313632A4B1B6B03F072
:1017E0000103BB60BB6800237B60264B1B6B254A53
:1017F00043F002031363234B1B6B03F002037B6074
:101800007B6800224FF4FC611F4803F09FF900221F
:101810003C211E4803F09AF900224FF480611C48D5
:1018200003F094F94FF4FC637B610123BB61002357
:10183000FB6100233B6207F114031946124802F0D2
:10184000E9FF3C237B610123BB610023FB61022391
:101850003B6207F1140319460C4802F0DBFF4FF41A
:1018600080637B610123BB610023FB6100233B623A
:1018700007F114031946064802F0CCFF00BF2837D1
:10188000BD4680BD0038024000100240000002400A
:101890000004024080B584B000AF78600023FB6094
:1018A0008E4B9B78303B642202FB03F18B4BDB7841
:1018B000A3F1300213469B0013445B00CA18874B08
:1018C0001B79303B1344FB60844B1B78532B15D1A1
:1018D000824B5B78542B11D101F0A2FB804B00228C
:1018E0001A70804801F002FB0346002B00F01981BA
:1018F0007D4801F05FFB01F07BFB12E1774B1B7829
:10190000462B19D1754B5B78572B15D1734B9B78B0
:101910002D2B09D1714BDB782D2B05D100220B210A
:10192000704801F0F6FAFCE0FB689BB21A46012110
:101930006C4801F0EEFAF4E0684B1B78422B19D1A9
:10194000664B5B78572B15D1644B9B782D2B09D1B7
:10195000624BDB782D2B05D100220C21614801F070
:10196000D8FADEE0FB689BB21A4602215D4801F01E
:10197000D0FAD6E0594B1B78462B0DD1574B5B78EC
:101980004C2B09D1554B9B78392B05D100220321D3
:10199000544801F0BEFAC4E0504B1B78462B0DD1E1
:1019A0004E4B5B78522B09D14C4B9B78392B05D190
:1019B000002204214B4801F0ACFAB2E0474B1B78FF
:1019C000422B0DD1454B5B784C2B09D1434B9B7877
:1019D000392B05D100220521424801F09AFAA0E0F6
:1019E0003E4B1B78422B0DD13C4B5B78522B09D1DF
:1019F0003A4B9B78392B05D100220621394801F05A
:101A000088FA8EE0354B1B78462B0DD1334B5B7833
:101A10004C2B09D1314B9B78312B05D1002207216A
:101A2000304801F076FA7CE02C4B1B78462B0DD128
:101A30002A4B5B78522B09D1284B9B78312B05D14F
:101A400000220821274801F064FA6AE0234B1B7842
:101A5000422B0DD1214B5B784C2B09D11F4B9B782E
:101A6000312B05D1002209211E4801F052FA58E01D
:101A70001A4B1B78422B0DD1184B5B78522B09D196
:101A8000164B9B78312B05D100220A21154801F015
:101A900040FA46E0114B1B78462B0DD10F4B5B787B
:101AA000522B09D10D4B9B784C2B05D100220B21D9
:101AB0000C4801F02EFA34E0084B1B78462B15D168
:101AC000064B5B784C2B11D1044B9B78522B0DD1DC
:101AD00000220C21034801F01CFA22E050050020EE
:101AE0009C050020640500201C0000201A4B1B7878
:101AF0004F2B16D1184B5B784C2B07D1FB689BB250
:101B00001A460D21154801F004FA0AE0124B5B78E1
:101B1000522B06D1FB689BB21A460E210F4801F0EA
:101B2000F8F90E4801F0E2F90346002B03D00C4B04
:101B30001B78072B03D10B49084801F013FA0A4B15
:101B40001B685B6806220449074805F086FF00BF52
:101B50001037BD4680BD00BF500500206405002041
:101B6000200000201C0000202404002080B582B04A
:101B700000AF0346FB71FB79002B14D00022042137
:101B8000154802F0E3FF01220821134802F0DEFFAE
:101B900000222021104802F0D9FF012210210E4816
:101BA00002F0D4FF13E0012204210B4802F0CEFF23
:101BB00000220821084802F0C9FF0122202106481E
:101BC00002F0C4FF00221021034802F0BFFF00BF53
:101BD0000837BD4680BD00BF0000024080B487B01A
:101BE00000AFF860B9607A6000237B617B68002BEE
:101BF0000BD0214B1B681B6803F01003102B0CBF8C
:101C000001230023DBB23B610AE01C4B1B681B680D
:101C100003F01003102B0CBF01230023DBB23B6148
:101C20003B69002B10D0BA68FB689A4204DAFA6864
:101C3000BB68D31A7B6117E0BB68C3F57F43FF33F2
:101C4000FA6813447B610FE0BA68FB689A4204DDCE
:101C5000BA68FB68D31A7B6106E0FB68C3F57F4373
:101C6000FF33BA6813447B617B6918461C37BD4655
:101C70005DF8047B704700BF4C03002094030020F4
:101C800080B582B000AF87ED010A38607868FEF752
:101C90005BFC09A3D3E90023FEF7D8FD02460B46FF
:101CA00010461946FEF758FF02463B681A6000BF0F
:101CB0000837BD4680BD00BF1E82BD9CEC79213F28
:101CC00080B588B000AFF860B9607A6000237B61AE
:101CD0000023FB610023BB61264B1B685B6A1A462D
:101CE000BB685A60244B1B685B6A1A467B685A6063
:101CF000BB685A68BB681B689A4208D0BB68186802
:101D0000BB685B6801221946FFF768FFB8617B6812
:101D10005A687B681B689A4208D07B6818687B68A1
:101D20005B6800221946FFF759FFF861BB694FF65F
:101D3000E752934211DCFB694FF6E75293420CDC09
:101D4000BA69FB691344DA0F13445B107B61FB68CB
:101D50005A687B691A44FB685A60BB685A68BB685A
:101D60001A607B685A687B681A6000BF2037BD46DE
:101D700080BD00BF4C0300209403002080B582B0DA
:101D800000AF786087ED000A134A7B685361134AFD
:101D90007B685361124897ED000AFFF771FF114B02
:101DA0001B685B6A1A460C4B5A600F4B1B685B6AD8
:101DB0001A460A4B5A600B4B1B685B6A1A460B4B60
:101DC0001A60094B1B685B6A1A46094B1A6000BF10
:101DD0000837BD4680BD00BF9C040020D804002009
:101DE000900400204C030020940300208004002075
:101DF0008804002080B500AF134B1B6800225A6393
:101E0000114B1B6800229A63104B18463C231A465C
:101E1000002109F096FF0E4B18463C231A4600217C
:101E200009F08FFF0B4B1A460023136053600A4BD7
:101E30001A46002313605360084B1A4600231360B0
:101E40005360936000BF80BDDC0300209C04002031
:101E5000D804002080040020880400209004002082
:101E600080B586B000AFF860B9607A6000237B610E
:101E700000233B61BB685B69002B00F0C380BB683B
:101E8000624A934208D101233B61614B1B685B6A44
:101E90001A46BB681A6009E0BB685E4A934205D1E6
:101EA0005D4B1B685B6A1A46BB681A60BB681A68A0
:101EB000BB685B689A4208D0BB685868BB681B68FF
:101EC0003A691946FFF78AFE78617B694FF6E75257
:101ED00093420CDC7A6913461B019B1A9B004F4A04
:101EE00082FB0312D211DB17D21ABB681A61BB68DE
:101EF0001B6942F6F822934202DDBB6800221A6198
:101F0000BB685A69BB681B69D21ABB68DA6102F008
:101F10007BF803461A46BB685A63BB685A6BBB68BA
:101F20001B6BD21ABB689A63BB685A6BBB681A6397
:101F3000BB681A6ABB68DB69B968896B01FB03F38C
:101F40001A44BB681A62BB68DA69BB685B6AD21A5A
:101F5000BB689A62BB68DA69BB685A62BB689A6AF6
:101F6000BB689B6B92FBF3F307EE903AF8EEE77ACF
:101F7000BB68C3ED0B7ABB68DB6907EE903AB8EE3D
:101F8000E77AFB68D3ED007A27EE277ABB681B6AF5
:101F900007EE903AF8EEE76AFB68D3ED017A66EE59
:101FA000A77A37EE277ABB68D3ED0B6AFB68D3EDCF
:101FB000027A66EEA77A77EE277AFDEEE77A17EED9
:101FC000902ABB689A60BB68DA68BB689B681A4451
:101FD000BB68DA60BB68DB6841F65832934204DDC7
:101FE000BB6841F65832DA6007E0BB68DB68002B5B
:101FF00003DABB684FF4FA72DA60BB681A68BB6830
:102000005A6000E000BF1837BD4680BD9C04002028
:102010004C030020D80400209403002035064C63B4
:1020200080B584B000AFF860B9607A607B68002B3F
:102030000BD0BB6893ED017ABB68D3ED027A77EEE3
:10204000677ABB68C3ED037A0AE0BB6893ED027A56
:10205000BB68D3ED017A77EE677ABB68C3ED037A8C
:1020600001F0D2FF03461A46BB685A62BB685A6A3F
:10207000BB681B6AD21ABB689A62BB685A6ABB68A3
:102080001A62BB6893ED047ABB68D3ED036ABB6840
:102090009B6A07EE903AF8EEE77A66EEA77A77EE5B
:1020A000277ABB68C3ED047ABB6893ED037ABB68FB
:1020B000D3ED057A77EE677ABB68C3ED067ABB6825
:1020C000DA68BB685A61BB68D3ED066ABB689B6A75
:1020D00007EE903AB8EEE77AC6EE877ABB68C3EDB2
:1020E000077ABB6893ED037AFB68D3ED007A27EE9D
:1020F000277ABB68D3ED046AFB68D3ED017A66EEFC
:10210000A77A37EE277ABB68D3ED076AFB68D3ED71
:10211000027A66EEA77A77EE277AFDEEE77AF8EE96
:10212000E77ABB68C3ED007ABB68D3ED007A9FED18
:102130000E7AF4EEC77AF1EE10FA03DDBB680B4AB3
:102140001A600DE0BB68D3ED007A9FED097AF4EEDA
:10215000C77AF1EE10FA00D402E0BB68054A1A60B3
:1021600000BF1037BD4680BD000096420000964279
:10217000000090C2000090C280B586B004AF7860C5
:102180004FF6FF730293022301930B4B009301233D
:102190003722D021094802F031FF074B1B781B0280
:1021A0001AB2054B5B781BB213431AB27B681A80D4
:1021B00000BF0837BD4680BD40050020B0020020AA
:1021C000B0B58AB000AF786091237B6200233B6298
:1021D0003D48FFF7D1FF3D4B1B681846FEF7B4F9A9
:1021E00004460D46384BB3F900301846FEF79AF90D
:1021F00031A3D3E90023FEF729FB02460B46104624
:1022000019462FA3D3E90023FEF7F6F902460B4641
:1022100020462946FEF73AF802460B461046194674
:10222000FEF7C2FC0346294A1360294B4FF0000217
:102230009A60264B1B68264A53607A6824492548D1
:10224000FFF7EEFE224BD3ED007A9FED237A77EE77
:10225000877A9FED227A27EE877ADFED216AC7EE33
:10226000267A9FED207A77EE877A17EE900AFEF7AE
:102270006BF902460B4643EC102B0CF0AFFB53EC12
:10228000102B10461946FEF767FC03467B627B6AFB
:10229000F02B02DDF0237B6204E07B6A5E2B01DC25
:1022A0005F237B62104B1B687A6A1A6400BF283771
:1022B000BD46B0BDAFF300806666666666663040B8
:1022C0007B14AE47E17A843F4C0500204405002092
:1022D000140500200C0000200000904200003A434A
:1022E00000001343000058420403002000000000D7
:1022F000B0B584B000AF78603960474B4FF0000252
:102300001A60464B00221A8001F07EFE0346FB60F5
:1023100001F07AFE0246FB68D31A092BF8D93F4830
:10232000FFF72AFF3C4B1B681846FEF70DF90446E1
:102330000D463A4BB3F900301846FEF7F3F832A3D6
:10234000D3E90023FEF782FA02460B4610461946EF
:102350002FA3D3E90023FEF74FF902460B46204690
:102360002946FDF793FF02460B4610461946FEF735
:102370001BFC0346284A1360274B93ED007A7B68C9
:10238000D3ED007A77EE677AFDEEE77A17EE903AB2
:10239000002B0DDB204B93ED007A7B68D3ED007AA8
:1023A00077EE677AFDEEE77A17EE903A002B04DDC0
:1023B00001F02AFE0346FB60AAE700BF184B1B682A
:1023C00000225A63164B1B6800229A633B68002B5D
:1023D00004D0144B1B6891221A6403E0114B1B6854
:1023E00091221A644FF4FA7006F0F0FB0A4B4FF09A
:1023F00000021A60094B00221A8000BF1037BD4648
:10240000B0BD00BFAFF300806666666666663040AA
:102410007B14AE47E17A843F440500204C05002040
:10242000DC0300200403002080B500AF1C4B4FF0FC
:1024300000021A601B4B00221A801B4B18462C23EB
:102440001A46002109F07DFC184B194A1A60194BF5
:102450001B68F0221A644FF4FA7006F0B7FB0120F3
:10246000FFF784FB144B1B684FF47A625A63124BDC
:102470001B6840F6AC529A6300210C48FFF738FF06
:10248000074B4FF000021A60064B00221A80064BE1
:1024900018462C231A46002109F053FC00BF80BDCA
:1024A000440500204C0500201405002048050020AC
:1024B0000000A0C204030020DC03002080B500AFB0
:1024C000204B4FF000021A601F4B00221A801F4B56
:1024D00018462C231A46002109F033FC1C4B1D4AD8
:1024E0001A601D4B1B68F0221A644FF4FA7006F054
:1024F0006DFB0120FFF73AFB184B1B6840F6B83222
:102500005A63164B1B684FF448729A6300211048B7
:10251000FFF7EEFE00219FED120A4FF4C87000F0A5
:102520001FFC084B4FF000021A60074B00221A8074
:10253000064B18462C231A46002109F002FC00BF66
:1025400080BD00BF440500204C050020140500207C
:10255000480500200000A8C204030020DC0300207E
:10256000CDCC4C3E80B500AF234B4FF000021A603B
:10257000224B00221A80224B18462C231A46002197
:1025800009F0DFFB1F4B204A1A6001219FED1F0A53
:102590004FF4C87000F0E4FB1D4B1B6852221A6414
:1025A0004FF4FA7006F012FB0120FFF7DFFA194B27
:1025B0001B684FF448725A63164B1B6840F6B832DA
:1025C0009A6301210F48FFF793FE00219FED120A45
:1025D0004FF4C87000F0C4FB074B4FF000021A60C4
:1025E000064B00221A80064B18462C231A4600215F
:1025F00009F0A7FB00BF80BD440500204C0500206A
:1026000014050020480500200000A4428FC2753C3C
:1026100004030020DC030020D1229B3E80B500AFE4
:102620002E4B4FF000021A602D4B00221A802D4BCA
:1026300018462C231A46002109F083FB2A4B2B4A0B
:102640001A602B4B1B685F221A644FF4FA7006F075
:10265000BDFA0120FFF78AFA264B1B684FF4487237
:102660005A63244B1B684FF47A629A6301211E4817
:10267000FFF73EFE01219FED200A4FF4967000F017
:102680006FFB194B1D4A1A60194B1B68F0221A6424
:102690004FF4FA7006F09AFA0120FFF767FA154B2B
:1026A0001B684FF47A625A63124B1B684FF44872EE
:1026B0009A6300210C48FFF71BFE084B4FF0000205
:1026C0001A60074B00221A80064B18462C231A4624
:1026D000002109F036FB00BF80BD00BF440500208B
:1026E0004C05002014050020480500200000A042F1
:1026F00004030020DC030020CDCCCC3D0000A4C2AC
:1027000080B500AF2E4B4FF000021A602D4B002217
:102710001A802D4B18462C231A46002109F011FB74
:102720002A4B2B4A1A602B4B1B68F0221A644FF479
:10273000FA7006F04BFA0120FFF718FA264B1B68D7
:102740004FF47A625A63244B1B684FF448729A63C1
:1027500000211E48FFF7CCFD01219FED200A4FF418
:10276000967000F0FDFA194B1D4A1A60194B1B6850
:102770005F221A644FF4FA7006F028FA0120FFF77E
:10278000F5F9154B1B684FF448725A63124B1B68DE
:102790004FF47A629A6301210C48FFF7A9FD084BB8
:1027A0004FF000021A60074B00221A80064B1846B1
:1027B0002C231A46002109F0C4FA00BF80BD00BFD7
:1027C000440500204C050020140500204805002089
:1027D0000000A0C204030020DC030020CDCCCC3DCF
:1027E0000000A44280B500AF154B164A1A60164B84
:1027F0001B68F0221A644FF4FA7006F0E7F9012022
:10280000FFF7B4F9114B1B6840F6B8325A630F4B0F
:102810001B684FF448729A6300210948FFF768FD6E
:102820000B4B4FF000021A600A4B00221A800A4B31
:1028300018462C231A46002109F083FA00BF80BDF8
:1028400048050020000016C304030020DC0300201C
:10285000440500204C0500201405002080B500AF81
:10286000154B164A1A60164B1B685F221A644FF408
:10287000FA7006F0ABF90120FFF778F9114B1B68ED
:102880004FF448725A630F4B1B6840F6B8329A6394
:1028900001210948FFF72CFD0B4B4FF000021A6095
:1028A0000A4B00221A800A4B18462C231A46002194
:1028B00009F047FA00BF80BD48050020000015431D
:1028C00004030020DC030020440500204C05002008
:1028D0001405002080B500AF254B4FF000021A60B0
:1028E000244B00221A80244B18462C231A46002120
:1028F00009F027FA214B224A1A6001219FED210A93
:102900004FF4C87000F02CFA4FF4FA7006F05EF93C
:102910001D4B1B68F0221A644FF4FA7006F056F94A
:102920000020FFF723F9194B1B6840F6B8325A63B1
:10293000164B1B684FF448729A6300210F48FFF74B
:10294000D7FC00219FED120A4FF4C87000F008FA7E
:10295000074B4FF000021A60064B00221A80064B0C
:1029600018462C231A46002109F0EBF900BF80BD60
:10297000440500204C0500201405002048050020D7
:102980000000AA428FC2753E04030020DC03002031
:102990008FC2753D80B500AF254B4FF000021A6025
:1029A000244B00221A80244B18462C231A4600215F
:1029B00009F0C7F9214B224A1A6001219FED210A33
:1029C0004FF4C87000F0CCF94FF4FA7006F0FEF83E
:1029D0001D4B1B6852221A644FF4FA7006F0F6F889
:1029E0000020FFF7C3F8194B1B684FF448725A6375
:1029F000164B1B6840F6B8329A6301210F48FFF767
:102A000077FC00219FED120A4FF4C87000F0A8F97E
:102A1000074B4FF000021A60064B00221A80064B4B
:102A200018462C231A46002109F08BF900BF80BDFF
:102A3000440500204C050020140500204805002016
:102A40000000A2C2E17A943E04030020DC030020CF
:102A50000AD7A33C80B500AF154B164A1A60164B37
:102A60001B68F0221A644FF4FA7006F0AFF80020E9
:102A7000FFF77CF8114B1B6840F6B8325A630F4BD6
:102A80001B684FF448729A6300210948FFF730FC35
:102A90000B4B4FF000021A600A4B00221A800A4BBF
:102AA00018462C231A46002109F04BF900BF80BDBF
:102AB000480500200000154304030020DC0300202B
:102AC000440500204C0500201405002080B500AF0F
:102AD000154B164A1A60164B1B685F221A644FF496
:102AE000FA7006F073F80020FFF740F8114B1B68EE
:102AF0004FF448725A630F4B1B6840F6B8329A6322
:102B000001210948FFF7F4FB0B4B4FF000021A605C
:102B10000A4B00221A800A4B18462C231A46002121
:102B200009F00FF900BF80BD48050020000016C362
:102B300004030020DC030020440500204C05002095
:102B40001405002080B500AF0120FFF70FF8184BE7
:102B50001B6840F6C4125A63154B1B6840F6C4123A
:102B60009A63144B1B6878221A644FF4617006F064
:102B70002DF8104B1B68F0221A644FF4966006F093
:102B800025F80C4B1B685F221A644FF47A7006F02C
:102B90001DF8084B1B6891221A64054B1B68002224
:102BA0005A63034B1B6800229A6300BF80BD00BFBD
:102BB000DC0300200403002080B500AF0120FEF7F5
:102BC000D5FF1C4B1B684FF4E1625A63194B1B681D
:102BD0004FF4E1629A63184B1B68BE221A644FF4EB
:102BE0007A7005F0F3FF144B1B685F221A644FF4F0
:102BF000967005F0EBFF104B1B6891221A644FF49E
:102C0000487005F0E3FF0C4B1B685F221A644FF419
:102C1000617005F0DBFF084B1B6891221A64054BBD
:102C20001B6800225A63034B1B6800229A6300BF93
:102C300080BD00BFDC0300200403002080B500AF8E
:102C40000120FEF793FF1C4B1B6840F6C4125A6329
:102C5000194B1B6840F6C4129A63184B1B685F221D
:102C60001A644FF47A7005F0B1FF144B1B68F02220
:102C70001A6440F6C41005F0A9FF104B1B6891229E
:102C80001A644FF4966005F0A1FF0C4B1B68F0220C
:102C90001A6440F2145005F099FF084B1B6891220A
:102CA0001A64054B1B6800225A63034B1B68002201
:102CB0009A6300BF80BD00BFDC0300200403002036
:102CC00080B500AF0120FEF751FF1C4B1B6840F69A
:102CD000C4125A63194B1B6840F6C4129A63184B0E
:102CE0001B68F0221A644FF47A7005F06FFF144BE2
:102CF0001B685F221A6440F6C41005F067FF104B92
:102D00001B6891221A6440F2145005F05FFF0C4BCF
:102D10001B685F221A6440F27E4005F057FF084BA3
:102D20001B6891221A64054B1B6800225A63034BEF
:102D30001B6800229A6300BF80BD00BFDC03002037
:102D40000403002080B500AFFFF768FC00BF80BD22
:102D500080B500AFFFF7D4FC00BF80BD00000000CD
:102D600080B588B000AFF86087ED020A7960002373
:102D70007B61534B1B687A689A4210D0514B4FF0DD
:102D800000021A60504B00221A80504B18462C2328
:102D90001A46002108F0D5FF494A7B68136001F00C
:102DA00033F9F86101F030F9B86101F02DF903460B
:102DB000474A9360B868FDF7C7FB3FA3D3E90023F8
:102DC000FDF796FE0346002B05D04FF49673FB608B
:102DD0004B237B6102E040F28A237B617B68DBB29C
:102DE0001846FEF7C3FE97ED020AF868FEF7C6FF25
:102DF000344B4FF000021A60334B00221A80334BE1
:102E000018462C231A46002108F09BFF01F0FCF81D
:102E10000246BB69D31A092B05D97868FFF7D0F9A8
:102E200001F0F2F8B86101F0EFF80246284B9B6818
:102E3000D31A132B16D9274A27492548FEF740FFF6
:102E4000234B5B681A46224B1B6819467B69CB1AD9
:102E50009A4202D3FEF7CEFF24E001F0D5F80346F4
:102E60001B4A936001F0D0F80246FB69D31AB3F510
:102E70007A7FCBD3184A19491948FEF7F1FF154A52
:102E800018491748FEF7ECFF144BDA68164B1B681D
:102E90005A63144BDA68144B1B689A6301F0B4F858
:102EA000F861B3E74FF4FA7005F090FE00BF2037E9
:102EB000BD4680BDAFF30080CDCCCCCCCCCCDC3FCC
:102EC00018000020440500204C05002014050020B7
:102ED0009004002088040020800400209C0400202E
:102EE00000000020D8040020DC03002080B483B060
:102EF00000AF78607B681A787B685B789A4201D172
:102F0000012300E0002318460C37BD465DF8047B22
:102F1000704780B483B000AF78600B46FB701346F7
:102F20003B807B681B787A689B001344FA781A719F
:102F30007B681B787A689B0013443A88DA807B6848
:102F40001B7801337A68927893FBF2F101FB02F26D
:102F50009B1ADAB27B681A7000BF0C37BD465DF869
:102F6000047B704780B483B000AF786039607B68C1
:102F70005B787A689B0013441A793B681A707B6807
:102F80005B787A689B001344DA883B685A807B68D8
:102F90005B7801337A68927893FBF2F101FB02F2DD
:102FA0009B1ADAB27B685A7000BF0C37BD465DF8D9
:102FB000047B704780B483B000AF78607B68642284
:102FC0001A707B6800225A8000BF0C37BD465DF83E
:102FD000047B704780B483B000AF78607B68632265
:102FE0001A7000BF0C37BD465DF8047B70470000C7
:102FF00080B584B000AF3B1D0749184609F022FC9C
:10300000391D4FF6FF730A22044804F094FC00BFF8
:103010001037BD4680BD00BFD0EA00082404002060
:1030200080B400AF034B07221A7000BFBD465DF8A5
:10303000047B70472000002080B582B000AF78602C
:103040007B681B7F012B64D1344B1B78002B1AD17A
:103050000021786803F0CEFF0346314A13602F4BFE
:1030600001221A707B681B681A6A7B681B6822F051
:103070000A021A627B681B681A6A7B681B6842F046
:1030800002021A6245E0254B1B78012B41D1002139
:10309000786803F0AFFF0346224A13607B681B6821
:1030A00000225A621F4B1A681D4B1B689A4207D9AF
:1030B0001C4B1A681A4B1B68D31A1B4A13600FE08B
:1030C000174B1A68174B1B689A4209D9154B1A6897
:1030D000134B1B68D31A03F57F43FF33124A136067
:1030E0000E4B00221A707B681B681A6A7B681B688B
:1030F00022F00A021A627B681A687B681B68126AEF
:103100001A620A4B1B68DA68084B1B6822F002023D
:10311000DA6000BF0837BD4680BD00BFAC050020A7
:10312000A0050020A4050020A8050020040300201D
:1031300080B58AB000AF786001237B6200F064FF45
:10314000386200F061FFF86100F05EFF0346054A57
:103150009360054B1B6891221A644FF4FA7005F0D6
:1031600035FDFEE7900400200403002080B592B0F6
:1031700000AF786007F13403174A1849184609F080
:1031800061FB07F134031A461E210A2008F0EAFB0E
:10319000134B1A6907F134031249184609F052FB20
:1031A00007F134031A460A210A2008F0DBFB0E4B14
:1031B0001A6907F134030D49184609F043FB07F17A
:1031C00034031A4614210A2008F0CCFB08F056FA02
:1031D000642005F0FBFCCDE750050020D4EA000890
:1031E0009C040020E0EA0008D8040020ECEA000873
:1031F00080B582B000AF7860A84B1B78013B622B92
:1032000000F2478101A252F823F000BF9933000871
:1032100099330008BB330008CF330008E3330008BC
:10322000F73300080B3400081F340008333400085B
:10323000473400085B34000869340008773400081C
:103240008534000893340008933400089334000850
:103250009334000893340008933400089334000832
:103260009334000893340008933400089334000822
:103270009334000893340008933400089334000812
:103280009334000893340008933400089334000802
:1032900093340008933400089334000893340008F2
:1032A00093340008933400089334000893340008E2
:1032B00093340008933400089334000893340008D2
:1032C00093340008933400089334000893340008C2
:1032D00093340008933400089334000893340008B2
:1032E00093340008933400089334000893340008A2
:1032F0009334000893340008933400089334000892
:103300009334000893340008933400089334000881
:103310009334000893340008933400089334000871
:103320009334000893340008933400089334000861
:103330009334000893340008933400089334000851
:103340009334000893340008933400089334000841
:103350009334000893340008933400089334000831
:103360009334000893340008933400089334000821
:103370009334000893340008933400089334000811
:103380009334000893340008933400089334000801
:103390009334000893340008404B1B78012B14BF72
:1033A00001230023DBB21A463D4B1A703D4B01222C
:1033B0001A703A48FFF70EFE6CE0394B02221A7081
:1033C000394B5A221A603548FFF704FE62E0344B4D
:1033D00003221A70344B5A221A603048FFF7FAFD64
:1033E00058E02F4B04221A702F4B5A221A602B4898
:1033F000FFF7F0FD4EE02A4B05221A702A4B5A22A5
:103400001A602648FFF7E6FD44E0254B02221A70B9
:10341000254BB4221A602148FFF7DCFD3AE0204B2F
:1034200003221A70204BB4221A601C48FFF7D2FD09
:1034300030E01B4B04221A701B4BB4221A60174851
:10344000FFF7C8FD26E0164B05221A70164BB42272
:103450001A601248FFF7BEFD1CE0114B0A221A70D9
:103460000E48FFF7B7FD15E00D4B0B221A700B4805
:10347000FFF7B0FD0EE00A4B0F221A700748FFF766
:10348000A9FD07E0064B0C221A700448FFF7A2FDC5
:1034900000E000BF642005F099FBADE61C000020B1
:1034A000200000209C0500209805002080B584B0F5
:1034B00000AF78609A4B1B78002B1CD1994B5B882E
:1034C00007EE903AF8EE677AC7ED037A9548FFF772
:1034D00071FDD7ED037ADFED946A87EEA67A0121BC
:1034E000B0EE470A4FF41670FFF73AFCFFF780FD85
:1034F000FFF796FDDEE78A4B1B78012B1CD1894B29
:103500005B8807EE903AF8EE677AC7ED037A854854
:10351000FFF750FDD7ED037ADFED836A87EEA67AD9
:103520000021B0EE470A4FF41670FFF719FCFFF7C1
:103530005FFDFFF775FDBDE7794B1B78022B13D1BB
:103540007848FFF737FD794B1B685A2B02D1FFF7FC
:1035500009F801E0FFF782F9744B00221A60FFF7C7
:1035600047FDFFF75DFDA5E76D4B1B78032B13D1DE
:103570006C48FFF71FFD6D4B1B685A2B02D1FEF7FD
:1035800053FF01E0FFF72EF9684B00221A60FFF7A6
:103590002FFDFFF745FD8DE7614B1B78042B13D101
:1035A0006048FFF707FD614B1B685A2B02D1FFF7FC
:1035B000F1F901E0FFF78AFA5C4B00221A60FFF78D
:1035C00017FDFFF72DFD75E7554B1B78052B13D124
:1035D0005448FFF7EFFC554B1B685A2B02D1FFF7FD
:1035E00079F901E0FFF736FA504B00221A60FFF735
:1035F000FFFCFFF715FD5DE7494B1B780A2B09D14E
:103600004848FFF7D7FCFFF77BF8FFF7F1FCFFF71F
:1036100007FD4FE7424B1B780B2B09D14148FFF7C1
:10362000C9FCFEF7FBFFFFF7E3FCFFF7F9FC41E7FE
:103630003B4B1B78082B0DD13A48FFF7BBFCFEF73C
:1036400091FF4FF47A7005F0C1FAFFF7D1FCFFF754
:10365000E7FC2FE7324B1B78092B0DD13148FFF7E0
:10366000A9FCFEF72BFF4FF47A7005F0AFFAFFF7D5
:10367000BFFCFFF7D5FC1DE7294B1B780F2B24D18E
:10368000284B5B881A462A4B1A602648FFF792FCA3
:10369000274B1B68012B02D1FFF754FA0CE0244B97
:1036A0001B68022B02D1FFF7C9FA05E0204B1B680B
:1036B000032B01D1FFF746FB4FF47A7005F086FA31
:1036C000FFF796FCFFF7ACFCF4E6154B1B780C2BD0
:1036D0007FF4F0AE134B5B881A46154B1A60114805
:1036E000FFF768FC124B1B68012B02D1FFF764FA4D
:1036F0000CE00F4B1B68022B02D1FFF7E1FA05E04B
:103700000B4B1B68032B01D1FFF722FB4FF47A70A0
:1037100005F05CFAFFF76CFCFFF782FCCAE600BF1D
:10372000200000201C0000200000C8429805002056
:10373000B005002080B483B000AF7860FEE780B4AD
:1037400083B000AF7860FEE780B582B000AF7860EC
:103750007B681B68044A934201D100F041FC00BF22
:103760000837BD4680BD00BF0010004080B400AFE8
:1037700072B600BFFEE7000080B582B000AF002344
:103780007B60124B5B6C114A43F4804353640F4BD4
:103790005B6C03F480437B607B6800233B600B4BD6
:1037A0001B6C0A4A43F080531364084B1B6C03F0F4
:1037B00080533B603B6800220F216FF0010000F056
:1037C0006DFF00BF0837BD4680BD00BF0038024016
:1037D00080B58CB000AF786007F11C0300221A603E
:1037E0005A609A60DA601A617B681B682E4A9342BD
:1037F00028D10023BB612D4B5B6C2C4A43F48073B2
:1038000053642A4B5B6C03F48073BB61BB69002378
:103810007B61264B1B6B254A43F004031363234B48
:103820001B6B03F004037B617B690123FB610323B2
:103830003B6200237B6207F11C0319461C4800F021
:10384000E9FF2CE07B681B681A4A934227D10023CA
:103850003B61164B5B6C154A43F400735364134B86
:103860005B6C03F400733B613B690023FB600F4B0F
:103870001B6B0E4A43F0040313630C4B1B6B03F0EA
:103880000403FB60FB681023FB6103233B620023FE
:103890007B6207F11C031946054800F0BBFF00BF1F
:1038A0003037BD4680BD00BF0020014000380240D7
:1038B000000802400021014080B58AB000AF786066
:1038C00007F1140300221A605A609A60DA601A61E4
:1038D0007B681B68194A93422CD100233B61184B2B
:1038E0001B6B174A43F002031363154B1B6B03F06A
:1038F00002033B613B694FF440737B611223BB6160
:103900000023FB6103233B6204237B6207F1140362
:1039100019460C4800F07EFF0023FB60084B1B6C2F
:10392000074A43F400131364054B1B6C03F40013A4
:10393000FB60FB6800BF2837BD4680BD00540040D7
:10394000003802400004024080B58AB000AF7860C1
:1039500007F1140300221A605A609A60DA601A6153
:103960007B681B68234A93420ED100233B61224BA4
:103970005B6C214A43F0010353641F4B5B6C03F003
:1039800001033B613B6930E07B681B681B4A934243
:103990002BD10023FB60184B5B6C174A43F00203EA
:1039A0005364154B5B6C03F00203FB60FB68002360
:1039B000BB60114B1B6B104A43F0040313630E4BA7
:1039C0001B6B03F00403BB60BB68C0237B61022355
:1039D000BB610023FB6100233B6203237B6207F191
:1039E00014031946064800F015FF00BF2837BD46EE
:1039F00080BD00BF000001400038024000040140CB
:103A00000008024080B58CB000AF786007F11C035D
:103A100000221A605A609A60DA601A617B681B683B
:103A2000B3F1804F4BD10023BB613F4B1B6C3E4A2F
:103A300043F0010313643C4B1B6C03F00103BB61B7
:103A4000BB6900237B61384B1B6B374A43F0010392
:103A50001363354B1B6B03F001037B617B69002310
:103A60003B61314B1B6B304A43F0020313632E4B17
:103A70001B6B03F002033B613B694FF40043FB61A6
:103A800002233B6200237B620023BB620123FB62B3
:103A900007F11C031946254800F0BCFE0823FB6112
:103AA00002233B6200237B620023BB620123FB6293
:103AB00007F11C0319461E4800F0ACFE30E07B689D
:103AC0001B681C4A93422BD10023FB60164B1B6CD6
:103AD000154A43F002031364134B1B6C03F00203FB
:103AE000FB60FB680023BB600F4B1B6B0E4A43F06F
:103AF000010313630C4B1B6B03F00103BB60BB683A
:103B0000C023FB6102233B6200237B620023BB6274
:103B10000223FB6207F11C031946044800F07AFEF9
:103B200000BF3037BD4680BD003802400000024073
:103B3000000402400004004080B588B000AF786007
:103B400007F10C0300221A605A609A60DA601A6169
:103B50007B681B68124A93421ED10023BB60114B45
:103B60001B6B104A43F0100313630E4B1B6B03F0E7
:103B70001003BB60BB684FF48043FB6002233B61D2
:103B800000237B610023BB610123FB6107F10C0370
:103B90001946054800F03EFE00BF2037BD4680BDF7
:103BA00000000140003802400010024080B58AB099
:103BB00000AF786007F1140300221A605A609A601F
:103BC000DA601A617B681B681D4A934234D1002376
:103BD0003B611C4B1B6C1B4A43F480231364194B41
:103BE0001B6C03F480233B613B690023FB60154B96
:103BF0001B6B144A43F004031363124B1B6B03F05B
:103C00000403FB60FB684FF440637B610223BB61EC
:103C10000023FB6103233B6207237B6207F114034C
:103C20001946094800F0F6FD00220521272000F082
:103C300035FD272000F04EFD00BF2837BD4680BD72
:103C400000480040003802400008024080B58EB0B5
:103C500000AF78600023FB620023BB620023FB609F
:103C6000334B1B6C324A43F010031364304B1B6C14
:103C700003F01003FB60FB6807F1100207F1140367
:103C80001146184602F0BCFB3B6AFB62FB6A002B44
:103C900003D102F08DFB786304E002F089FB034658
:103CA0005B007B637B6B234AA2FB03239B0C013BE2
:103CB000BB62214B214A1A601F4B40F2E732DA60A7
:103CC0001D4ABB6A53601C4B00221A611A4B00222A
:103CD0009A60194B00229A61174802F0C3FB034611
:103CE00087F8333097F83330002B1BD1124802F09D
:103CF00009FC034687F8333097F83330002B11D195
:103D0000362000F0E7FC7B680F2B08D8002279688A
:103D1000362000F0C3FC0A4A7B68136002E00123EE
:103D200087F8333097F8333018463837BD4680BDB2
:103D30000038024083DE1B43B40500200010004021
:103D40002800002080B400AFFEE780B400AFFEE79B
:103D500080B400AFFEE780B400AFFEE780B400AFF0
:103D6000FEE780B400AF00BFBD465DF8047B70473E
:103D700080B500AF024803F0A1FE00BF80BD00BFC8
:103D80002404002080B500AF024802F0A1FE00BF6D
:103D900080BD00BFB405002080B400AF01231846E9
:103DA000BD465DF8047B704780B582B000AF786097
:103DB000396007F095FE034616221A604FF0FF3374
:103DC00018460837BD4680BD80B582B000AF786028
:103DD0004FF0FF317868FFF7E7FFFEE780B586B068
:103DE00000AFF860B9607A6000237B610AE0AFF34E
:103DF00000800146BB685A1CBA60CAB21A707B695F
:103E000001337B617A697B689A42F0DB7B681846F4
:103E10001837BD4680BD80B586B000AFF860B96088
:103E20007A6000237B6109E0BB685A1CBA601B788A
:103E30001846AFF300807B6901337B617A697B6848
:103E40009A42F1DB7B6818461837BD4680BD80B4C6
:103E500083B000AF78604FF0FF3318460C37BD4693
:103E60005DF8047B704780B483B000AF7860396040
:103E70003B684FF400525A60002318460C37BD4689
:103E80005DF8047B704780B483B000AF7860012395
:103E900018460C37BD465DF8047B704780B485B08A
:103EA00000AFF860B9607A60002318461437BD4649
:103EB0005DF8047B7047000080B586B000AF786085
:103EC000144A154BD31A7B617B693B61134B1B680A
:103ED000002B02D1114B124A1A60104B1A687B68F2
:103EE00013443A699A4207D207F0FAFD03460C22BE
:103EF0001A604FF0FF3309E0084B1B68FB60074B6B
:103F00001A687B681344054A1360FB681846183723
:103F1000BD4680BD0000022000040000FC0500201A
:103F20002854002080B400AF064BD3F88830054AEF
:103F300043F47003C2F8883000BFBD465DF8047BCF
:103F4000704700BF00ED00E0DFF834D00D480E49A7
:103F50000E4A002302E0D458C4500433C4188C42E3
:103F6000F9D30B4A0B4C002301E013600432A24248
:103F7000FBD3FFF7D7FF07F0AFFEFCF7E7FF704773
:103F80000000022000000020040200204CFA00087B
:103F90000402002024540020FEE7000080B500AF9A
:103FA0000E4B1B680D4A43F4007313600B4B1B68E8
:103FB0000A4A43F480631360084B1B68074A43F4C2
:103FC00080731360032000F05EFB0F20FFF73EFEBE
:103FD000FFF7D2FB0023184680BD00BF003C024023
:103FE00080B400AF064B1B781A46064B1B6813447F
:103FF000044A136000BFBD465DF8047B704700BFF4
:104000002C0000200006002080B400AF034B1B688A
:104010001846BD465DF8047B704700BF00060020CF
:1040200080B584B000AF7860FFF7EEFFB8607B68C2
:10403000FB60FB68B3F1FF3F05D00A4B1B781A46C3
:10404000FB681344FB6000BFFFF7DEFF0246BB685E
:10405000D31AFA689A42F7D800BF00BF1037BD469E
:1040600080BD00BF2C00002080B584B000AF786018
:104070000023FB737B68002B01D1012333E07B68B5
:104080001B6C002B09D17868FFF7A2FB7B6800222C
:104090005A647B68002283F83C207B681B6C03F029
:1040A0001003002B18D17B681B6C23F4885323F07A
:1040B000020343F002027B681A64786800F03AF960
:1040C0007B6800225A647B681B6C23F0030343F077
:1040D00001027B681A6401E00123FB737B68002204
:1040E00083F83C20FB7B18461037BD4680BD00009E
:1040F00080B485B000AF786039600023BB607B6816
:1041000093F83C30012B01D1022305E17B680122A9
:1041100083F83C203B681B68092B25D97B681B680A
:10412000D9683B681B689BB21A4613465B00134470
:104130001E3B072202FA03F3DA437B681B680A403E
:10414000DA607B681B68D9683B689A683B681B68C3
:104150009BB2184603465B0003441E3B9A407B68B3
:104160001B680A43DA6022E07B681B6819693B68B8
:104170001B689BB21A4613465B001344072202FADF
:1041800003F3DA437B681B680A401A617B681B688B
:1041900019693B689A683B681B689BB218460346DE
:1041A0005B0003449A407B681B680A431A613B68C2
:1041B0005B68062B24D87B681B68596B3B685A6880
:1041C00013469B001344053B1F2202FA03F3DA4314
:1041D0007B681B680A405A637B681B68596B3B68A5
:1041E0001B689BB218463B685A6813469B001344F1
:1041F000053B00FA03F27B681B680A435A634CE0F4
:104200003B685B680C2B24D87B681B68196B3B6888
:104210005A6813469B001344233B1F2202FA03F300
:10422000DA437B681B680A401A637B681B68196B5A
:104230003B681B689BB218463B685A6813469B0054
:104240001344233B00FA03F27B681B680A431A639A
:1042500023E07B681B68D96A3B685A6813469B0059
:104260001344413B1F2202FA03F3DA437B681B68C5
:104270000A40DA627B681B68D96A3B681B689BB29C
:1042800018463B685A6813469B001344413B00FAAA
:1042900003F27B681B680A43DA62224BFB607B688F
:1042A0001B68214A934209D13B681B68122B05D138
:1042B000FB685B6843F48002FB685A607B681B689C
:1042C000194A934223D13B681B68102B03D03B68EB
:1042D0001B68112B1BD1FB685B6843F40002FB6871
:1042E0005A603B681B68102B11D1104B1B68104A99
:1042F000A2FB03239A0C13469B0013445B00BB6094
:1043000002E0BB68013BBB60BB68002BF9D17B6856
:10431000002283F83C20002318461437BD465DF880
:10432000047B70470023014000200140240000204E
:1043300083DE1B4380B485B000AF7860794BFB60AF
:10434000FB685B6823F44032FB685A60FB685A687C
:104350007B685B681A43FB685A607B681B685A6815
:104360007B681B6822F480725A607B681B685968FE
:104370007B681B691A027B681B680A435A607B686A
:104380001B685A687B681B6822F040725A607B6821
:104390001B6859687B689A687B681B680A435A6087
:1043A0007B681B689A687B681B6822F400629A60CD
:1043B0007B681B6899687B68DA687B681B680A43BE
:1043C0009A607B689B6A584A934222D07B681B683C
:1043D0009A687B681B6822F070629A607B681B6831
:1043E00099687B689A6A7B681B680A439A607B6855
:1043F0001B689A687B681B6822F040529A607B6851
:104400001B6899687B68DA6A7B681B680A439A6054
:104410000FE07B681B689A687B681B6822F07062FB
:104420009A607B681B689A687B681B6822F0405220
:104430009A607B681B689A687B681B6822F002029E
:104440009A607B681B6899687B681B7E5A007B6852
:104450001B680A439A607B6893F82030002B1BD0BE
:104460007B681B685A687B681B6842F400625A606C
:104470007B681B685A687B681B6822F460425A603C
:104480007B681B6859687B685B6A013B5A037B68E1
:104490001B680A435A6007E07B681B685A687B68A0
:1044A0001B6822F400625A607B681B68DA6A7B68CA
:1044B0001B6822F47002DA627B681B68D96A7B6829
:1044C000DB69013B1A057B681B680A43DA627B687B
:1044D0001B689A687B681B6822F400729A607B688C
:1044E0001B6899687B6893F830305A027B681B68B8
:1044F0000A439A607B681B689A687B681B6822F491
:1045000080629A607B681B6899687B685B699A0225
:104510007B681B680A439A6000BF1437BD465DF88C
:10452000047B7047002301400100000F80B485B078
:1045300000AF78607B6803F00703FB600C4BDB681F
:10454000BB60BA684FF6FF031340BB60FB681A02FA
:10455000BB68134343F0BF6343F40033BB60044ABA
:10456000BB68D36000BF1437BD465DF8047B70475D
:1045700000ED00E080B400AF044BDB681B0A03F0E1
:1045800007031846BD465DF8047B704700ED00E068
:1045900080B483B000AF0346FB7197F90730002B5E
:1045A0000BDBFB7903F01F02074997F907305B0922
:1045B000012000FA02F241F8232000BF0C37BD466B
:1045C0005DF8047B704700BF00E100E080B483B079
:1045D00000AF03463960FB7197F90730002B0ADB07
:1045E0003B68DAB20C4997F907301201D2B20B449A
:1045F00083F800230AE03B68DAB20849FB7903F04C
:104600000F03043B1201D2B20B441A7600BF0C37E1
:10461000BD465DF8047B704700E100E000ED00E07E
:1046200080B489B000AFF860B9607A60FB6803F0CD
:104630000703FB61FB69C3F10703042B28BF0423B5
:10464000BB61FB690433062B02D9FB69033B00E025
:1046500000237B614FF0FF32BB6902FA03F3DA43B8
:10466000BB681A407B699A404FF0FF317B6901FAC1
:1046700003F3D9437B680B40134318462437BD46E8
:104680005DF8047B704780B582B000AF78607868D1
:10469000FFF74CFF00BF0837BD4680BD80B586B030
:1046A00000AF0346B9607A60FB7300237B61FFF7BC
:1046B00061FF78617A68B9687869FFF7B1FF0246EF
:1046C00097F90F3011461846FFF780FF00BF1837E3
:1046D000BD4680BD80B582B000AF0346FB7197F93F
:1046E00007301846FFF754FF00BF0837BD4680BDAE
:1046F00080B584B000AF78607B689B6DFB60FFF78E
:1047000083FCB8607B6893F83530DBB2022B08D0AD
:104710007B6880225A657B68002283F8342001235D
:1047200052E07B681B681A687B681B6822F01602DF
:104730001A607B681B685A697B681B6822F08002DC
:104740005A617B681B6C002B03D17B689B6C002B30
:1047500007D07B681B681A687B681B6822F0080218
:104760001A607B681B681A687B681B6822F001026C
:104770001A6013E0FFF748FC0246BB68D31A052B0A
:104780000CD97B6820225A657B68032283F8352088
:104790007B68002283F83420032315E07B681B68C4
:1047A0001B6803F00103002BE4D17B68DB6D3F2223
:1047B0009A40FB689A607B68012283F835207B6809
:1047C000002283F83420002318461037BD4680BDF0
:1047D00080B483B000AF78607B6893F83530DBB28B
:1047E000022B04D07B6880225A6501230CE07B6891
:1047F000052283F835207B681B681A687B681B6874
:1048000022F001021A60002318460C37BD465DF8FD
:10481000047B704780B489B000AF786039600023B2
:104820007B6100233B610023BB610023FB616BE1E3
:104830000122FB6902FA03F37B613B681B687A691A
:1048400013403B613A697B699A4240F05A813B6868
:104850005B6803F00303012B05D03B685B6803F042
:104860000303022B30D17B689B68BB61FB695B0053
:10487000032202FA03F3DB43BA691340BB613B68CE
:10488000DA68FB695B0002FA03F3BA691343BB61A0
:104890007B68BA699A607B685B68BB610122FB69CF
:1048A00002FA03F3DB43BA691340BB613B685B6800
:1048B0001B0903F00102FB6902FA03F3BA6913430F
:1048C000BB617B68BA695A603B685B6803F00303AD
:1048D000032B17D07B68DB68BB61FB695B0003229D
:1048E00002FA03F3DB43BA691340BB613B689A6881
:1048F000FB695B0002FA03F3BA691343BB617B688F
:10490000BA69DA603B685B6803F00303022B23D1CA
:10491000FB69DA087B68083253F82230BB61FB6917
:1049200003F007039B000F2202FA03F3DB43BA698B
:104930001340BB613B681A69FB6903F007039B00E6
:1049400002FA03F3BA691343BB61FB69DA087B68B7
:104950000832B96943F822107B681B68BB61FB69A8
:104960005B00032202FA03F3DB43BA691340BB6125
:104970003B685B6803F00302FB695B0002FA03F328
:10498000BA691343BB617B68BA691A603B685B68AC
:1049900003F44033002B00F0B4800023FB60604B35
:1049A0005B6C5F4A43F4804353645D4B5B6C03F480
:1049B0008043FB60FB685B4AFB699B08023352F84B
:1049C0002330BB61FB6903F003039B000F2202FA53
:1049D00003F3DB43BA691340BB617B68524A9342DD
:1049E0002BD07B68514A934225D07B68504A934232
:1049F0001FD07B684F4A934219D07B684E4A93423E
:104A000013D07B684D4A93420DD07B684C4A934249
:104A100007D07B684B4A934201D107230EE008235D
:104A20000CE006230AE0052308E0042306E0032344
:104A300004E0022302E0012300E00023FA6902F00F
:104A4000030292009340BA691343BB613549FB6985
:104A50009B080233BA6941F823203B4B9B68BB613A
:104A60003B69DB43BA691340BB613B685B6803F495
:104A70008013002B03D0BA693B691343BB61324AF0
:104A8000BB699360304BDB68BB613B69DB43BA6950
:104A90001340BB613B685B6803F40013002B03D039
:104AA000BA693B691343BB61274ABB69D360264B94
:104AB0005B68BB613B69DB43BA691340BB613B6820
:104AC0005B6803F40033002B03D0BA693B691343DE
:104AD000BB611D4ABB6953601B4B1B68BB613B69D3
:104AE000DB43BA691340BB613B685B6803F4803306
:104AF000002B03D0BA693B691343BB61124ABB69FF
:104B00001360FB690133FB61FB690F2B7FF690AEED
:104B100000BF00BF2437BD465DF8047B704700BF6F
:104B2000003802400038014000000240000402400A
:104B300000080240000C0240001002400014024035
:104B400000180240001C0240003C014080B483B0C9
:104B500000AF78600B467B8013467B707B78002B20
:104B600003D07A887B689A6103E07B881A047B68AB
:104B70009A6100BF0C37BD465DF8047B70470000AA
:104B800080B584B000AF78607B68002B01D1012331
:104B90002BE17B6893F83D30DBB2002B06D17B68BC
:104BA000002283F83C207868FEF786FE7B6824228A
:104BB00083F83D207B681B681A687B681B6822F0BD
:104BC00001021A607B681B681A687B681B6842F4E4
:104BD00000421A607B681B681A687B681B6822F4B5
:104BE00000421A6001F0E4FBF8607B685B68814A70
:104BF000934207D8FB68804A934294BF0123002365
:104C0000DBB206E0FB687D4A934294BF0123002398
:104C1000DBB2002B01D00123E7E0FB68784AA2FB5E
:104C200003239B0CBB607B681B685B6823F03F0120
:104C30007B681B68BA680A435A607B681B681B6AFA
:104C400023F03F017B685B686A4A934202D8BB68E5
:104C5000013309E0BB684FF4967202FB03F3694A23
:104C6000A2FB03239B0901337A6812680B4313628A
:104C70007B681B68DB6923F44F4222F0FF027B68EC
:104C80005B685C498B4219D8FB68591E7B685B687E
:104C90005B00B1FBF3F3591C40F6FC730B40002B97
:104CA0000AD0FB68591E7B685B685B00B1FBF3F3BD
:104CB0000133C3F30B0351E004234FE07B689B688F
:104CC000002B11D1FB68581E7B6859680B465B00AE
:104CD0000B44B0FBF3F30133C3F30B03002B0CBF06
:104CE00001230023DBB212E0FB68581E7B68596881
:104CF0000B469B000B4499000B44B0FBF3F30133CC
:104D0000C3F30B03002B0CBF01230023DBB2002BEA
:104D100001D0012322E07B689B68002B0ED1FB6849
:104D2000581E7B6859680B465B000B44B0FBF3F3DD
:104D30000133C3F30B0343F400430FE0FB68581E39
:104D40007B6859680B469B000B4499000B44B0FBF1
:104D5000F3F30133C3F30B0343F440437968096869
:104D60001343CB617B681B681B6823F0C0017B6821
:104D7000DA697B681B6A1A437B681B680A431A60FE
:104D80007B681B689B6823F4034323F0FF037A6866
:104D900011697A68D26811437A6812680B4393608C
:104DA0007B681B68DB6823F0FF017B685A697B68BE
:104DB0009B691A437B681B680A43DA607B681B683F
:104DC0001A687B681B6842F001021A607B68002247
:104DD0001A647B68202283F83D207B6800221A63D6
:104DE0007B68002283F83E20002318461037BD461A
:104DF00080BD00BFA08601007F841E00FF083D002B
:104E000083DE1B43D34D621080B588B002AFF860DB
:104E1000084611461A4603467B810B463B811346E2
:104E2000FB80FFF7F1F87861FB6893F83D30DBB267
:104E3000202B40F0D9807B690093192301226D4912
:104E4000F86800F07FFC0346002B01D00223CCE081
:104E5000FB6893F83C30012B01D10223C5E0FB68CD
:104E6000012283F83C20FB681B681B6803F00103E8
:104E7000012B07D0FB681B681A68FB681B6842F0AF
:104E800001021A60FB681B681A68FB681B6822F441
:104E900000621A60FB68212283F83D20FB684022F3
:104EA00083F83E20FB6800221A64FB683A6A5A6263
:104EB000FB68BA8C5A85FB685B8D9AB2FB681A85D1
:104EC000FB684D4ADA62F8883A8979897B690193EF
:104ED000BB6A00930346F86800F0B6FA0346002B5D
:104EE00052D0012381E07A69B96AF86800F000FDC8
:104EF0000346002B0DD0FB681B6C042B07D1FB680D
:104F00001B681A68FB681B6842F400721A60012370
:104F10006BE0FB685B6A1A78FB681B681A61FB68C8
:104F20005B6A5A1CFB685A62FB681B8D013B9AB294
:104F3000FB681A85FB685B8D9BB2013B9AB2FB68EC
:104F40005A85FB681B685B6903F00403042B1BD1C3
:104F5000FB681B8D002B17D0FB685B6A1A78FB6817
:104F60001B681A61FB685B6A5A1CFB685A62FB6823
:104F70001B8D013B9AB2FB681A85FB685B8D9BB267
:104F8000013B9AB2FB685A85FB681B8D002BAAD1A6
:104F90007A69B96AF86800F0ECFC0346002B0DD082
:104FA000FB681B6C042B07D1FB681B681A68FB6845
:104FB0001B6842F400721A60012316E0FB681B684C
:104FC0001A68FB681B6842F400721A60FB682022B2
:104FD00083F83D20FB68002283F83E20FB68002216
:104FE00083F83C20002300E0022318461837BD4612
:104FF00080BD00BF020010000000FFFF80B58CB034
:1050000002AFF860084611461A4603467B810B46FC
:105010003B811346FB80FEF7F7FF7862FB6893F84D
:105020003D30DBB2202B40F008827B6A00931923CD
:1050300001227B49F86800F085FB0346002B01D074
:105040000223FBE1FB6893F83C30012B01D10223E2
:10505000F4E1FB68012283F83C20FB681B681B68B5
:1050600003F00103012B07D0FB681B681A68FB687B
:105070001B6842F001021A60FB681B681A68FB6833
:105080001B6822F400621A60FB68222283F83D202C
:10509000FB68402283F83E20FB6800221A64FB680C
:1050A0003A6B5A62FB68BA8E5A85FB685B8D9AB27E
:1050B000FB681A85FB685B4ADA62F8883A89798965
:1050C0007B6A0193BB6B00930346F86800F052FAC9
:1050D0000346002B01D00123B0E1FB681B8D002BA0
:1050E00013D100233B62FB681B685B693B62FB6872
:1050F0001B689B693B623B6AFB681B681A68FB681C
:105100001B6842F400721A6084E1FB681B8D012B5E
:105110001BD1FB681B681A68FB681B6822F480625D
:105120001A600023FB61FB681B685B69FB61FB681D
:105130001B689B69FB61FB69FB681B681A68FB685D
:105140001B6842F400721A6064E1FB681B8D022B3D
:105150001BD1FB681B681A68FB681B6822F480621D
:105160001A60FB681B681A68FB681B6842F40062DF
:105170001A600023BB61FB681B685B69BB61FB684D
:105180001B689B69BB61BB6944E100237B61FB68D1
:105190001B685B697B61FB681B689B697B617B6942
:1051A00038E1FB681B8D032B00F2F180FB681B8D3F
:1051B000012B23D17A6AB96BF86800F01BFC034617
:1051C000002B01D0012339E1FB681B681A69FB68D9
:1051D0005B6AD2B21A70FB685B6A5A1CFB685A623F
:1051E000FB681B8D013B9AB2FB681A85FB685B8DDF
:1051F0009BB2013B9AB2FB685A850BE1FB681B8DA1
:10520000022B4ED17B6A0093BB6B00220649F868E3
:1052100000F098FA0346002B08D001230EE100BFEE
:10522000020010000000FFFF04000100FB681B6883
:105230001A68FB681B6842F400721A60FB681B68FE
:105240001A69FB685B6AD2B21A70FB685B6A5A1C07
:10525000FB685A62FB681B8D013B9AB2FB681A859A
:10526000FB685B8D9BB2013B9AB2FB685A85FB6879
:105270001B681A69FB685B6AD2B21A70FB685B6ACA
:105280005A1CFB685A62FB681B8D013B9AB2FB6893
:105290001A85FB685B8D9BB2013B9AB2FB685A850D
:1052A000B8E07B6A0093BB6B00226649F86800F0A7
:1052B00049FA0346002B01D00123BFE0FB681B68BD
:1052C0001A68FB681B6822F480621A60FB681B681E
:1052D0001A69FB685B6AD2B21A70FB685B6A5A1C77
:1052E000FB685A62FB681B8D013B9AB2FB681A850A
:1052F000FB685B8D9BB2013B9AB2FB685A857B6A67
:105300000093BB6B00224F49F86800F01BFA03467C
:10531000002B01D0012391E0FB681B681A68FB6831
:105320001B6842F400721A60FB681B681A69FB680C
:105330005B6AD2B21A70FB685B6A5A1CFB685A62DD
:10534000FB681B8D013B9AB2FB681A85FB685B8D7D
:105350009BB2013B9AB2FB685A85FB681B681A69CD
:10536000FB685B6AD2B21A70FB685B6A5A1CFB6806
:105370005A62FB681B8D013B9AB2FB681A85FB6879
:105380005B8D9BB2013B9AB2FB685A8542E07A6A18
:10539000B96BF86800F02EFB0346002B01D0012307
:1053A0004CE0FB681B681A69FB685B6AD2B21A7032
:1053B000FB685B6A5A1CFB685A62FB681B8D013BE9
:1053C0009AB2FB681A85FB685B8D9BB2013B9AB26F
:1053D000FB685A85FB681B685B6903F00403042BB8
:1053E00018D1FB681B681A69FB685B6AD2B21A7035
:1053F000FB685B6A5A1CFB685A62FB681B8D013BA9
:105400009AB2FB681A85FB685B8D9BB2013B9AB22E
:10541000FB685A85FB681B8D002B7FF4C2AEFB68CE
:10542000202283F83D20FB68002283F83E20FB68A1
:10543000002283F83C20002300E00223184628378E
:10544000BD4680BD0400010080B588B002AFF860A1
:10545000084611461A4603467B810B463B8113469C
:10546000FB80FB681B681A68FB681B6842F480724B
:105470001A607B6A00933B6A00224FF00111F868C2
:1054800000F060F90346002B0DD0FB681B681B6819
:1054900003F48073B3F5807F03D1FB684FF400728F
:1054A0001A6403235FE07B89DBB21A46FB681B6842
:1054B00002F0FE021A617B6A3A6A2D49F86800F030
:1054C00098F90346002B01D001234CE000237B61B7
:1054D000FB681B685B697B61FB681B689B697B6180
:1054E0007B697A6A396AF86800F002FA0346002B91
:1054F0000DD0FB681B6C042B07D1FB681B681A6876
:10550000FB681B6842F400721A6001232BE0FB88E1
:10551000012B05D13B89DAB2FB681B681A6121E0D7
:105520003B891B0A9BB2DAB2FB681B681A617A6A74
:10553000396AF86800F0DCF90346002B0DD0FB68EF
:105540001B6C042B07D1FB681B681A68FB681B687F
:1055500042F400721A60012305E03B89DAB2FB686D
:105560001B681A61002318461837BD4680BD00BF6E
:105570000200010080B588B002AFF860084611460D
:105580001A4603467B810B463B811346FB80FB6832
:105590001B681A68FB681B6842F480621A60FB682B
:1055A0001B681A68FB681B6842F480721A607B6A89
:1055B00000933B6A00224FF00111F86800F0C2F836
:1055C0000346002B0DD0FB681B681B6803F4807337
:1055D000B3F5807F03D1FB684FF400721A64032394
:1055E000AAE07B89DBB21A46FB681B6802F0FE0268
:1055F0001A617B6A3A6A5249F86800F0FAF8034681
:10560000002B01D0012397E000237B61FB681B681E
:105610005B697B61FB681B689B697B617B697A6A5C
:10562000396AF86800F064F90346002B0DD0FB6876
:105630001B6C042B07D1FB681B681A68FB681B688E
:1056400042F400721A60012376E0FB88012B05D139
:105650003B89DAB2FB681B681A6121E03B891B0AAF
:105660009BB2DAB2FB681B681A617A6A396AF86819
:1056700000F03EF90346002B0DD0FB681B6C042B99
:1056800007D1FB681B681A68FB681B6842F400724C
:105690001A60012350E03B89DAB2FB681B681A618B
:1056A0007A6A396AF86800F023F90346002B0DD0B6
:1056B000FB681B6C042B07D1FB681B681A68FB682E
:1056C0001B6842F400721A60012335E0FB681B6816
:1056D0001A68FB681B6842F480721A607B6A009348
:1056E0003B6A00224FF00111F86800F02BF80346E6
:1056F000002B0DD0FB681B681B6803F48073B3F5A7
:10570000807F03D1FB684FF400721A64032313E017
:105710007B89DBB243F00103DAB2FB681B681A61D4
:105720007B6A3A6A0649F86800F063F80346002B82
:1057300001D0012300E0002318461837BD4680BD84
:105740000200010080B584B000AFF860B9603B6032
:105750001346FB7125E03B68B3F1FF3F21D0FEF714
:1057600053FC0246BB69D31A3A689A4202D33B689B
:10577000002B16D1FB6800221A63FB68202283F8F5
:105780003D20FB68002283F83E20FB681B6C43F041
:105790002002FB681A64FB68002283F83C20012386
:1057A00023E0BB681B0CDBB2012B0DD1FB681B682F
:1057B0005B69DA43BB6813409BB2002B0CBF01232B
:1057C0000023DBB21A460CE0FB681B689B69DA43D6
:1057D000BB6813409BB2002B0CBF01230023DBB23C
:1057E0001A46FB799A42B6D0002318461037BD46B8
:1057F00080BD80B584B000AFF860B9607A603B606E
:1058000051E0FB681B685B6903F48063B3F5806F4C
:1058100023D1FB681B681A68FB681B6842F400729E
:105820001A60FB681B686FF480625A61FB68002293
:105830001A63FB68202283F83D20FB68002283F86E
:105840003E20FB681B6C43F00402FB681A64FB6893
:10585000002283F83C20012346E07B68B3F1FF3F40
:1058600021D0FEF7D1FB02463B68D31A7A689A42F0
:1058700002D37B68002B16D1FB6800221A63FB68F9
:10588000202283F83D20FB68002283F83E20FB683D
:105890001B6C43F02002FB681A64FB68002283F84B
:1058A0003C20012320E0BB681B0CDBB2012B0CD198
:1058B000FB681B685B69DA43BB6813409BB2002B33
:1058C00014BF01230023DBB20BE0FB681B689B695C
:1058D000DA43BB6813409BB2002B14BF01230023A3
:1058E000DBB2002B8DD1002318461037BD4680BD9A
:1058F00080B584B000AFF860B9607A602DE0F868D8
:1059000000F0CEF80346002B01D001232DE0BB6848
:10591000B3F1FF3F21D0FEF777FB02467B68D31A35
:10592000BA689A4202D3BB68002B16D1FB680022EA
:105930001A63FB68202283F83D20FB68002283F86D
:105940003E20FB681B6C43F02002FB681A64FB6876
:10595000002283F83C20012307E0FB681B685B6999
:1059600003F08003802BCAD1002318461037BD46B0
:1059700080BD80B584B000AFF860B9607A602DE07A
:10598000F86800F08DF80346002B01D001232DE0CC
:10599000BB68B3F1FF3F21D0FEF736FB02467B68C0
:1059A000D31ABA689A4202D3BB68002B16D1FB689F
:1059B00000221A63FB68202283F83D20FB68002246
:1059C00083F83E20FB681B6C43F02002FB681A64DE
:1059D000FB68002283F83C20012307E0FB681B687A
:1059E0005B6903F00403042BCAD100231846103767
:1059F000BD4680BD80B584B000AFF860B9607A6004
:105A000042E0FB681B685B6903F01003102B19D19F
:105A1000FB681B686FF010025A61FB6800221A6372
:105A2000FB68202283F83D20FB68002283F83E209B
:105A3000FB681A6CFB681A64FB68002283F83C2040
:105A4000012329E0FEF7E0FA02467B68D31ABA6820
:105A50009A4202D3BB68002B16D1FB6800221A635E
:105A6000FB68202283F83D20FB68002283F83E205B
:105A7000FB681B6C43F02002FB681A64FB68002281
:105A800083F83C20012307E0FB681B685B6903F097
:105A90004003402BB5D1002318461037BD4680BDCA
:105AA00080B483B000AF78607B681B685B6903F4E7
:105AB0008063B3F5806F1BD17B681B686FF48062D5
:105AC0005A617B6800221A637B68202283F83D209C
:105AD0007B68002283F83E207B681B6C43F0040245
