:020000040800F2
:1000000000000220152C0008112A0008172A0008F9
:100010001D2A0008232A0008292A000800000000E1
:10002000000000000000000000000000B19900087E
:100030002F2A000800000000019C00083976000803
:10004000652C0008652C0008652C0008652C00084C
:10005000652C0008652C0008652C0008652C00083C
:10006000652C0008652C0008652C0008652C00082C
:10007000652C0008652C0008652C0008652C00081C
:10008000652C0008652C0008652C0008652C00080C
:10009000652C0008652C0008652C0008652C0008FC
:1000A000652C0008652C0008652C0008652C0008EC
:1000B000652C0008652C0008652C0008652C0008DC
:1000C000652C0008652C0008652C0008652C0008CC
:1000D000652C0008652C0008652C00083D2A0008E6
:1000E000652C0008652C0008652C0008652C0008AC
:1000F000652C0008652C0008652C0008652C00089C
:10010000652C0008652C0008652C0008652C00088B
:10011000652C0008652C0008512A0008652C000891
:10012000652C0008652C0008652C0008652C00086B
:10013000652C0008652C0008652C0008652C00085B
:10014000652C0008652C0008652C0008652C00084B
:10015000652C0008652C0008652C0008652C00083B
:10016000652C0008652C0008652C0008652C00082B
:10017000652C0008652C0008652C000800000000B4
:08018000652C0008652C000845
:1001900010B5054C237833B9044B13B10448AFF3C1
:1001A00000800123237010BD000200200000000029
:1001B000C0D9000808B5034B1BB103490348AFF38E
:1001C000008008BD0000000004020020C0D9000823
:1001D000034613F8012B002AFBD1181A0138704787
:1001E00001F0FF01102A2BDB10F0070F08D010F8E8
:1001F000013B013A8B422DD010F0070F42B3F6D1EC
:10020000F0B441EA012141EA014122F007047FF004
:1002100000070023F0E80256083C85EA010586EA5B
:10022000010685FA47F5A3FA87F586FA47F6A5FA97
:1002300087F68EB9EED1F0BC01F0FF0102F00702A3
:1002400032B110F8013B013A83EA010313B1F8D14E
:100250000020704701387047002D06BF354603382F
:10026000073815F0010F07D1013015F4807F02BF68
:10027000013015F4C03F0130F0BC0138704700BFB9
:1002800081F0004102E000BF83F0004330B54FEA47
:1002900041044FEA430594EA050F08BF90EA020FB4
:1002A0001FBF54EA000C55EA020C7FEA645C7FEA47
:1002B000655C00F0E2804FEA5454D4EB5555B8BF6A
:1002C0006D420CDD2C4480EA020281EA030382EADB
:1002D000000083EA010180EA020281EA0303362D6D
:1002E00088BF30BD11F0004F4FEA01314FF4801C40
:1002F0004CEA113102D0404261EB410113F0004F52
:100300004FEA03334CEA133302D0524263EB430308
:1003100094EA050F00F0A780A4F10104D5F1200EA6
:100320000DDB02FA0EFC22FA05F2801841F1000101
:1003300003FA0EF2801843FA05F359410EE0A5F1D5
:1003400020050EF1200E012A03FA0EFC28BF4CF006
:10035000020C43FA05F3C01851EBE37101F00045BC
:1003600007D54FF0000EDCF1000C7EEB00006EEBC9
:100370000101B1F5801F1BD3B1F5001F0CD3490853
:100380005FEA30004FEA3C0C04F101044FEA4452AA
:1003900012F5800F80F09A80BCF1004F08BF5FEA31
:1003A000500C50F1000041EB045141EA050130BD11
:1003B0005FEA4C0C404141EB0101013C28BFB1F523
:1003C000801FE9D291F0000F04BF01460020B1FA6E
:1003D00081F308BF2033A3F10B03B3F120020CDA41
:1003E0000C3208DD02F1140CC2F10C0201FA0CF01F
:1003F00021FA02F10CE002F11402D8BFC2F1200C84
:1004000001FA02F120FA0CFCDCBF41EA0C01904039
:10041000E41AA2BF01EB0451294330BD6FEA040482
:100420001F3C1CDA0C340EDC04F11404C4F120026D
:1004300020FA04F001FA02F340EA030021FA04F37F
:1004400045EA030130BDC4F10C04C4F1200220FAD6
:1004500002F001FA04F340EA0300294630BD21FA14
:1004600004F0294630BD94F0000F83F4801306BFDA
:1004700081F480110134013D4EE77FEA645C18BFCE
:100480007FEA655C29D094EA050F08BF90EA020F65
:1004900005D054EA000C04BF1946104630BD91EA5D
:1004A000030F1EBF0021002030BD5FEA545C05D160
:1004B0004000494128BF41F0004130BD14F580049F
:1004C0003CBF01F5801130BD01F0004545F0FE4113
:1004D00041F470014FF0000030BD7FEA645C1ABF48
:1004E000194610467FEA655C1CBF0B46024650EA7F
:1004F000013406BF52EA033591EA030F41F40021AB
:1005000030BD00BF90F0000F04BF0021704730B530
:100510004FF4806404F132044FF000054FF0000105
:1005200050E700BF90F0000F04BF0021704730B5C6
:100530004FF4806404F1320410F0004548BF40429B
:100540004FF000013EE700BF42004FEAE2014FEAF0
:1005500031014FEA02701FBF12F07F4393F07F4FCB
:1005600081F06051704732F07F4208BF704793F0CE
:100570007F4F04BF41F40021704730B54FF46074E1
:1005800001F0004521F000411CE700BF50EA0102E4
:1005900008BF704730B54FF000050AE050EA01028D
:1005A00008BF704730B511F0004502D5404261EBFD
:1005B00041014FF4806404F132045FEA915C3FF43E
:1005C000D8AE4FF003025FEADC0C18BF03325FEADB
:1005D000DC0C18BF033202EBDC02C2F1200300FA8C
:1005E00003FC20FA02F001FA03FE40EA0E0021FAB1
:1005F00002F11444BDE600BF70B54FF0FF0C4CF49F
:10060000E06C1CEA11541DBF1CEA135594EA0C0F50
:1006100095EA0C0F00F0DEF82C4481EA030621EA8B
:100620004C5123EA4C5350EA013518BF52EA0335C6
:1006300041F4801143F4801338D0A0FB02CE4FF078
:100640000005E1FB02E506F00042E0FB03E54FF0A8
:100650000006E1FB03569CF0000F18BF4EF0010EA0
:10066000A4F1FF04B6F5007F64F5407404D25FEA9C
:100670004E0E6D4146EB060642EAC62141EA55514F
:100680004FEAC52040EA5E504FEACE2EB4F1FD0C91
:1006900088BFBCF5E06F1ED8BEF1004F08BF5FEA0F
:1006A000500E50F1000041EB045170BD06F00046C1
:1006B00046EA010140EA020081EA0301B4EB5C046E
:1006C000C2BFD4EB0C0541EA045170BD41F4801166
:1006D0004FF0000E013C00F3AB8014F1360FDEBF8B
:1006E000002001F0004170BDC4F10004203C35DA67
:1006F0000C341BDC04F11404C4F1200500FA05F3EA
:1007000020FA04F001FA05F240EA020001F000428A
:1007100021F0004110EBD37021FA04F642EB060100
:100720005EEA430E08BF20EAD37070BDC4F10C042A
:10073000C4F1200500FA04F320FA05F001FA04F2EE
:1007400040EA020001F0004110EBD37041F10001DA
:100750005EEA430E08BF20EAD37070BDC4F12005E5
:1007600000FA05F24EEA020E20FA04F301FA05F24D
:1007700043EA020321FA04F001F0004121FA04F2F5
:1007800020EA020000EBD3705EEA430E08BF20EAC5
:10079000D37070BD94F0000F0FD101F000464000FF
:1007A00041EB010111F4801F08BF013CF7D041EA81
:1007B000060195F0000F18BF704703F00046520085
:1007C00043EB030313F4801F08BF013DF7D043EA56
:1007D0000603704794EA0C0F0CEA135518BF95EA0C
:1007E0000C0F0CD050EA410618BF52EA4306D1D193
:1007F00081EA030101F000414FF0000070BD50EAB2
:10080000410606BF1046194652EA430619D094EA3B
:100810000C0F02D150EA013613D195EA0C0F05D125
:1008200052EA03361CBF104619460AD181EA030179
:1008300001F0004141F0FE4141F470014FF0000031
:1008400070BD41F0FE4141F4780170BD70B54FF0CC
:10085000FF0C4CF4E06C1CEA11541DBF1CEA13554C
:1008600094EA0C0F95EA0C0F00F0A7F8A4EB05042E
:1008700081EA030E52EA03354FEA013100F0888025
:100880004FEA03334FF0805545EA131343EA1263EE
:100890004FEA022245EA111545EA10654FEA0026A3
:1008A0000EF000419D4208BF964244F1FD0404F55C
:1008B000407402D25B084FEA3202B61A65EB0305B8
:1008C0005B084FEA32024FF480104FF4002CB6EB75
:1008D000020E75EB030E22BFB61A754640EA0C00F5
:1008E0005B084FEA3202B6EB020E75EB030E22BF35
:1008F000B61A754640EA5C005B084FEA3202B6EB76
:10090000020E75EB030E22BFB61A754640EA9C0034
:100910005B084FEA3202B6EB020E75EB030E22BF04
:10092000B61A754640EADC0055EA060E18D04FEAC2
:10093000051545EA16754FEA06164FEAC30343EA62
:1009400052734FEAC2025FEA1C1CC0D111F4801F2F
:100950000BD141EA00014FF000004FF0004CB6E728
:1009600011F4801F04BF01430020B4F1FD0C88BFC7
:10097000BCF5E06F3FF6AFAEB5EB030C04BFB6EBD2
:10098000020C5FEA500C50F1000041EB045170BDC5
:100990000EF0004E4EEA113114EB5C04C2BFD4EBF2
:1009A0000C0541EA045170BD41F480114FF0000E76
:1009B000013C90E645EA060E8DE60CEA135594EAF2
:1009C0000C0F08BF95EA0C0F3FF43BAF94EA0C0FF5
:1009D0000AD150EA01347FF434AF95EA0C0F7FF46A
:1009E00025AF104619462CE795EA0C0F06D152EABE
:1009F00003353FF4FDAE1046194622E750EA4106A2
:100A000018BF52EA43067FF4C5AE50EA41047FF4B2
:100A10000DAF52EA43057FF4EBAE12E74FF0FF3C17
:100A200006E000BF4FF0010C02E000BF4FF0010CE8
:100A30004DF804CD4FEA410C7FEA6C5C4FEA430C61
:100A400018BF7FEA6C5C1BD001B050EA410C0CBFB0
:100A500052EA430C91EA030F02BF90EA020F002012
:100A6000704710F1000F91EA030F58BF994208BF79
:100A700090422CBFD8176FEAE37040F00100704736
:100A80004FEA410C7FEA6C5C02D150EA013C07D18D
:100A90004FEA430C7FEA6C5CD6D152EA033CD3D0D8
:100AA0005DF8040B704700BF8446104662468C46D2
:100AB0001946634600E000BF01B5FFF7B7FF002805
:100AC00048BF10F1000F01BD4DF808EDFFF7F4FF2E
:100AD0000CBF012000205DF808FB00BF4DF808EDB9
:100AE000FFF7EAFF34BF012000205DF808FB00BFDC
:100AF0004DF808EDFFF7E0FF94BF012000205DF8FE
:100B000008FB00BF4DF808EDFFF7CEFF94BF0120B2
:100B100000205DF808FB00BF4DF808EDFFF7C4FFAB
:100B200034BF012000205DF808FB00BF4FEA410CF4
:100B30007FEA6C5C02D150EA013C0AD14FEA430CD7
:100B40007FEA6C5C02D152EA033C02D14FF0000014
:100B500070474FF0010070474FEA410212F5001252
:100B600015D211D56FF47873B3EB625212D94FEAF4
:100B7000C12343F0004343EA505311F0004F23FADE
:100B800002F018BF404270474FF00000704750EA33
:100B9000013005D111F0004008BF6FF000407047F0
:100BA0004FF00000704700BF4FEA4102B2F1E0434E
:100BB00024BFB3F5001CDCF1FE5C0DD901F0004C44
:100BC0004FEAC0024CEA5070B2F1004F40EB830094
:100BD00008BF20F00100704711F0804F21D113F1C0
:100BE0003872BCBF01F00040704741F480114FEAF9
:100BF0005252C2F11802C2F1200C10FA0CF320FA82
:100C000002F018BF40F001004FEAC1234FEAD3239E
:100C100003FA0CFC40EA0C0023FA02F34FEA430308
:100C2000CCE77FEA625307D150EA01331EBF4FF091
:100C3000FE4040F44000704701F0004040F0FE40AC
:100C400040F40000704700BF53B94AB9002908BFFB
:100C500000281CBF4FF0FF314FF0FF3000F074B997
:100C6000ADF1080C6DE904CE00F006F8DDF804E003
:100C7000DDE9022304B070472DE9F047089D0446E2
:100C80008E46002B4DD18A42944669D9B2FA82F23F
:100C900052B101FA02F3C2F1200120FA01F10CFA7B
:100CA00002FC41EA030E94404FEA1C48210CBEFBB3
:100CB000F8F61FFA8CF708FB16E341EA034306FB3C
:100CC00007F199420AD91CEB030306F1FF3080F0CB
:100CD0001F81994240F21C81023E63445B1AA4B218
:100CE000B3FBF8F008FB103344EA034400FB07F7BA
:100CF000A7420AD91CEB040400F1FF3380F00A81FB
:100D0000A74240F207816444023840EA0640E41BEF
:100D100000261DB1D4400023C5E900433146BDE89B
:100D2000F0878B4209D9002D00F0EF800026C5E93D
:100D3000000130463146BDE8F087B3FA83F6002E55
:100D40004AD18B4202D3824200F2F980841A61EBCD
:100D5000030301209E46002DE0D0C5E9004EDDE7EB
:100D600002B9FFDEB2FA82F2002A40F09280A1EBD3
:100D70000C014FEA1C471FFA8CFE0126200CB1FB28
:100D8000F7F307FB131140EA01410EFB03F0884221
:100D900008D91CEB010103F1FF3802D2884200F2AE
:100DA000CB804346091AA4B2B1FBF7F007FB101140
:100DB00044EA01440EFB00FEA64508D91CEB0404DE
:100DC00000F1FF3102D2A64500F2BB800846A4EB39
:100DD0000E0440EA03409CE7C6F12007B34022FA24
:100DE00007FC4CEA030C20FA07F401FA06F31C4353
:100DF000F9404FEA1C4900FA06F3B1FBF9F8200C60
:100E00001FFA8CFE09FB181140EA014108FB0EF0A5
:100E1000884202FA06F20BD91CEB010108F1FF3AF5
:100E200080F08880884240F28580A8F10208614401
:100E3000091AA4B2B1FBF9F009FB101144EA01410F
:100E400000FB0EFE8E4508D91CEB010100F1FF34BA
:100E50006CD28E456AD90238614440EA0840A0FB52
:100E60000294A1EB0E01A142C846A64656D353D028
:100E70005DB1B3EB080261EB0E0101FA07F722FA4C
:100E800006F3F1401F43C5E9007100263146BDE875
:100E9000F087C2F12003D8400CFA02FC21FA03F3D8
:100EA000914001434FEA1C471FFA8CFEB3FBF7F059
:100EB00007FB10360B0C43EA064300FB0EF69E427E
:100EC00004FA02F408D91CEB030300F1FF382FD217
:100ED0009E422DD9023863449B1B89B2B3FBF7F6BF
:100EE00007FB163341EA034106FB0EF38B4208D998
:100EF0001CEB010106F1FF3816D28B4214D9023ED9
:100F00006144C91A46EA004638E72E46284605E7F6
:100F10000646E3E61846F8E64B45A9D2B9EB0208C7
:100F200064EB0C0E0138A3E74646EAE7204694E757
:100F30004046D1E7D0467BE7023B614432E730468A
:100F400009E76444023842E7704700BF80B582B0C9
:100F500000AF01F089FE00F0C5F800F0BBFB00F027
:100F6000E5FA00F03BFA00F09BF900F08BFA00F094
:100F700087FB00F067F900F013F93E4B00221A706E
:100F80003C4B00225A703B4B0C229A7000237B6032
:100F90000CE064233B7000237B80364A7B689B0017
:100FA00013443A685A607B6801337B607B680B2B83
:100FB000EFDD09F031FB032200212F4809F027F96A
:100FC00005222E492E4805F074FB00212D4804F01F
:100FD000C9F904212B4804F0C5F90C212A4804F072
:100FE000C1F93C21294804F02BFB3C21284804F09E
:100FF00027FB01F06FFE03461A46264B1A6301F0E9
:1010000069FE03461A46244B1A6306F02FFB234A57
:101010000021234806F074FB0346224A1360224A4B
:101020000021224806F06CFB0346214A1360214A46
:101030000021214806F064FB0346204A1360204A41
:101040000021204806F05CFB03461F4A13601F4A3C
:1010500000211F4806F054FB03461E4A13601E4A37
:1010600000211E4806F04CFB03461D4A136006F0A3
:1010700021FBFEE71405002064020020000500208B
:10108000D803002090030020B802002000030020B5
:1010900048030020500400208C04002060DA00087F
:1010A000C52200081C04002084DA0008012300087F
:1010B00020040020A8DA0008A92300082404002046
:1010C000CCDA0008FD23000828040020F0DA00082C
:1010D000612400082C04002014DB00086B240008A5
:1010E0003004002080B594B000AF07F12003302217
:1010F0000021184609F071FC07F10C0300221A6068
:101100005A609A60DA601A610023BB60224B1B6C44
:10111000214A43F0805313641F4B1B6C03F0805330
:10112000BB60BB6800237B601C4B1B681B4A43F4FD
:1011300080431360194B1B6803F480437B607B681A
:1011400002233B620123FB6210233B630023BB634A
:1011500007F12003184603F061FB0346002B01D082
:1011600001F09AF90F23FB6000233B6100237B61B0
:101170000023BB610023FB6107F10C03002118462B
:1011800003F0C4FD0346002B01D001F085F900BF38
:101190005037BD4680BD00BF00380240007000409F
:1011A00080B584B000AF3B4600221A605A609A6056
:1011B000DA60214B214A1A601F4B00225A601E4BF5
:1011C00000229A601C4B00221A611B4B00221A76E7
:1011D000194B002283F82020174B0022DA62164BAD
:1011E000174A9A62144B0022DA60134B0122DA612B
:1011F000114B002283F830200F4B01225A610E4818
:1012000001F098FD0346002B01D001F045F90B23B6
:101210003B6001237B600023BB603B4619460648C8
:1012200001F0CCFD0346002B01D001F035F900BFE1
:101230001037BD4680BD00BF1C02002000200140C9
:101240000100000F80B500AF124B134A1A60114B1A
:10125000124A5A600F4B00229A600E4B0022DA604D
:101260000C4B4FF480421A610A4B00225A61094B21
:1012700000229A61074B0022DA61064B00221A62B3
:10128000044802F0E3FA0346002B01D001F004F910
:1012900000BF80BD6402002000540040A086010011
:1012A00080B596B000AF07F1480300221A605A607B
:1012B0009A60DA6007F1400300221A605A6007F171
:1012C000240300221A605A609A60DA601A615A6137
:1012D0009A613B1D20220021184609F07EFB3D4B00
:1012E0003D4A1A603B4BA0225A603A4B00229A605A
:1012F000384B4FF47A72DA60364B00221A61354B64
:1013000000225A61334B80229A61324803F010FF69
:101310000346002B01D001F0BFF84FF48053BB64AB
:1013200007F1480319462B4804F002FC0346002B42
:1013300001D001F0B1F8274803F0BAFF0346002BB3
:1013400001D001F0A9F800233B6400237B6407F17E
:10135000400319461F4804F0EBFF0346002B01D061
:1013600001F09AF860237B620023BB620023FB62DA
:1013700000237B630023BB630023FB6307F124038B
:101380000C221946134804F011FB0346002B01D030
:1013900001F082F800237B600023BB600023FB6028
:1013A00000233B6100237B614FF40053BB610023AA
:1013B0003B623B1D1946074805F036F80346002BF3
:1013C00001D001F069F8034801F01CFA00BF58375A
:1013D000BD4680BDB80200200000014080B58CB041
:1013E00000AF07F10C0324220021184609F0F5FA9A
:1013F0003B1D00221A605A60214B4FF080421A6058
:101400001F4B00225A601E4B00229A601C4B4FF06B
:10141000FF32DA601A4B00221A61194B00229A61DE
:101420000323FB6000233B6101237B610023BB613D
:101430000A23FB6100233B6201237B620023BB6222
:101440000A23FB6207F10C0319460D4804F052F819
:101450000346002B01D001F01FF800237B6000231E
:10146000BB603B1D1946064804F062FF0346002B93
:1014700001D001F011F800BF3037BD4680BD00BF7C
:101480000003002080B58CB000AF07F10C032422CC
:101490000021184609F0A1FA3B1D00221A605A608B
:1014A000204B214A1A601F4B00225A601D4B00221C
:1014B0009A601C4B4FF6FF72DA601A4B00221A61D9
:1014C000184B00229A610323FB6000233B61012338
:1014D0007B610023BB610A23FB6100233B62012384
:1014E0007B620023BB620A23FB6207F10C031946EF
:1014F0000C4803F0FFFF0346002B01D000F0CCFFA7
:1015000000237B600023BB603B1D1946054804F0A7
:101510000FFF0346002B01D000F0BEFF00BF3037A5
:10152000BD4680BD480300200004004080B596B051
:1015300000AF07F1480300221A605A609A60DA602F
:1015400007F1400300221A605A6007F124030022C9
:101550001A605A609A60DA601A615A619A613B1D9A
:1015600020220021184609F038FA434B434A1A60FA
:10157000414B00225A60404B00229A603E4B41F69C
:101580001F42DA603C4B00221A613B4B00225A6139
:10159000394B00229A61384803F0CAFD0346002BFC
:1015A00001D000F079FF4FF48053BB6407F148038A
:1015B0001946314804F0BCFA0346002B01D000F074
:1015C0006BFF2D4803F074FE0346002B01D000F0A2
:1015D00063FF00233B6400237B6407F1400319464B
:1015E000254804F0A5FE0346002B01D000F054FF6F
:1015F00060237B620023BB620023FB6200233B630A
:1016000000237B630023BB630023FB6307F12403F8
:1016100000221946184804F0C9F90346002B01D0EE
:1016200000F03AFF07F1240304221946124804F09F
:10163000BDF90346002B01D000F02EFF00237B6094
:101640000023BB600023FB6000233B6100237B6120
:101650004FF40053BB6100233B623B1D1946064813
:1016600004F0E2FE0346002B01D000F015FF00BF9E
:101670005837BD4680BD00BF9003002000040140E4
:1016800080B500AF114B124A1A60104B4FF4E13293
:101690005A600E4B00229A600C4B0022DA600B4B12
:1016A00000221A61094B0C225A61084B00229A61F0
:1016B000064B0022DA61054804F01CFF0346002BAC
:1016C00001D000F0E9FE00BF80BD00BFD8030020BC
:1016D0000048004080B58AB000AF07F11403002233
:1016E0001A605A609A60DA601A6100233B613B4BD2
:1016F0001B6B3A4A43F010031363384B1B6B03F028
:1017000010033B613B690023FB60344B1B6B334A86
:1017100043F004031363314B1B6B03F00403FB60C2
:10172000FB680023BB602D4B1B6B2C4A43F001036D
:1017300013632A4B1B6B03F00103BB60BB680023E0
:101740007B60264B1B6B254A43F002031363234B3C
:101750001B6B03F002037B607B6800224FF4BC61CB
:101760001F4802F059F800223C211E4802F054F8AC
:1017700000224FF480611C4802F04EF84FF4BC6325
:101780007B610123BB610023FB6100233B6207F106
:1017900014031946124801F0A3FE3C237B61012388
:1017A000BB610023FB6102233B6207F1140319466E
:1017B0000C4801F095FE4FF480637B610123BB610F
:1017C0000023FB6100233B6207F11403194606481E
:1017D00001F086FE00BF2837BD4680BD00380240BC
:1017E00000100240000002400004024080B582B0B8
:1017F00000AF7860244B1B78532B14D1224B5B78BD
:10180000542B10D100F052FD204B00221A702048BA
:1018100000F0B2FC0346002B20D01E4800F010FD63
:1018200000F02CFD1AE0184B1B78462B09D1164B03
:101830005B78572B05D100220121154800F0AFFC41
:101840000CE0114B1B78422B08D10F4B5B78572BC8
:1018500004D1002202210E4800F0A1FC0C4800F047
:101860008BFC0346002B03D10A49094800F0C0FC59
:10187000094B1B685B6805220349074804F019FF00
:1018800000BF0837BD4680BD000500204805002088
:101890001405002018000020D803002080B582B075
:1018A00000AF0346FB71FB79002B14D0002204210A
:1018B000154801F0B1FF01220821134801F0ACFFE7
:1018C00000222021104801F0A7FF012210210E481C
:1018D00001F0A2FF13E0012204210B4801F09CFF5C
:1018E00000220821084801F097FF01222021064824
:1018F00001F092FF00221021034801F08DFF00BF8C
:101900000837BD4680BD00BF0000024080B487B0EC
:1019100000AFF860B9607A6000237B617B68002BC0
:101920000BD0214B1B681B6803F01003102B0CBF5E
:1019300001230023DBB23B610AE01C4B1B681B68E0
:1019400003F01003102B0CBF01230023DBB23B611B
:101950003B69002B10D0BA68FB689A4204DAFA6837
:10196000BB68D31A7B6117E0BB68C3F57F43FF33C5
:10197000FA6813447B610FE0BA68FB689A4204DDA1
:10198000BA68FB68D31A7B6106E0FB68C3F57F4346
:10199000FF33BA6813447B617B6918461C37BD4628
:1019A0005DF8047B704700BF00030020480300205F
:1019B00080B582B000AF87ED010A38607868FEF725
:1019C000C3FD09A3D3E90023FEF740FF02460B46FF
:1019D00010461946FFF7C0F802463B681A6000BF80
:1019E0000837BD4680BD00BF1E82BD9CEC79213FFB
:1019F00080B588B000AFF860B9607A6000237B6181
:101A00000023FB610023BB61264B1B685B6A1A46FF
:101A1000BB685A60244B1B685B6A1A467B685A6035
:101A2000BB685A68BB681B689A4208D0BB681868D4
:101A3000BB685B6801221946FFF768FFB8617B68E5
:101A40005A687B681B689A4208D07B6818687B6874
:101A50005B6800221946FFF759FFF861BB694FF632
:101A6000E752934211DCFB694FF6E75293420CDCDC
:101A7000BA69FB691344DA0F13445B107B61FB689E
:101A80005A687B691A44FB685A60BB685A68BB682D
:101A90001A607B685A687B681A6000BF2037BD46B1
:101AA00080BD00BF000300204803002080B582B045
:101AB00000AF786087ED000A134A7B685361134AD0
:101AC0007B685361124897ED000AFFF771FF114BD5
:101AD0001B685B6A1A460C4B5A600F4B1B685B6AAB
:101AE0001A460A4B5A600B4B1B685B6A1A460B4B33
:101AF0001A60094B1B685B6A1A46094B1A6000BFE3
:101B00000837BD4680BD00BF500400208C04002073
:101B10004404002000030020480300203404002077
:101B20003C04002080B500AF1A4B1B6800225A63AA
:101B3000184B1B6800229A63174B18463C231A4621
:101B4000002108F04AFF154B18463C231A46002195
:101B500008F043FF124B1A46002313605360114BE9
:101B60001A460023136053600F4B1A46002313607C
:101B7000536093600D4B18462C231A46002108F041
:101B80002CFF0B4B4FF000021A600A4B00221A8008
:101B900000BF80BD90030020500400208C04002072
:101BA000340400203C04002044040020C804002029
:101BB000F8040020FC04002080B586B000AFF86077
:101BC000B9607A6000237B6100233B61BB685B697D
:101BD000002B00F0C380BB68624A934208D1012306
:101BE0003B61614B1B685B6A1A46BB681A6009E07F
:101BF000BB685E4A934205D15D4B1B685B6A1A461F
:101C0000BB681A60BB681A68BB685B689A4208D0F8
:101C1000BB685868BB681B683A691946FFF776FECF
:101C200078617B694FF6E75293420CDC7A69134680
:101C30001B019B1A9B004F4A82FB0312D211DB1738
:101C4000D21ABB681A61BB681B6942F6F82293423C
:101C500002DDBB6800221A61BB685A69BB681B6958
:101C6000D21ABB68DA6101F035F803461A46BB6840
:101C70005A63BB685A6BBB681B6BD21ABB689A630A
:101C8000BB685A6BBB681A63BB681A6ABB68DB69BE
:101C9000B968896B01FB03F31A44BB681A62BB681D
:101CA000DA69BB685B6AD21ABB689A62BB68DA6998
:101CB000BB685A62BB689A6ABB689B6B92FBF3F382
:101CC00007EE903AF8EEE77ABB68C3ED0B7ABB6893
:101CD000DB6907EE903AB8EEE77AFB68D3ED007A5D
:101CE00027EE277ABB681B6A07EE903AF8EEE76AA0
:101CF000FB68D3ED017A66EEA77A37EE277ABB68E8
:101D0000D3ED0B6AFB68D3ED027A66EEA77A77EE25
:101D1000277AFDEEE77A17EE902ABB689A60BB68D7
:101D2000DA68BB689B681A44BB68DA60BB68DB682A
:101D300041F65832934204DDBB6841F65832DA600E
:101D400007E0BB68DB68002B03DABB684FF4FA726C
:101D5000DA60BB681A68BB685A6000E000BF1837D9
:101D6000BD4680BD50040020000300208C040020EC
:101D70004803002035064C6380B584B000AFF8609E
:101D8000B9607A607B68002B0BD0BB6893ED017A59
:101D9000BB68D3ED027A77EE677ABB68C3ED037A4E
:101DA0000AE0BB6893ED027ABB68D3ED017A77EE67
:101DB000677ABB68C3ED037A00F08CFF03461A46CE
:101DC000BB685A62BB685A6ABB681B6AD21ABB6896
:101DD0009A62BB685A6ABB681A62BB6893ED047A60
:101DE000BB68D3ED036ABB689B6A07EE903AF8EED6
:101DF000E77A66EEA77A77EE277ABB68C3ED047AB6
:101E0000BB6893ED037ABB68D3ED057A77EE677A0A
:101E1000BB68C3ED067ABB68DA68BB685A61BB6809
:101E2000D3ED066ABB689B6A07EE903AB8EEE77A94
:101E3000C6EE877ABB68C3ED077ABB6893ED037A79
:101E4000FB68D3ED007A27EE277ABB68D3ED046AEE
:101E5000FB68D3ED017A66EEA77A37EE277ABB6886
:101E6000D3ED076AFB68D3ED027A66EEA77A77EEC8
:101E7000277AFDEEE77AF8EEE77ABB68C3ED007AE1
:101E8000BB68D3ED007A9FED0E7AF4EEC77AF1EEDF
:101E900010FA03DDBB680B4A1A600DE0BB68D3ED96
:101EA000007A9FED097AF4EEC77AF1EE10FA00D4C9
:101EB00002E0BB68054A1A6000BF1037BD4680BD0E
:101EC0000000964200009642000090C2000090C2BE
:101ED00080B586B004AF78604FF6FF73029302239B
:101EE00001930B4B009301233722D021094801F0C5
:101EF000EBFE074B1B781B021AB2054B5B781BB23B
:101F000013431AB27B681A8000BF0837BD4680BDF4
:101F1000F404002064020020B0B584B000AF786003
:101F2000A023FB600023BB604948FFF7D1FF494B6A
:101F30001B681846FEF708FB04460D46444BB3F9F0
:101F400000301846FEF7EEFA3DA3D3E90023FEF772
:101F50007DFC02460B46104619463BA3D3E90023FD
:101F6000FEF74AFB02460B4620462946FEF78EF94D
:101F700002460B4610461946FEF716FE0346354A42
:101F80001360354B4FF000029A60324B1B68324AA7
:101F90005360314BD3ED037AF5EEC07AF1EE10FACF
:101FA0000ADB2D4BD3ED017AF5EEC07AF1EE10FA93
:101FB00002D56FF01303BB607A6827492748FFF703
:101FC000DBFE254BD3ED007A9FED257A77EE877AFD
:101FD0009FED247A27EE877ADFED236AC7EE267A13
:101FE0009FED227A77EE877A17EE900AFEF7ACFA29
:101FF00002460B4643EC102B0BF09CFC53EC102BD1
:1020000010461946FEF7A8FD0346FB60FA68BB6858
:102010001344FB60FB68F02B02DDF023FB6004E05F
:10202000FB684D2B01DC4E23FB60114B1B68FA68EB
:102030001A6400BF1037BD46B0BD00BFAFF30080CB
:1020400066666666666630407B14AE47E17A843F1A
:10205000FC040020F8040020C80400200C0000202C
:1020600000009042000022430000134300009C4205
:10207000B802002080B586B000AFF86087ED020A94
:10208000796000F027FE786100F024FE386100F0EE
:1020900021FE0346304A93607B68DBB21846FFF7A7
:1020A000FDFB97ED020AF868FFF700FD2B4B1B685C
:1020B0008C221A64294B1B68A0221A6400F00AFEC5
:1020C00002463B69D31A092B05D97868FFF724FF2C
:1020D00000F000FE386100F0FDFD02461E4B9B68DB
:1020E000D31A312B13D91E4A1E491B48FFF780FC17
:1020F000194B5A68184B1B68B43B9A4202DBFFF736
:1021000011FD24E000F0E6FD0346134A936000F061
:10211000E1FD02467B69D31AB3F57A7FCED3114A2B
:1021200011491248FFF748FD0D4A11490F48FFF7C2
:1021300043FD0D4BDA680F4B1B685A630C4BDA6892
:102140000C4B1B689A6300F0C5FD7861B6E700BFD1
:102150001837BD4680BD00BF44040020B8020020EF
:102160003C04002034040020500400200000002023
:102170008C0400209003002080B483B000AF78600E
:102180007B681A787B685B789A4201D1012300E072
:10219000002318460C37BD465DF8047B704780B4B9
:1021A00083B000AF78600B46FB7013463B807B68C2
:1021B0001B787A689B001344FA781A717B681B7845
:1021C0007A689B0013443A88DA807B681B78013375
:1021D0007A68927893FBF2F101FB02F29B1ADAB271
:1021E0007B681A7000BF0C37BD465DF8047B7047F2
:1021F00080B483B000AF786039607B685B787A68C0
:102200009B0013441A793B681A707B685B787A6884
:102210009B001344DA883B685A807B685B78013303
:102220007A68927893FBF2F101FB02F29B1ADAB220
:102230007B685A7000BF0C37BD465DF8047B704761
:1022400080B483B000AF78607B6864221A707B68CA
:1022500000225A8000BF0C37BD465DF8047B7047F2
:1022600080B483B000AF78607B6863221A7000BFCF
:102270000C37BD465DF8047B7047000080B584B024
:1022800000AF3B1D0749184609F028F9391D4FF6E4
:10229000FF730A22044804F07AF900BF1037BD46E4
:1022A00080BD00BF28DA0008D803002080B400AF4A
:1022B000034B07221A7000BFBD465DF8047B7047D0
:1022C0001C00002080B582B000AF78600B4B1B680B
:1022D0008C221A64094B1B68A0221A640121B0EEFB
:1022E000000A4FF4C870FFF7C5FE0021B0EE000AE7
:1022F0004FF4C870FFF7BEFEFEE700BFB802002033
:10230000B0B58CB000AF7860214B5B681846FEF723
:102310001BF904460D4607F108031946052045EC54
:10232000104B08F005FA07F1080207F11C031949E0
:10233000184609F0D3F807F11C031A460A210A20AF
:1023400008F038F9144BB3F900301A4607F11C03B2
:102350001249184609F0C2F807F11C031A46142165
:102360000A2008F027F907F11C030D4A0D49184609
:1023700009F0B4F807F11C031A461E210A2008F0E0
:1023800019F907F0A3FF642005F04CFABCE700BF81
:10239000C80400202CDA0008FC04002034DA00080D
:1023A000000500203CDA000880B582B000AF7860FC
:1023B0000F4B1B78022B02DC002B03DC14E0632B99
:1023C00011D011E00A4B1B78012B14BF012300230D
:1023D000DBB21A46074B1A70074B01221A700448E9
:1023E000FFF73EFF00E000BF642005F01BFADFE7C7
:1023F000180000201C0000204805002080B584B093
:1024000000AF7860134B1B78002B08D0114B1B7862
:10241000012B04D04FF47A7005F004FA19E00E4B4A
:102420001B78002BEED00D48FFF70AFF094B1B78F5
:10243000002B0CBF01230023DBB2FB60F968B7EE71
:10244000000A4FF49670FFF715FEFFF717FFFFF72E
:102450002DFFD7E71C0000204805002018000020B1
:1024600080B483B000AF7860FEE780B483B000AF83
:102470007860FEE780B582B000AF78607B681B684B
:10248000044A934201D100F011FC00BF0837BD4659
:1024900080BD00BF0010004080B400AF72B600BF26
:1024A000FEE7000080B582B000AF00237B60124BD6
:1024B0005B6C114A43F4804353640F4B5B6C03F431
:1024C00080437B607B6800233B600B4B1B6C0A4A9C
:1024D00043F080531364084B1B6C03F080533B6044
:1024E0003B6800220F216FF0010000F03DFF00BFAC
:1024F0000837BD4680BD00BF0038024080B58AB0B5
:1025000000AF786007F1140300221A605A609A60E5
:10251000DA601A617B681B68174A934227D100234F
:102520003B61164B5B6C154A43F480735364134B49
:102530005B6C03F480733B613B690023FB600F4BD2
:102540001B6B0E4A43F0040313630C4B1B6B03F02D
:102550000403FB60FB6802237B610323BB61002350
:10256000FB6107F114031946054800F0B9FF00BFED
:102570002837BD4680BD00BF002001400038024022
:102580000008024080B58AB000AF786007F11403FC
:1025900000221A605A609A60DA601A617B681B68D0
:1025A000194A93422CD100233B61184B1B6B174AED
:1025B00043F002031363154B1B6B03F002033B61F3
:1025C0003B694FF440737B611223BB610023FB61C5
:1025D00003233B6204237B6207F1140319460C4872
:1025E00000F07EFF0023FB60084B1B6C074A43F49E
:1025F00000131364054B1B6C03F40013FB60FB68B2
:1026000000BF2837BD4680BD00540040003802405E
:102610000004024080B58AB000AF786007F114036F
:1026200000221A605A609A60DA601A617B681B683F
:10263000234A93420ED100233B61224B5B6C214A1B
:1026400043F0010353641F4B5B6C03F001033B61D8
:102650003B6930E07B681B681B4A93422BD1002307
:10266000FB60184B5B6C174A43F002035364154B35
:102670005B6C03F00203FB60FB680023BB60114B43
:102680001B6B104A43F0040313630E4B1B6B03F0E8
:102690000403BB60BB68C0237B610223BB610023D2
:1026A000FB6100233B6203237B6207F1140319469D
:1026B000064800F015FF00BF2837BD4680BD00BFAB
:1026C00000000140003802400004014000080240C0
:1026D00080B58CB000AF786007F11C0300221A604F
:1026E0005A609A60DA601A617B681B68B3F1804FA8
:1026F0004BD10023BB613F4B1B6C3E4A43F00103AF
:1027000013643C4B1B6C03F00103BB61BB690023EA
:102710007B61384B1B6B374A43F001031363354B26
:102720001B6B03F001037B617B6900233B61314B31
:102730001B6B304A43F0020313632E4B1B6B03F0F9
:1027400002033B613B694FF40043FB6102233B62A0
:1027500000237B620023BB620123FB6207F11C03A1
:102760001946254800F0BCFE0823FB6102233B62AA
:1027700000237B620023BB620123FB6207F11C0381
:1027800019461E4800F0ACFE30E07B681B681C4A0E
:1027900093422BD10023FB60164B1B6C154A43F070
:1027A00002031364134B1B6C03F00203FB60FB6812
:1027B0000023BB600F4B1B6B0E4A43F001031363F6
:1027C0000C4B1B6B03F00103BB60BB68C023FB61B8
:1027D00002233B6200237B620023BB620223FB6275
:1027E00007F11C031946044800F07AFE00BF303799
:1027F000BD4680BD00380240000002400004024097
:102800000004004080B588B000AF786007F10C0389
:1028100000221A605A609A60DA601A617B681B684D
:10282000124A93421ED10023BB60114B1B6B104A0E
:1028300043F0100313630E4B1B6B03F01003BB60DC
:10284000BB684FF48043FB6002233B6100237B6144
:102850000023BB610123FB6107F10C031946054806
:1028600000F03EFE00BF2037BD4680BD00000140A5
:10287000003802400010024080B58AB000AF786096
:1028800007F1140300221A605A609A60DA601A6134
:102890007B681B681D4A934234D100233B611C4B6B
:1028A0001B6C1B4A43F480231364194B1B6C03F409
:1028B00080233B613B690023FB60154B1B6B144A73
:1028C00043F004031363124B1B6B03F00403FB6020
:1028D000FB684FF440637B610223BB610023FB6113
:1028E00003233B6207237B6207F11403194609485F
:1028F00000F0F6FD00220521272000F035FD2720FD
:1029000000F04EFD00BF2837BD4680BD00480040A6
:10291000003802400008024080B58EB000AF7860F9
:102920000023FB620023BB620023FB60334B1B6C64
:10293000324A43F010031364304B1B6C03F0100356
:10294000FB60FB6807F1100207F1140311461846FB
:1029500002F0BCFB3B6AFB62FB6A002B03D102F076
:102960008DFB786304E002F089FB03465B007B6328
:102970007B6B234AA2FB03239B0C013BBB62214BD5
:10298000214A1A601F4B40F2E732DA601D4ABB6AE7
:1029900053601C4B00221A611A4B00229A60194B9B
:1029A00000229A61174802F0C3FB034687F83330D0
:1029B00097F83330002B1BD1124802F009FC034674
:1029C00087F8333097F83330002B11D1362000F0E0
:1029D000E7FC7B680F2B08D800227968362000F0CE
:1029E000C3FC0A4A7B68136002E0012387F8333096
:1029F00097F8333018463837BD4680BD003802405E
:102A000083DE1B434C050020001000402400002002
:102A100080B400AFFEE780B400AFFEE780B400AF43
:102A2000FEE780B400AFFEE780B400AFFEE780B4FD
:102A300000AF00BFBD465DF8047B704780B500AFB6
:102A4000024803F067FE00BF80BD00BFD80300202E
:102A500080B500AF024802F0A1FE00BF80BD00BFFC
:102A60004C05002080B400AF01231846BD465DF838
:102A7000047B704780B582B000AF7860396007F0A2
:102A80007BFE034616221A604FF0FF3318460837C4
:102A9000BD4680BD80B582B000AF78604FF0FF3199
:102AA0007868FFF7E7FFFEE780B586B000AFF86013
:102AB000B9607A6000237B610AE0AFF300800146D1
:102AC000BB685A1CBA60CAB21A707B6901337B6159
:102AD0007A697B689A42F0DB7B6818461837BD46F6
:102AE00080BD80B586B000AFF860B9607A60002321
:102AF0007B6109E0BB685A1CBA601B781846AFF3CB
:102B000000807B6901337B617A697B689A42F1DBE3
:102B10007B6818461837BD4680BD80B483B000AFCF
:102B200078604FF0FF3318460C37BD465DF8047BE4
:102B3000704780B483B000AF786039603B684FF471
:102B400000525A60002318460C37BD465DF8047BDE
:102B5000704780B483B000AF7860012318460C370B
:102B6000BD465DF8047B704780B485B000AFF86067
:102B7000B9607A60002318461437BD465DF8047BBF
:102B80007047000080B586B000AF7860144A154BDE
:102B9000D31A7B617B693B61134B1B68002B02D10D
:102BA000114B124A1A60104B1A687B6813443A6939
:102BB0009A4207D207F0E0FD03460C221A604FF05C
:102BC000FF3309E0084B1B68FB60074B1A687B6802
:102BD0001344054A1360FB6818461837BD4680BD8C
:102BE000000002200004000094050020C0530020D3
:102BF00080B400AF064BD3F88830054A43F4700325
:102C0000C2F8883000BFBD465DF8047B704700BF46
:102C100000ED00E0DFF834D00D480E490E4A0023E5
:102C200002E0D458C4500433C4188C42F9D30B4A80
:102C30000B4C002301E013600432A242FBD3FFF7E8
:102C4000D7FF07F095FEFEF781F9704700000220DC
:102C500000000020000200209CE900080002002083
:102C6000BC530020FEE7000080B500AF0E4B1B6890
:102C70000D4A43F4007313600B4B1B680A4A43F47C
:102C800080631360084B1B68074A43F4807313602A
:102C9000032000F05EFB0F20FFF73EFEFFF702FC73
:102CA0000023184680BD00BF003C024080B400AF46
:102CB000064B1B781A46064B1B681344044A1360E4
:102CC00000BFBD465DF8047B704700BF28000020B0
:102CD0009805002080B400AF034B1B681846BD4622
:102CE0005DF8047B704700BF9805002080B584B074
:102CF00000AF7860FFF7EEFFB8607B68FB60FB68B1
:102D0000B3F1FF3F05D00A4B1B781A46FB6813440A
:102D1000FB6000BFFFF7DEFF0246BB68D31AFA680C
:102D20009A42F7D800BF00BF1037BD4680BD00BF34
:102D30002800002080B584B000AF78600023FB73CA
:102D40007B68002B01D1012333E07B681B6C002BD7
:102D500009D17868FFF7D2FB7B6800225A647B6850
:102D6000002283F83C207B681B6C03F01003002BCF
:102D700018D17B681B6C23F4885323F0020343F0C3
:102D800002027B681A64786800F03AF97B680022D6
:102D90005A647B681B6C23F0030343F001027B68D9
:102DA0001A6401E00123FB737B68002283F83C2056
:102DB000FB7B18461037BD4680BD000080B485B04F
:102DC00000AF786039600023BB607B6893F83C30CB
:102DD000012B01D1022305E17B68012283F83C200D
:102DE0003B681B68092B25D97B681B68D9683B6841
:102DF0001B689BB21A4613465B0013441E3B072216
:102E000002FA03F3DA437B681B680A40DA607B68E6
:102E10001B68D9683B689A683B681B689BB2184678
:102E200003465B0003441E3B9A407B681B680A43D1
:102E3000DA6022E07B681B6819693B681B689BB2FB
:102E40001A4613465B001344072202FA03F3DA43DF
:102E50007B681B680A401A617B681B6819693B68BC
:102E60009A683B681B689BB2184603465B000344A4
:102E70009A407B681B680A431A613B685B68062BB3
:102E800024D87B681B68596B3B685A6813469B00C3
:102E90001344053B1F2202FA03F3DA437B681B68E5
:102EA0000A405A637B681B68596B3B681B689BB27E
:102EB00018463B685A6813469B001344053B00FACA
:102EC00003F27B681B680A435A634CE03B685B680B
:102ED0000C2B24D87B681B68196B3B685A68134617
:102EE0009B001344233B1F2202FA03F3DA437B685F
:102EF0001B680A401A637B681B68196B3B681B6878
:102F00009BB218463B685A6813469B001344233B08
:102F100000FA03F27B681B680A431A6323E07B68AC
:102F20001B68D96A3B685A6813469B001344413BAF
:102F30001F2202FA03F3DA437B681B680A40DA6255
:102F40007B681B68D96A3B681B689BB218463B6864
:102F50005A6813469B001344413B00FA03F27B6816
:102F60001B680A43DA62224BFB607B681B68214ABC
:102F7000934209D13B681B68122B05D1FB685B6843
:102F800043F48002FB685A607B681B68194A9342CD
:102F900023D13B681B68102B03D03B681B68112BA7
:102FA0001BD1FB685B6843F40002FB685A603B6816
:102FB0001B68102B11D1104B1B68104AA2FB032376
:102FC0009A0C13469B0013445B00BB6002E0BB6895
:102FD000013BBB60BB68002BF9D17B68002283F802
:102FE0003C20002318461437BD465DF8047B70472B
:102FF00000230140002001402000002083DE1B430D
:1030000080B485B000AF7860794BFB60FB685B688B
:1030100023F44032FB685A60FB685A687B685B683F
:103020001A43FB685A607B681B685A687B681B6898
:1030300022F480725A607B681B6859687B681B6940
:103040001A027B681B680A435A607B681B685A68CF
:103050007B681B6822F040725A607B681B68596865
:103060007B689A687B681B680A435A607B681B68A8
:103070009A687B681B6822F400629A607B681B6810
:1030800099687B68DA687B681B680A439A607B688A
:103090009B6A584A934222D07B681B689A687B6877
:1030A0001B6822F070629A607B681B6899687B6875
:1030B0009A6A7B681B680A439A607B681B689A68F7
:1030C0007B681B6822F040529A607B681B68996895
:1030D0007B68DA6A7B681B680A439A600FE07B684A
:1030E0001B689A687B681B6822F070629A607B6834
:1030F0001B689A687B681B6822F040529A607B6864
:103100001B689A687B681B6822F002029A607B68E1
:103110001B6899687B681B7E5A007B681B680A43A2
:103120009A607B6893F82030002B1BD07B681B686B
:103130005A687B681B6842F400625A607B681B68AF
:103140005A687B681B6822F460425A607B681B687F
:1031500059687B685B6A013B5A037B681B680A43BA
:103160005A6007E07B681B685A687B681B6822F41A
:1031700000625A607B681B68DA6A7B681B6822F40D
:103180007002DA627B681B68D96A7B68DB69013B85
:103190001A057B681B680A43DA627B681B689A68B9
:1031A0007B681B6822F400729A607B681B689968D0
:1031B0007B6893F830305A027B681B680A439A6038
:1031C0007B681B689A687B681B6822F480629A603F
:1031D0007B681B6899687B685B699A027B681B68DF
:1031E0000A439A6000BF1437BD465DF8047B704700
:1031F000002301400100000F80B485B000AF78606B
:103200007B6803F00703FB600C4BDB68BB60BA68AC
:103210004FF6FF031340BB60FB681A02BB68134301
:1032200043F0BF6343F40033BB60044ABB68D36020
:1032300000BF1437BD465DF8047B704700ED00E029
:1032400080B400AF044BDB681B0A03F00703184689
:10325000BD465DF8047B704700ED00E080B483B0AC
:1032600000AF0346FB7197F90730002B0BDBFB79AE
:1032700003F01F02074997F907305B09012000FAA4
:1032800002F241F8232000BF0C37BD465DF8047BF5
:10329000704700BF00E100E080B483B000AF034698
:1032A0003960FB7197F90730002B0ADB3B68DAB213
:1032B0000C4997F907301201D2B20B4483F800236E
:1032C0000AE03B68DAB20849FB7903F00F03043BDC
:1032D0001201D2B20B441A7600BF0C37BD465DF81E
:1032E000047B704700E100E000ED00E080B489B0AD
:1032F00000AFF860B9607A60FB6803F00703FB6118
:10330000FB69C3F10703042B28BF0423BB61FB69DE
:103310000433062B02D9FB69033B00E000237B61E9
:103320004FF0FF32BB6902FA03F3DA43BB681A407D
:103330007B699A404FF0FF317B6901FA03F3D9436F
:103340007B680B40134318462437BD465DF8047B69
:10335000704780B582B000AF78607868FFF74CFFA7
:1033600000BF0837BD4680BD80B586B000AF0346BC
:10337000B9607A60FB7300237B61FFF761FF7861BE
:103380007A68B9687869FFF7B1FF024697F90F309C
:1033900011461846FFF780FF00BF1837BD4680BDB5
:1033A00080B582B000AF0346FB7197F9073018462D
:1033B000FFF754FF00BF0837BD4680BD80B584B01D
:1033C00000AF78607B689B6DFB60FFF783FCB860A3
:1033D0007B6893F83530DBB2022B08D07B68802203
:1033E0005A657B68002283F83420012352E07B6811
:1033F0001B681A687B681B6822F016021A607B68DB
:103400001B685A697B681B6822F080025A617B68DE
:103410001B6C002B03D17B689B6C002B07D07B6857
:103420001B681A687B681B6822F008021A607B68B8
:103430001B681A687B681B6822F001021A6013E09F
:10344000FFF748FC0246BB68D31A052B0CD97B68F2
:1034500020225A657B68032283F835207B6800228E
:1034600083F83420032315E07B681B681B6803F096
:103470000103002BE4D17B68DB6D3F229A40FB689F
:103480009A607B68012283F835207B68002283F8EC
:103490003420002318461037BD4680BD80B483B069
:1034A00000AF78607B6893F83530DBB2022B04D034
:1034B0007B6880225A6501230CE07B68052283F833
:1034C00035207B681B681A687B681B6822F0010244
:1034D0001A60002318460C37BD465DF8047B704720
:1034E00080B489B000AF7860396000237B6100232D
:1034F0003B610023BB610023FB616BE10122FB699F
:1035000002FA03F37B613B681B687A6913403B61F5
:103510003A697B699A4240F05A813B685B6803F0E4
:103520000303012B05D03B685B6803F00303022B08
:1035300030D17B689B68BB61FB695B00032202FAA8
:1035400003F3DB43BA691340BB613B68DA68FB698C
:103550005B0002FA03F3BA691343BB617B68BA6983
:103560009A607B685B68BB610122FB6902FA03F326
:10357000DB43BA691340BB613B685B681B0903F01E
:103580000102FB6902FA03F3BA691343BB617B686A
:10359000BA695A603B685B6803F00303032B17D0DA
:1035A0007B68DB68BB61FB695B00032202FA03F303
:1035B000DB43BA691340BB613B689A68FB695B00F7
:1035C00002FA03F3BA691343BB617B68BA69DA6034
:1035D0003B685B6803F00303022B23D1FB69DA0825
:1035E0007B68083253F82230BB61FB6903F00703A4
:1035F0009B000F2202FA03F3DB43BA691340BB615D
:103600003B681A69FB6903F007039B0002FA03F3A6
:10361000BA691343BB61FB69DA087B680832B96990
:1036200043F822107B681B68BB61FB695B000322C7
:1036300002FA03F3DB43BA691340BB613B685B6882
:1036400003F00302FB695B0002FA03F3BA69134358
:10365000BB617B68BA691A603B685B6803F44033FE
:10366000002B00F0B4800023FB60604B5B6C5F4A72
:1036700043F4804353645D4B5B6C03F48043FB6015
:10368000FB685B4AFB699B08023352F82330BB613D
:10369000FB6903F003039B000F2202FA03F3DB43F1
:1036A000BA691340BB617B68524A93422BD07B6856
:1036B000514A934225D07B68504A93421FD07B6881
:1036C0004F4A934219D07B684E4A934213D07B688D
:1036D0004D4A93420DD07B684C4A934207D07B6899
:1036E0004B4A934201D107230EE008230CE0062346
:1036F0000AE0052308E0042306E0032304E0022394
:1037000002E0012300E00023FA6902F003029200C4
:103710009340BA691343BB613549FB699B08023387
:10372000BA6941F823203B4B9B68BB613B69DB4393
:10373000BA691340BB613B685B6803F48013002BDC
:1037400003D0BA693B691343BB61324ABB699360DA
:10375000304BDB68BB613B69DB43BA691340BB613B
:103760003B685B6803F40013002B03D0BA693B6924
:103770001343BB61274ABB69D360264B5B68BB61BF
:103780003B69DB43BA691340BB613B685B6803F488
:103790000033002B03D0BA693B691343BB611D4A58
:1037A000BB6953601B4B1B68BB613B69DB43BA6958
:1037B0001340BB613B685B6803F48033002B03D08C
:1037C000BA693B691343BB61124ABB691360FB6969
:1037D0000133FB61FB690F2B7FF690AE00BF00BF8A
:1037E0002437BD465DF8047B704700BF00380240B7
:1037F000003801400000024000040240000802407E
:10380000000C024000100240001402400018024068
:10381000001C0240003C014080B483B000AF7860DF
:103820000B467B8013467B707B78002B03D07A8815
:103830007B689A6103E07B881A047B689A6100BF09
:103840000C37BD465DF8047B7047000080B584B03E
:1038500000AF78607B68002B01D101232BE17B68EE
:1038600093F83D30DBB2002B06D17B68002283F851
:103870003C207868FEF786FE7B68242283F83D2092
:103880007B681B681A687B681B6822F001021A605B
:103890007B681B681A687B681B6842F400421A60E8
:1038A0007B681B681A687B681B6822F400421A60F8
:1038B00001F0E4FBF8607B685B68814A934207D8BB
:1038C000FB68804A934294BF01230023DBB206E0E9
:1038D000FB687D4A934294BF01230023DBB2002B97
:1038E00001D00123E7E0FB68784AA2FB03239B0C8D
:1038F000BB607B681B685B6823F03F017B681B68CB
:10390000BA680A435A607B681B681B6A23F03F0150
:103910007B685B686A4A934202D8BB68013309E05E
:10392000BB684FF4967202FB03F3694AA2FB0323C0
:103930009B0901337A6812680B4313627B681B682A
:10394000DB6923F44F4222F0FF027B685B685C492D
:103950008B4219D8FB68591E7B685B685B00B1FB22
:10396000F3F3591C40F6FC730B40002B0AD0FB68A4
:10397000591E7B685B685B00B1FBF3F30133C3F353
:103980000B0351E004234FE07B689B68002B11D1AF
:10399000FB68581E7B6859680B465B000B44B0FB04
:1039A000F3F30133C3F30B03002B0CBF01230023FC
:1039B000DBB212E0FB68581E7B6859680B469B001F
:1039C0000B4499000B44B0FBF3F30133C3F30B0337
:1039D000002B0CBF01230023DBB2002B01D00123FD
:1039E00022E07B689B68002B0ED1FB68581E7B6829
:1039F00059680B465B000B44B0FBF3F30133C3F390
:103A00000B0343F400430FE0FB68581E7B685968C2
:103A10000B469B000B4499000B44B0FBF3F30133BE
:103A2000C3F30B0343F44043796809681343CB6144
:103A30007B681B681B6823F0C0017B68DA697B68C0
:103A40001B6A1A437B681B680A431A607B681B6801
:103A50009B6823F4034323F0FF037A6811697A68B3
:103A6000D26811437A6812680B4393607B681B68C5
:103A7000DB6823F0FF017B685A697B689B691A4306
:103A80007B681B680A43DA607B681B681A687B687E
:103A90001B6842F001021A607B6800221A647B688E
:103AA000202283F83D207B6800221A637B68002275
:103AB00083F83E20002318461037BD4680BD00BF66
:103AC000A08601007F841E00FF083D0083DE1B43AB
:103AD000D34D621080B588B002AFF8600846114639
:103AE0001A4603467B810B463B811346FB80FFF75A
:103AF000F1F87861FB6893F83D30DBB2202B40F0A1
:103B0000D9807B690093192301226D49F86800F080
:103B10007FFC0346002B01D00223CCE0FB6893F826
:103B20003C30012B01D10223C5E0FB68012283F860
:103B30003C20FB681B681B6803F00103012B07D0C6
:103B4000FB681B681A68FB681B6842F001021A6078
:103B5000FB681B681A68FB681B6822F400621A6025
:103B6000FB68212283F83D20FB68402283F83E2039
:103B7000FB6800221A64FB683A6A5A62FB68BA8CD6
:103B80005A85FB685B8D9AB2FB681A85FB684D4AC3
:103B9000DA62F8883A8979897B690193BB6A009374
:103BA0000346F86800F0B6FA0346002B52D0012312
:103BB00081E07A69B96AF86800F000FD0346002BDD
:103BC0000DD0FB681B6C042B07D1FB681B681A68BF
:103BD000FB681B6842F400721A6001236BE0FB680B
:103BE0005B6A1A78FB681B681A61FB685B6A5A1C7F
:103BF000FB685A62FB681B8D013B9AB2FB681A8511
:103C0000FB685B8D9BB2013B9AB2FB685A85FB68EF
:103C10001B685B6903F00403042B1BD1FB681B8D3D
:103C2000002B17D0FB685B6A1A78FB681B681A6167
:103C3000FB685B6A5A1CFB685A62FB681B8D013B80
:103C40009AB2FB681A85FB685B8D9BB2013B9AB206
:103C5000FB685A85FB681B8D002BAAD17A69B96A6B
:103C6000F86800F0ECFC0346002B0DD0FB681B6CE1
:103C7000042B07D1FB681B681A68FB681B6842F4B9
:103C800000721A60012316E0FB681B681A68FB6863
:103C90001B6842F400721A60FB68202283F83D2002
:103CA000FB68002283F83E20FB68002283F83C205A
:103CB000002300E0022318461837BD4680BD00BF30
:103CC000020010000000FFFF80B58CB002AFF8606A
:103CD000084611461A4603467B810B463B81134634
:103CE000FB80FEF7F7FF7862FB6893F83D30DBB2AC
:103CF000202B40F008827B6A0093192301227B4924
:103D0000F86800F085FB0346002B01D00223FBE19D
:103D1000FB6893F83C30012B01D10223F4E1FB68EE
:103D2000012283F83C20FB681B681B6803F0010339
:103D3000012B07D0FB681B681A68FB681B6842F000
:103D400001021A60FB681B681A68FB681B6822F492
:103D500000621A60FB68222283F83D20FB68402243
:103D600083F83E20FB6800221A64FB683A6B5A62B3
:103D7000FB68BA8E5A85FB685B8D9AB2FB681A8520
:103D8000FB685B4ADA62F8883A8979897B6A019331
:103D9000BB6B00930346F86800F052FA0346002B11
:103DA00001D00123B0E1FB681B8D002B13D1002350
:103DB0003B62FB681B685B693B62FB681B689B6935
:103DC0003B623B6AFB681B681A68FB681B6842F42D
:103DD00000721A6084E1FB681B8D012B1BD1FB680C
:103DE0001B681A68FB681B6822F480621A60002353
:103DF000FB61FB681B685B69FB61FB681B689B6977
:103E0000FB61FB69FB681B681A68FB681B6842F46E
:103E100000721A6064E1FB681B8D022B1BD1FB68EA
:103E20001B681A68FB681B6822F480621A60FB68D2
:103E30001B681A68FB681B6842F400621A60002362
:103E4000BB61FB681B685B69BB61FB681B689B69A6
:103E5000BB61BB6944E100237B61FB681B685B6954
:103E60007B61FB681B689B697B617B6938E1FB6850
:103E70001B8D032B00F2F180FB681B8D012B23D1DE
:103E80007A6AB96BF86800F01BFC0346002B01D07E
:103E9000012339E1FB681B681A69FB685B6AD2B2CF
:103EA0001A70FB685B6A5A1CFB685A62FB681B8DC0
:103EB000013B9AB2FB681A85FB685B8D9BB2013BA4
:103EC0009AB2FB685A850BE1FB681B8D022B4ED121
:103ED0007B6A0093BB6B00220649F86800F098FAF1
:103EE0000346002B08D001230EE100BF02001000A2
:103EF0000000FFFF04000100FB681B681A68FB68F4
:103F00001B6842F400721A60FB681B681A69FB6840
:103F10005B6AD2B21A70FB685B6A5A1CFB685A6211
:103F2000FB681B8D013B9AB2FB681A85FB685B8DB1
:103F30009BB2013B9AB2FB685A85FB681B681A6901
:103F4000FB685B6AD2B21A70FB685B6A5A1CFB683A
:103F50005A62FB681B8D013B9AB2FB681A85FB68AD
:103F60005B8D9BB2013B9AB2FB685A85B8E07B6AD5
:103F70000093BB6B00226649F86800F049FA0346DB
:103F8000002B01D00123BFE0FB681B681A68FB68A7
:103F90001B6822F480621A60FB681B681A69FB6860
:103FA0005B6AD2B21A70FB685B6A5A1CFB685A6281
:103FB000FB681B8D013B9AB2FB681A85FB685B8D21
:103FC0009BB2013B9AB2FB685A857B6A0093BB6B3C
:103FD00000224F49F86800F01BFA0346002B01D07D
:103FE000012391E0FB681B681A68FB681B6842F4B8
:103FF00000721A60FB681B681A69FB685B6AD2B2C0
:104000001A70FB685B6A5A1CFB685A62FB681B8D5E
:10401000013B9AB2FB681A85FB685B8D9BB2013B42
:104020009AB2FB685A85FB681B681A69FB685B6A71
:10403000D2B21A70FB685B6A5A1CFB685A62FB6852
:104040001B8D013B9AB2FB681A85FB685B8D9BB2A6
:10405000013B9AB2FB685A8542E07A6AB96BF8680C
:1040600000F02EFB0346002B01D001234CE0FB683F
:104070001B681A69FB685B6AD2B21A70FB685B6ADC
:104080005A1CFB685A62FB681B8D013B9AB2FB68A5
:104090001A85FB685B8D9BB2013B9AB2FB685A851F
:1040A000FB681B685B6903F00403042B18D1FB68F1
:1040B0001B681A69FB685B6AD2B21A70FB685B6A9C
:1040C0005A1CFB685A62FB681B8D013B9AB2FB6865
:1040D0001A85FB685B8D9BB2013B9AB2FB685A85DF
:1040E000FB681B8D002B7FF4C2AEFB68202283F897
:1040F0003D20FB68002283F83E20FB68002283F805
:104100003C20002300E0022318462837BD4680BD2E
:104110000400010080B588B002AFF860084611467F
:104120001A4603467B810B463B811346FB80FB68A6
:104130001B681A68FB681B6842F480721A607B6A0D
:1041400000933B6A00224FF00111F86800F060F91B
:104150000346002B0DD0FB681B681B6803F48073BB
:10416000B3F5807F03D1FB684FF400721A64032318
:104170005FE07B89DBB21A46FB681B6802F0FE0237
:104180001A617B6A3A6A2D49F86800F098F903468B
:10419000002B01D001234CE000237B61FB681B68EE
:1041A0005B697B61FB681B689B697B617B697A6AE1
:1041B000396AF86800F002FA0346002B0DD0FB685C
:1041C0001B6C042B07D1FB681B681A68FB681B6813
:1041D00042F400721A6001232BE0FB88012B05D109
:1041E0003B89DAB2FB681B681A6121E03B891B0A34
:1041F0009BB2DAB2FB681B681A617A6A396AF8689E
:1042000000F0DCF90346002B0DD0FB681B6C042B7F
:1042100007D1FB681B681A68FB681B6842F40072D0
:104220001A60012305E03B89DAB2FB681B681A615A
:10423000002318461837BD4680BD00BF02000100AC
:1042400080B588B002AFF860084611461A460346AA
:104250007B810B463B811346FB80FB681B681A6819
:10426000FB681B6842F480621A60FB681B681A686E
:10427000FB681B6842F480721A607B6A00933B6A99
:1042800000224FF00111F86800F0C2F80346002B3D
:104290000DD0FB681B681B6803F48073B3F5807F47
:1042A00003D1FB684FF400721A640323AAE07B89F0
:1042B000DBB21A46FB681B6802F0FE021A617B6AD9
:1042C0003A6A5249F86800F0FAF80346002B01D028
:1042D000012397E000237B61FB681B685B697B61BE
:1042E000FB681B689B697B617B697A6A396AF8683D
:1042F00000F064F90346002B0DD0FB681B6C042B07
:1043000007D1FB681B681A68FB681B6842F40072DF
:104310001A60012376E0FB88012B05D13B89DAB2D4
:10432000FB681B681A6121E03B891B0A9BB2DAB269
:10433000FB681B681A617A6A396AF86800F03EF90E
:104340000346002B0DD0FB681B6C042B07D1FB68C8
:104350001B681A68FB681B6842F400721A6001232C
:1043600050E03B89DAB2FB681B681A617A6A396AE5
:10437000F86800F023F90346002B0DD0FB681B6C96
:10438000042B07D1FB681B681A68FB681B6842F4A2
:1043900000721A60012335E0FB681B681A68FB682D
:1043A0001B6842F480721A607B6A00933B6A0022A9
:1043B0004FF00111F86800F02BF80346002B0DD0E8
:1043C000FB681B681B6803F48073B3F5807F03D11F
:1043D000FB684FF400721A64032313E07B89DBB29D
:1043E00043F00103DAB2FB681B681A617B6A3A6A20
:1043F0000649F86800F063F80346002B01D001235A
:1044000000E0002318461837BD4680BD02000100B9
:1044100080B584B000AFF860B9603B601346FB71B3
:1044200025E03B68B3F1FF3F21D0FEF753FC024685
:10443000BB69D31A3A689A4202D33B68002B16D163
:10444000FB6800221A63FB68202283F83D20FB688A
:10445000002283F83E20FB681B6C43F02002FB68BF
:104460001A64FB68002283F83C20012323E0BB6828
:104470001B0CDBB2012B0DD1FB681B685B69DA43B7
:10448000BB6813409BB2002B0CBF01230023DBB29F
:104490001A460CE0FB681B689B69DA43BB68134053
:1044A0009BB2002B0CBF01230023DBB21A46FB7921
:1044B0009A42B6D0002318461037BD4680BD80B55D
:1044C00084B000AFF860B9607A603B6051E0FB688F
:1044D0001B685B6903F48063B3F5806F23D1FB68CD
:1044E0001B681A68FB681B6842F400721A60FB685C
:1044F0001B686FF480625A61FB6800221A63FB68D4
:10450000202283F83D20FB68002283F83E20FB68D0
:104510001B6C43F00402FB681A64FB68002283F8FA
:104520003C20012346E07B68B3F1FF3F21D0FEF73A
:10453000D1FB02463B68D31A7A689A4202D37B6861
:10454000002B16D1FB6800221A63FB68202283F837
:104550003D20FB68002283F83E20FB681B6C43F083
:104560002002FB681A64FB68002283F83C200123C8
:1045700020E0BB681B0CDBB2012B0CD1FB681B6875
:104580005B69DA43BB6813409BB2002B14BF012365
:104590000023DBB20BE0FB681B689B69DA43BB6856
:1045A00013409BB2002B14BF01230023DBB2002B6E
:1045B0008DD1002318461037BD4680BD80B584B02C
:1045C00000AFF860B9607A602DE0F86800F0CEF8CE
:1045D0000346002B01D001232DE0BB68B3F1FF3F60
:1045E00021D0FEF777FB02467B68D31ABA689A425D
:1045F00002D3BB68002B16D1FB6800221A63FB684C
:10460000202283F83D20FB68002283F83E20FB68CF
:104610001B6C43F02002FB681A64FB68002283F8DD
:104620003C20012307E0FB681B685B6903F0800303
:10463000802BCAD1002318461037BD4680BD80B5F7
:1046400084B000AFF860B9607A602DE0F86800F0DF
:104650008DF80346002B01D001232DE0BB68B3F198
:10466000FF3F21D0FEF736FB02467B68D31ABA68BB
:104670009A4202D3BB68002B16D1FB6800221A6352
:10468000FB68202283F83D20FB68002283F83E204F
:10469000FB681B6C43F02002FB681A64FB68002275
:1046A00083F83C20012307E0FB681B685B6903F08B
:1046B0000403042BCAD1002318461037BD4680BD21
:1046C00080B584B000AFF860B9607A6042E0FB6802
:1046D0001B685B6903F01003102B19D1FB681B6882
:1046E0006FF010025A61FB6800221A63FB682022F7
:1046F00083F83D20FB68002283F83E20FB681A6C9B
:10470000FB681A64FB68002283F83C20012329E03F
:10471000FEF7E0FA02467B68D31ABA689A4202D3DF
:10472000BB68002B16D1FB6800221A63FB682022AD
:1047300083F83D20FB68002283F83E20FB681B6C59
:1047400043F02002FB681A64FB68002283F83C20D7
:10475000012307E0FB681B685B6903F04003402B03
:10476000B5D1002318461037BD4680BD80B483B054
:1047700000AF78607B681B685B6903F48063B3F506
:10478000806F1BD17B681B686FF480625A617B6805
:1047900000221A637B68202283F83D207B68002278
:1047A00083F83E207B681B6C43F004027B681A642C
:1047B0007B68002283F83C20012300E00023184698
:1047C0000C37BD465DF8047B7047000080B483B0B1
:1047D00000AF064B01221A60054B1B687B607B68AB
:1047E00000BF0C37BD465DF8047B704720000E42C9
:1047F0000070004080B483B000AF064B00221A6006
:10480000054B1B687B607B6800BF0C37BD465DF8BD
:10481000047B704720000E420070004080B586B0D7
:1048200000AF78607B68002B01D1012367E27B68D1
:104830001B6803F00103002B75D0884B9B6803F0C5
:104840000C03042B0CD0854B9B6803F00C03082B46
:1048500012D1824B5B6803F48003B3F5800F0BD158
:104860007E4B1B6803F40033002B5BD07B685B68D6
:10487000002B57D1012342E27B685B68B3F5803F90
:1048800006D1764B1B68754A43F4803313601DE0F4
:104890007B685B68B3F5A02F0CD1704B1B686F4A27
:1048A00043F4802313606D4B1B686C4A43F48033E0
:1048B00013600BE0694B1B68684A23F48033136074
:1048C000664B1B68654A23F4802313607B685B6832
:1048D000002B13D0FEF7FEF9386108E0FEF7FAF975
:1048E00002463B69D31A642B01D9032307E25B4BD1
:1048F0001B6803F40033002BF0D014E0FEF7EAF954
:10490000386108E0FEF7E6F902463B69D31A642BEA
:1049100001D90323F3E1514B1B6803F40033002B4F
:10492000F0D100E000BF7B681B6803F00203002B9E
:1049300063D04A4B9B6803F00C03002B0BD0474B12
:104940009B6803F00C03082B1CD1444B5B6803F4F9
:104950008003002B16D1414B1B6803F00203002B90
:1049600005D07B68DB68012B01D00123C7E13B4BFD
:104970001B6823F0F8027B681B69DB00374913438F
:104980000B603AE07B68DB68002B20D0344B0122BF
:104990001A60FEF79FF9386108E0FEF79BF90246BE
:1049A0003B69D31A022B01D90323A8E12B4B1B68C7
:1049B00003F00203002BF0D0284B1B6823F0F80211
:1049C0007B681B69DB00254913430B6015E0244B12
:1049D00000221A60FEF77EF9386108E0FEF77AF9E6
:1049E00002463B69D31A022B01D9032387E11B4BF3
:1049F0001B6803F00203002BF0D17B681B6803F0F7
:104A00000803002B36D07B685B69002B16D0154B52
:104A100001221A60FEF75EF9386108E0FEF75AF9E4
:104A200002463B69D31A022B01D9032367E10B4BE2
:104A30005B6F03F00203002BF0D01BE0094B002258
:104A40001A60FEF747F938610EE0FEF743F90246B7
:104A50003B69D31A022B07D9032350E100380240E7
:104A600000004742800E4742884B5B6F03F0020311
:104A7000002BEAD17B681B6803F00403002B00F0D5
:104A800097800023FB75814B1B6C03F08053002B38
:104A90000FD10023BB607D4B1B6C7C4A43F08053DD
:104AA00013647A4B1B6C03F08053BB60BB6801231B
:104AB000FB75774B1B6803F48073002B18D1744B84
:104AC0001B68734A43F480731360FEF703F938617F
:104AD00008E0FEF7FFF802463B69D31A022B01D922
:104AE00003230CE16A4B1B6803F48073002BF0D0A6
:104AF0007B689B68012B06D1644B1B6F634A43F0B4
:104B0000010313671CE07B689B68052B0CD15F4B8E
:104B10001B6F5E4A43F0040313675C4B1B6F5B4AD9
:104B200043F0010313670BE0584B1B6F574A23F008
:104B300001031367554B1B6F544A23F0040313679B
:104B40007B689B68002B15D0FEF7C4F838610AE03B
:104B5000FEF7C0F802463B69D31A41F2883293420D
:104B600001D90323CBE0494B1B6F03F00203002B59
:104B7000EED014E0FEF7AEF838610AE0FEF7AAF8CE
:104B800002463B69D31A41F28832934201D903238A
:104B9000B5E03E4B1B6F03F00203002BEED1FB7D13
:104BA000012B05D1394B1B6C384A23F08053136419
:104BB0007B689B69002B00F0A180344B9B6803F05D
:104BC0000C03082B5CD07B689B69022B41D1314BD5
:104BD00000221A60FEF77EF8386108E0FEF77AF8E6
:104BE00002463B69D31A022B01D9032387E0274BE6
:104BF0001B6803F00073002BF0D17B68DA697B68D7
:104C00001B6A1A437B685B6A9B011A437B689B6A39
:104C10005B08013B1B041A437B68DB6A1B061B49CC
:104C200013434B601B4B01221A60FEF753F83861A7
:104C300008E0FEF74FF802463B69D31A022B01D970
:104C400003235CE0114B1B6803F00073002BF0D0D2
:104C500054E0104B00221A60FEF73CF8386108E07F
:104C6000FEF738F802463B69D31A022B01D9032319
:104C700045E0064B1B6803F00073002BF0D13DE0CC
:104C80007B689B69012B07D1012338E00038024083
:104C900000700040600047421B4B5B68FB607B6814
:104CA0009B69012B28D0FB6803F480027B68DB69D9
:104CB0009A4221D1FB6803F03F027B681B6A9A424B
:104CC0001AD1FA6847F6C07313407A68526A9201A3
:104CD000934211D1FB6803F440327B689B6A5B0806
:104CE000013B1B049A4207D1FB6803F070627B68AA
:104CF000DB6A1B069A4201D0012300E0002318461C
:104D00001837BD4680BD00BF0038024080B584B072
:104D100000AF786039607B68002B01D10123CCE0C3
:104D2000684B1B6803F007033A689A420CD9654B3D
:104D30003A68D2B21A70634B1B6803F007033A68F3
:104D40009A4201D00123B8E07B681B6803F002039C
:104D5000002B20D07B681B6803F00403002B05D0D8
:104D6000594B9B68584A43F4E05393607B681B6837
:104D700003F00803002B05D0534B9B68524A43F4C1
:104D800060439360504B9B6823F0F0027B689B6804
:104D90004D4913438B607B681B6803F00103002BB4
:104DA00044D07B685B68012B07D1474B1B6803F439
:104DB0000033002B19D101237FE07B685B68022B55
:104DC00003D07B685B68032B07D13F4B1B6803F064
:104DD0000073002B09D101236FE03B4B1B6803F0EC
:104DE0000203002B01D1012367E0374B9B6823F0BE
:104DF00003027B685B68344913438B60FDF76AFFED
:104E0000F8600AE0FDF766FF0246FB68D31A41F23C
:104E10008832934201D903234FE02B4B9B6803F068
:104E20000C027B685B689B009A42EBD1254B1B68A8
:104E300003F007033A689A420CD2224B3A68D2B286
:104E40001A70204B1B6803F007033A689A4201D09E
:104E5000012332E07B681B6803F00403002B08D0B9
:104E6000194B9B6823F4E0527B68DB6816491343B7
:104E70008B607B681B6803F00803002B09D0124B82
:104E80009B6823F460427B681B69DB000E49134377
:104E90008B6000F021F802460B4B9B681B0903F066
:104EA0000F030A49CB5C22FA03F3094A1360094B4A
:104EB0001B681846FDF730FD002318461037BD4625
:104EC00080BD00BF003C02400038024038DB0008D3
:104ED00020000020240000202DE9B04F90B000AF4A
:104EE00000237B630023FB6300233B630023BB633E
:104EF000594B9B6803F00C03082B0DD0082B00F2D4
:104F0000A180002B02D0042B03D09BE0534BBB634A
:104F10009BE0534BBB6398E04F4B5B6803F03F0350
:104F20007B634D4B5B6803F48003002B28D04A4B16
:104F30005B689B0900223B627A623B6AC3F308000C
:104F40000021474B03FB01F2002300FB03F3134452
:104F5000434AA0FB0212FA620A46BA62FA6A134492
:104F6000FB627B6B0022BB61FA61D7E90623D7E9BC
:104F70000A01FBF769FE02460B461346FB6353E04A
:104F8000354B5B689B0900223B617A613B69C3F347
:104F9000080A4FF0000B52465B464FF000004FF0FE
:104FA0000001590141EAD261500102460B46B2EBC1
:104FB0000A0863EB0B094FF000024FF000034FEAC1
:104FC000891343EA98634FEA8812B2EB080463EB53
:104FD00009054FF000024FF00003EB0043EA547361
:104FE000E20014461D4614EB0A033B6045EB0B033D
:104FF0007B604FF000024FF00003D7E900452946DF
:105000008B02214643EA915321468A0210461946F3
:105010007B6B0022BB60FA60D7E90223FBF714FE2A
:1050200002460B461346FB630B4B5B681B0C03F0FD
:10503000030301335B003B63FA6B3B6BB2FBF3F39F
:10504000BB6302E0054BBB6300BFBB6B1846403738
:10505000BD46BDE8B08F00BF003802400024F40018
:1050600040787D0180B400AF034B1B681846BD46F5
:105070005DF8047B704700BF2000002080B500AFC2
:10508000FFF7F0FF0246054B9B689B0A03F00703FE
:105090000349CB5C22FA03F3184680BD0038024076
:1050A00048DB000880B500AFFFF7DCFF0246054B88
:1050B0009B685B0B03F007030349CB5C22FA03F305
:1050C000184680BD0038024048DB000880B483B039
:1050D00000AF786039607B680F221A60124B9B68C2
:1050E00003F003027B685A600F4B9B6803F0F002E9
:1050F0007B689A600C4B9B6803F4E0527B68DA6033
:10510000094B9B68DB0803F4E0527B681A61074B8C
:105110001B6803F007023B681A6000BF0C37BD46EE
:105120005DF8047B704700BF00380240003C02403D
:1051300080B582B000AF78607B68002B01D101237D
:1051400041E07B6893F83D30DBB2002B06D17B68F1
:10515000002283F83C207868FDF75CFA7B68022225
:1051600083F83D207B681A687B6804331946104633
:1051700000F0CEFD7B68012283F846207B68012287
:1051800083F83E207B68012283F83F207B68012260
:1051900083F840207B68012283F841207B6801224C
:1051A00083F842207B68012283F843207B68012238
:1051B00083F844207B68012283F845207B68012224
:1051C00083F83D20002318460837BD4680BD000007
:1051D00080B485B000AF78607B6893F83D30DBB277
:1051E000012B01D001234EE07B68022283F83D2091
:1051F0007B681B68DA687B681B6842F00102DA6032
:105200007B681B68234A934222D07B681B68B3F1FA
:10521000804F1DD07B681B681F4A934218D07B6863
:105220001B681E4A934213D07B681B681C4A93423A
:105230000ED07B681B681B4A934209D07B681B68B1
:10524000194A934204D07B681B68184A934211D1D3
:105250007B681B689B6803F00703FB60FB68062BF9
:1052600010D07B681B681A687B681B6842F00102DB
:105270001A6007E07B681B681A687B681B6842F04D
:1052800001021A60002318461437BD465DF8047BFE
:10529000704700BF000001400004004000080040CB
:1052A000000C004000040140004001400018004094
:1052B00080B582B000AF78607B68002B01D10123FC
:1052C00041E07B6893F83D30DBB2002B06D17B6870
:1052D000002283F83C20786800F039F87B680222CD
:1052E00083F83D207B681A687B68043319461046B2
:1052F00000F00EFD7B68012283F846207B680122C6
:1053000083F83E207B68012283F83F207B680122DE
:1053100083F840207B68012283F841207B680122CA
:1053200083F842207B68012283F843207B680122B6
:1053300083F844207B68012283F845207B680122A2
:1053400083F83D20002318460837BD4680BD80B451
:1053500083B000AF786000BF0C37BD465DF8047BBA
:105360007047000080B584B000AF786039603B685A
:10537000002B09D17B6893F83E30DBB2012B14BFC0
:1053800001230023DBB222E03B68042B09D17B68B8
:1053900093F83F30DBB2012B14BF01230023DBB2B3
:1053A00015E03B68082B09D17B6893F84030DBB2ED
:1053B000012B14BF01230023DBB208E07B6893F8C4
:1053C0004130DBB2012B14BF01230023DBB2002BE1
:1053D00001D001237CE03B68002B04D17B680222D2
:1053E00083F83E2013E03B68042B04D17B68022243
:1053F00083F83F200BE03B68082B04D17B68022236
:1054000083F8402003E07B68022283F841207B6818
:105410001B6801223968184600F064FF7B681B682E
:105420002D4A934204D07B681B682C4A934201D1D9
:10543000012300E00023002B07D07B681B685A6C17
:105440007B681B6842F400425A647B681B68224AEE
:10545000934222D07B681B68B3F1804F1DD07B68DC
:105460001B681F4A934218D07B681B681D4A9342F1
:1054700013D07B681B681C4A93420ED07B681B6864
:10548000164A934209D07B681B68184A934204D09D
:105490007B681B68164A934211D17B681B689B6826
:1054A00003F00703FB60FB68062B10D07B681B68CA
:1054B0001A687B681B6842F001021A6007E07B688B
:1054C0001B681A687B681B6842F001021A6000239F
:1054D00018461037BD4680BD000001400004014061
:1054E0000004004000080040000C00400040014063
:1054F0000018004080B586B000AF786039607B68E6
:10550000002B01D1012397E07B6893F83D30DBB29B
:10551000002B06D17B68002283F83C207868FDF7D9
:10552000D7F87B68022283F83D207B681B689B6864
:105530007A68126823F4804323F0070393607B6842
:105540001A687B6804331946104600F0E1FB7B685B
:105550001B689B687B617B681B689B693B617B6800
:105560001B681B6AFB603B681B687A6913437B619D
:105570003B6923F4407323F003033B613B689A6863
:105580003B689B691B0213433A6913433B613B69C8
:1055900023F4406323F00C033B613B6923F4704325
:1055A00023F0F0033B613B68DA683B68DB691B0270
:1055B00013433A6913433B613B681B691A013B681B
:1055C0001B6A1B0313433A6913433B61FB6823F0D7
:1055D0002203FB60FB6823F08803FB603B685A688A
:1055E0003B685B691B011343FA681343FB607B68EC
:1055F0001B687A699A607B681B683A699A617B6864
:105600001B68FA681A627B68012283F846207B686F
:10561000012283F83E207B68012283F83F207B68CB
:10562000012283F842207B68012283F843207B68B3
:10563000012283F83D20002318461837BD4680BD5F
:1056400080B584B000AF786039607B6893F83E30F5
:10565000FB737B6893F83F30BB737B6893F84230F1
:105660007B737B6893F843303B733B68002B10D10E
:10567000FB7B012B02D17B7B012B01D0012389E035
:105680007B68022283F83E207B68022283F8422056
:1056900031E03B68042B10D1BB7B012B02D13B7B5B
:1056A000012B01D0012375E07B68022283F83F20A3
:1056B0007B68022283F843201DE0FB7B012B08D18D
:1056C000BB7B012B05D17B7B012B02D13B7B012BCB
:1056D00001D001235EE07B68022283F83E207B68D4
:1056E000022283F83F207B68022283F842207B68F5
:1056F000022283F843203B68002B03D03B68042B35
:1057000010D01FE07B681B6801220021184600F0C2
:10571000E9FD7B681B68DA687B681B6842F002025F
:10572000DA602EE07B681B6801220421184600F035
:10573000D9FD7B681B68DA687B681B6842F004024D
:10574000DA601EE07B681B6801220021184600F029
:10575000C9FD7B681B6801220421184600F0C2FDC8
:105760007B681B68DA687B681B6842F00202DA60BB
:105770007B681B68DA687B681B6842F00402DA60A9
:1057800000BF7B681B681A687B681B6842F00102D7
:105790001A60002318461037BD4680BD80B582B020
:1057A00000AF78607B681B681B6903F00203022B63
:1057B00022D17B681B68DB6803F00203022B1BD13C
:1057C0007B681B686FF002021A617B6801221A77FE
:1057D0007B681B689B6903F00303002B03D0786888
:1057E00000F077FA05E0786800F069FA786800F070
:1057F0007AFA7B6800221A777B681B681B6903F0C2
:105800000403042B22D17B681B68DB6803F00403CC
:10581000042B1BD17B681B686FF004021A617B6844
:1058200002221A777B681B689B6903F44073002B84
:1058300003D0786800F04DFA05E0786800F03FFA90
:10584000786800F050FA7B6800221A777B681B6842
:105850001B6903F00803082B22D17B681B68DB68F7
:1058600003F00803082B1BD17B681B686FF008024C
:105870001A617B6804221A777B681B68DB6903F076
:105880000303002B03D0786800F023FA05E0786862
:1058900000F015FA786800F026FA7B6800221A7783
:1058A0007B681B681B6903F01003102B22D17B68F7
:1058B0001B68DB6803F01003102B1BD17B681B688F
:1058C0006FF010021A617B6808221A777B681B68E8
:1058D000DB6903F44073002B03D0786800F0F9F91A
:1058E00005E0786800F0EBF9786800F0FCF97B6877
:1058F00000221A777B681B681B6903F00103012BE8
:105900000ED17B681B68DB6803F00103012B07D114
:105910007B681B686FF001021A617868FCF7AAFDCA
:105920007B681B681B6903F08003802B0ED17B68AA
:105930001B68DB6803F08003802B07D17B681B6842
:105940006FF080021A61786800F0CAFD7B681B68FE
:105950001B6903F04003402B0ED17B681B68DB689A
:1059600003F04003402B07D17B681B686FF04002B7
:105970001A61786800F0C1F97B681B681B6903F045
:105980002003202B0ED17B681B68DB6803F020030B
:10599000202B07D17B681B686FF020021A617868A2
:1059A00000F094FD00BF0837BD4680BD80B586B0CD
:1059B00000AFF860B9607A600023FB75FB6893F86C
:1059C0003C30012B01D10223AEE0FB68012283F8B9
:1059D0003C207B680C2B00F29F8001A252F823F040
:1059E000155A0008195B0008195B0008195B0008CC
:1059F000555A0008195B0008195B0008195B00087C
:105A0000975A0008195B0008195B0008195B000829
:105A1000D75A0008FB681B68B968184600F018FAE6
:105A2000FB681B689A69FB681B6842F008029A6170
:105A3000FB681B689A69FB681B6822F004029A6184
:105A4000FB681B689969BB681A69FB681B680A4395
:105A50009A6164E0FB681B68B968184600F068FA50
:105A6000FB681B689A69FB681B6842F400629A61D4
:105A7000FB681B689A69FB681B6822F480629A6164
:105A8000FB681B689969BB681B691A02FB681B6885
:105A90000A439A6143E0FB681B68B968184600F046
:105AA000BDFAFB681B68DA69FB681B6842F00802F4
:105AB000DA61FB681B68DA69FB681B6822F0040284
:105AC000DA61FB681B68D969BB681A69FB681B68E7
:105AD0000A43DA6123E0FB681B68B968184600F0E6
